:020000040800F2
:10000000485500246D030008D97800087F71000866
:10001000D57800089D040008E19700080000000062
:10002000000000000000000000000000AD02000819
:100030003D0A00080000000009030008D180000804
:100040008703000887030008870300088703000868
:100050008703000887030008870300088703000858
:10006000870300088703000887030008A10400082D
:10007000B1040008C10400088703000887030008D2
:100080008703000887030008870300088703000828
:100090008703000887030008870300088703000818
:1000A0008703000887030008870300088703000808
:1000B00087030008870300088703000887030008F8
:1000C000870300088703000887030008B17E000843
:1000D00087030008698F000887030008870300086A
:1000E000870300088703000800000000870300085A
:1000F00087030008870300088703000887030008B8
:1001000087030008870300088703000887030008A7
:100110008703000887030008870300088703000897
:100120008703000887030008870300088703000887
:100130008703000887030008870300088703000877
:1001400000000000000000000000000000000000AF
:100150008703000887030008870300088703000857
:100160008703000887030008870300088703000847
:1001700087030008870300088703000800000000C9
:100180008703000887030008870300088703000827
:100190008703000887030008870300088703000817
:1001A0008703000887030008870300088703000807
:1001B000D97B00088703000887030008870300082D
:1001C00087030008870300088703000887030008E7
:1001D00087030008DD78000887030008870300080C
:1001E00087030008870300088703000887030008C7
:1001F00087030008870300088703000887030008B7
:1002000087030008870300088703000887030008A6
:100210008703000887030008E582000887030008B9
:100220008703000887030008A5730008000000008A
:100230008703000887030008000000008703000808
:100240008703000887030008870300088703000866
:100250008703000887030008870300088703000856
:100260008703000887030008870300088703000846
:1002700087030008870300088703000800000000C8
:1002800087030008870300088703000800000000B8
:100290000000000087030008DFF80CD000F0ECF845
:1002A00000480047E99C0008485500242C4B196879
:1002B0000868B0E8F04F80F30988BFF36F8F4FF004
:1002C000000080F3118870470000000008480068B3
:1002D000006880F308884FF0000080F3148862B64D
:1002E00061B6BFF34F8FBFF36F8F00DF00BF00BF5A
:1002F00008ED00E0DFF80C00016841F470010160D6
:10030000704700BF88ED00E0EFF30980BFF36F8F07
:10031000134B1A681EF0100F08BF20ED108A20E959
:10032000F04F106009B44FF0500080F31188BFF314
:100330004F8FBFF36F8F0AF0BDFA4FF0000080F3CC
:10034000118809BC19680868B0E8F04F1EF0100F5A
:1003500008BFB0EC108A80F30988BFF36F8F704735
:100360007C000024EFF305807047000006488047BA
:1003700006480047FEE7FEE7FEE7FEE7FEE7FEE78A
:10038000FEE7FEE7FEE7FEE7E981000899020008C4
:100390002DE9F05F0546002092469B4688460646BA
:1003A000814640241BE0284641464746224600F04D
:1003B00053F853465A46C01A914110D31146184675
:1003C000224600F03AF82D1A67EB01084F46224604
:1003D0000120002100F031F817EB00094E41201EEA
:1003E000A4F10104DFDC484631462A464346BDE815
:1003F000F09F40EA01039B0703D009E008C9121FE0
:1004000008C0042AFAD203E011F8013B00F8013BCE
:10041000521EF9D27047D2B201E000F8012B491EFA
:10042000FBD270470022F6E710B513460A46044691
:100430001946FFF7F0FF204610BD202A04DB203AC2
:1004400000FA02F1002070479140C2F1200320FA27
:1004500003F3194390407047202A04DB203A21FA25
:1004600002F00021704721FA02F3D040C2F12002CD
:100470009140084319467047064C074D06E0E06876
:1004800040F0010394E8070098471034AC42F6D3DB
:10049000FFF706FF7CB400089CB4000800BFFEE72D
:1004A00010B5024800F042FF10BD0000B80400245F
:1004B00010B5024800F03AFF10BD0000C00500244E
:1004C00010B5024800F032FF10BD000038060024CD
:1004D0000146374A0868904249D0354A18320868C0
:1004E000904244D0324A3032086890423FD0304A7D
:1004F0004832086890423AD02D4A603208689042EB
:1005000035D02B4A78320868904230D0284A903251
:10051000086890422BD0264AA8320868904226D01C
:10052000244A0868904222D0224A18320868904231
:100530001DD0204A30320868904218D01D4A4832F7
:100540000868904213D01B4A6032086890420ED06F
:10055000184A78320868904209D0164A90320868E2
:10056000904204D0134AA8320868904201D1012079
:1005700000E00020B0B10A78103A1823B2FBF3F083
:1005800000F007020C4B9A5CCA65032805D90A687B
:100590006FF30902121D8A6503E00A686FF309020E
:1005A0008A6503E0086820F0FF008865886D704761
:1005B00010000240100402400CB4000810B502689C
:1005C0002B4C0368A34222D0294C14340368A34265
:1005D0001DD0274C28340368A34218D0244C3C3447
:1005E0000368A34213D0224C50340368A3420ED0B8
:1005F0001F4C64340368A34209D01D4C783403684F
:10060000A34204D01A4C8C340368A34201D10123C5
:1006100000E000238BB10378083B1424B3FBF4F112
:10062000144B03EB81030366124B8033436601F0E6
:100630001F040123A340836618E00378103B1824AD
:10064000B3FBF4F10C4B9A4204D80B4BA83B9A42F3
:1006500000D30831094B03EB81030366074B80335A
:10066000436601F01F040123A340836610BD000010
:100670000854025800580258B804024000080240CA
:100680000179A9B3082940D8204B02689A4222D0A8
:100690001E4B143302689A421DD01C4B283302684B
:1006A0009A4218D0194B3C3302689A4213D0174B28
:1006B000503302689A420ED0144B643302689A4257
:1006C00009D0124B783302689A4204D00F4B8C3316
:1006D00002689A4201D1012200E000224AB14A1E7A
:1006E0000B4B03EB8202C266094A4032026708E004
:1006F0000BE04A1E074B03EB8202C266054A4032FA
:1007000002674A1E0123934043677047085402580A
:100710000059025800090240014600208A69D2B9F6
:100720008A6A32B1012A0DD0022A03D0032A10D1DD
:100730000EE000BFCA6A02F08072B2F1807F00D181
:10074000012007E0CA6AB2F1C07F00D1012001E0B8
:1007500000E000BF36E08A69B2F5005F1BD18A6A0B
:1007600032B1012A07D0022A03D0032A11D10AE0AC
:1007700000BF01200EE0CA6A02F08072B2F1807FF1
:1007800000D1012006E0CA6AB2F1C07F00D1012089
:1007900000E000BF16E08A6A32B1012A05D0022AC1
:1007A00004D0032A0CD103E000BF00BF012008E001
:1007B000CA6A02F08072B2F1807F00D1012000E0AD
:1007C00000BF00BF70470000F0B5856D846D984F85
:1007D0000668BE4270D0964F18370668BE426BD08E
:1007E000934F30370668BE4266D0914F483706684F
:1007F000BE4261D08E4F60370668BE425CD08C4FDF
:1008000078370668BE4257D0894F90370668BE4297
:1008100052D0874FA8370668BE424DD0854F066834
:10082000BE4249D0834F18370668BE4244D0814F3C
:1008300030370668BE423FD07E4F48370668BE421A
:100840003AD07C4F60370668BE4235D0794F783752
:100850000668BE4230D0774F90370668BE422BD034
:10086000744FA8370668BE4226D0734F0668BE4252
:1008700022D0714F14370668BE421DD06E4F283704
:100880000668BE4218D06C4F3C370668BE4213D093
:10089000694F50370668BE420ED0674F643706680E
:1008A000BE4209D0644F78370668BE4204D0624F1A
:1008B0008C370668BE4201D1012600E000263EB119
:1008C000D0E919767E60C66E16B1D0E91C767E60DE
:1008D000574F0668BE4249D0554F18370668BE428A
:1008E00044D0534F30370668BE423FD0504F483750
:1008F0000668BE423AD04E4F60370668BE4235D0D9
:100900004B4F78370668BE4230D0494F9037066863
:10091000BE422BD0464FA8370668BE4226D0454F70
:100920000668BE4222D0434F18370668BE421DD02B
:10093000404F30370668BE4218D03E4F48370668F1
:10094000BE4213D03B4F60370668BE420ED0394FCF
:1009500078370668BE4209D0364F90370668BE42E7
:1009600004D0344FA8370668BE4201D1012600E00A
:100970000026DEB190F85C6006F01F073F26BE40FF
:10098000AE600668366826F4802607683E60066812
:1009900073608668402E04D10668B2600668F16014
:1009A00044E00668B1600668F2603FE0224F0668E6
:1009B000BE4222D0204F14370668BE421DD01E4FC3
:1009C00028370668BE4218D01B4F3C370668BE4227
:1009D00013D0194F50370668BE420ED0164F6437F9
:1009E0000668BE4209D0144F78370668BE4204D06C
:1009F000114F8C370668BE4201D1012600E0002667
:100A0000A6B190F85C6006F01F070126BE40666044
:100A1000066873608668402E04D10668B260066876
:100A2000F16003E00668B1600668F260F0BD0000A6
:100A3000100002401004024008540258704772B679
:100A400000BFFEE710B50346D1E9000440EA0420E8
:100A50000C8940EA04400C7B40EA0460DC68D86002
:100A6000002010BD10B50346D1E9000440EA04207F
:100A70000C8940EA04400C7B40EA04609C68986062
:100A8000002010BD10B50246486840F008008B6891
:100A90001843CB6818430B6918434B6940EA43205D
:100AA0008B6940EA43301368024C234018431060BE
:100AB000002010BD8901F0FF2DE9F041044601F04E
:100AC000D9FF804614B90120BDE8F08194F83500C3
:100AD000022808D08020606500BF002084F8340020
:100AE00000BF0120F0E7FE492068884249D0FC4958
:100AF00018312068884244D0F94930312068884252
:100B00003FD0F7494831206888423AD0F4496031F3
:100B10002068884235D0F24978312068884230D048
:100B2000EF499031206888422BD0ED49A8312068E8
:100B3000884226D0EB492068884222D0E949183102
:100B4000206888421DD0E74930312068884218D09B
:100B5000E44948312068884213D0E2496031206876
:100B600088420ED0DF4978312068884209D0DD49BB
:100B700090312068884204D0DA49A8312068884240
:100B800001D1012000E0002068B12068006820F059
:100B90001E00216808602068406920F080002168FC
:100BA0004861256806E02068006820F00E00216892
:100BB00008602568CA492068884270D0C849183141
:100BC000206888426BD0C64930312068884266D0A0
:100BD000C34948312068884261D0C14960312068EA
:100BE00088425CD0BE4978312068884257D0BC49E1
:100BF00090312068884252D0B949A8312068884293
:100C00004DD0B8492068884249D0B649183120688B
:100C1000884244D0B3493031206888423FD0B1493E
:100C20004831206888423AD0AE4960312068884215
:100C300035D0AC4978312068884230D0A94990310C
:100C4000206888422BD0A749A8312068884226D046
:100C5000A5492068884222D0A349143120688842DF
:100C60001DD0A14928312068884218D09E493C31C6
:100C70002068884213D09C495031206888420ED0A9
:100C8000994964312068884209D0974978312068B1
:100C9000884204D094498C312068884201D10120D7
:100CA00000E0002028B1206E006820F48070216EE2
:100CB00008608B492068884249D0894918312068EA
:100CC000884244D086493031206888423FD08449E8
:100CD0004831206888423AD0814960312068884292
:100CE00035D07F4978312068884230D07C499031B6
:100CF000206888422BD07A49A8312068884226D0C3
:100D000078492068884222D0764918312068884284
:100D10001DD0744930312068884218D0714948315B
:100D20002068884213D06F496031206888420ED015
:100D30006C4978312068884209D06A49903120682E
:100D4000884204D06749A8312068884206D12068CB
:100D5000006820F001002168086005E02068006854
:100D600020F001002168086011E001F083FEA0EB93
:100D7000080005280BD920206065032084F8350081
:100D800000BF002084F8340000BF01209CE62868E2
:100D900000F001000028E8D151492068884249D07C
:100DA0004F4918312068884244D04D49303120687D
:100DB00088423FD04A494831206888423AD0484961
:100DC00060312068884235D04549783120688842B2
:100DD00030D043499031206888422BD04049A83117
:100DE0002068884226D03F492068884222D03D4969
:100DF0001831206888421DD03A4930312068884235
:100E000018D0384948312068884213D035496031BC
:100E1000206888420ED0334978312068884209D052
:100E2000304990312068884204D02E49A83120688A
:100E3000884201D1012000E0002040B1A66D94F865
:100E40005C0000F01F013F208840B06007E0A76D04
:100E500094F85C0000F01F01012088407860204970
:100E60002068884276D01E4918312068884271D0A7
:100E70001B493031206888426CD0194948312068BC
:100E8000884267D0164960312068884262D0144990
:100E90007831206888425DD01149903120688842BD
:100EA00058D00F49A8312068884253D00D49206896
:100EB00088424FD00B491831206888424AD00949EE
:100EC00030312068884245D0064948312068884240
:100ED00040D004496031206888423BD0014905E098
:100EE0001000024010040240085402587831206873
:100EF00088422FD02549206888422BD023491831B9
:100F00002068884226D022492068884222D0204981
:100F10001431206888421DD01D492831206888423C
:100F200018D01B493C312068884213D018495031F1
:100F3000206888420ED0164964312068884209D062
:100F4000134978312068884204D011498C312068D7
:100F5000884201D1012000E0002068B1D4E91910D5
:100F60004860E06E40B1E06E006820F48070E16E91
:100F70000860D4E91C104860012084F8350000BFE7
:100F8000002084F8340000BF00BF9DE5A0040240AB
:100F90000854025870B504460CB9012070BD94F88D
:100FA0003500022803D0802060650120F6E7DC4987
:100FB0002068884249D0DA4918312068884244D0F4
:100FC000D7493031206888423FD0D5494831206820
:100FD00088423AD0D24960312068884235D0D04921
:100FE00078312068884230D0CD49903120688842DD
:100FF0002BD0CB49A8312068884226D0C949206827
:10100000884222D0C7491831206888421DD0C5497E
:1010100030312068884218D0C2494831206888425F
:1010200013D0C0496031206888420ED0BD49783164
:101030002068884209D0BB4990312068884204D09A
:10104000B849A8312068884201D1012000E0002081
:10105000F0B3042084F83500B149206888424BD0B1
:10106000AF4918312068884246D0AD4930312068F8
:10107000884241D0AA494831206888423CD0A849DA
:1010800060312068884237D0A5497831206888428D
:1010900032D0A3499031206888422DD0A049A83190
:1010A0002068884228D09F492068884224D09D49E2
:1010B0001831206888421FD09A4930312068884210
:1010C0001AD0984948312068884215D0954900E0E7
:1010D00020E06031206888420ED092497831206843
:1010E000884209D08F4990312068884204D08D49C8
:1010F000A8312068884206D12068006820F00100ED
:101100002168086009E12068006820F0010021687A
:10111000086002E12068006820F00E002168086085
:101120007F492068884249D07D491831206888422B
:1011300044D07B493031206888423FD078494831DB
:10114000206888423AD0764960312068884235D09C
:10115000734978312068884230D0714990312068D5
:1011600088422BD06E49A8312068884226D06D492C
:101170002068884222D06B491831206888421DD0EF
:10118000684930312068884218D066494831206863
:10119000884213D063496031206888420ED061498B
:1011A00078312068884209D05E49903120688842B1
:1011B00004D05C49A8312068884206D120680068C4
:1011C00020F001002168086005E02068006820F038
:1011D00001002168086052492068884270D0504957
:1011E0001831206888426BD04D49303120688842E0
:1011F00066D04B4948312068884261D04849603107
:10120000206888425CD0464978312068884257D0AF
:10121000434990312068884252D04149A831206822
:1012200088424DD03F492068884249D03D49183115
:101230002068884244D03B493031206888423FD002
:1012400038494831206888423AD0364960312068B0
:10125000884235D0334978312068884230D03149CE
:101260009031206888422BD02E49A83120688842CE
:1012700026D02D492068884222D02B49143120687D
:1012800088421DD0284928312068884218D0264934
:101290003C312068884213D023495031206888426D
:1012A0000ED0214964312068884209D01E49783126
:1012B0002068884204D01C498C312068884201D1C2
:1012C000012000E00020D8B1206E006820F480707A
:1012D000216E0860A56D94F85C0000F01F010120EC
:1012E00088406860D4E919104860E06E40B1E06E53
:1012F000006820F48070E16E0860D4E91C1048603A
:10130000012084F8350000BF002084F8340000BFBD
:10131000206D10B12046216D884700203EE6000078
:101320001000024010040240085402582DE9F84F02
:10133000044600200090FE4800684FF41651B0FBB0
:10134000F1FAA66DD4F858803768D8F80090F949BA
:101350002068884249D0F74918312068884244D033
:10136000F4493031206888423FD0F2494831206842
:1013700088423AD0EF4960312068884235D0ED4943
:1013800078312068884230D0EA499031206888421C
:101390002BD0E849A8312068884226D0E649206849
:1013A000884222D0E4491831206888421DD0E249A1
:1013B00030312068884218D0DF494831206888429F
:1013C00013D0DD496031206888420ED0DA49783187
:1013D0002068884209D0D84990312068884204D0DA
:1013E000D549A8312068884201D1012000E00020C1
:1013F00000287DD094F85C0000F01F010820884090
:101400003840002868D0CB492068884249D0C94973
:1014100018312068884244D0C6493031206888425B
:101420003FD0C4494831206888423AD0C149603130
:101430002068884235D0BF4978312068884230D052
:10144000BC499031206888422BD0BA49A831206825
:10145000884226D0B8492068884222D0B64918313F
:10146000206888421DD0B44930312068884218D0A5
:10147000B14948312068884213D0AF4960312068B3
:1014800088420ED0AC4978312068884209D0AA49F8
:1014900090312068884204D0A749A831206888424A
:1014A00004D12068006800F0040003E020680068B0
:1014B00000F0080080B12068006820F00400216876
:1014C000086094F85C0000F01F0108208840B060BC
:1014D000606D40F00100606594F85C0000F01F0151
:1014E000012088403840E8B392492068884200E0F3
:1014F000B7E24BD08F4918312068884246D08D49D9
:1015000030312068884241D08A4948312068884279
:101510003CD0884960312068884237D0854978318D
:101520002068884232D083499031206888422DD08B
:101530008049A8312068884228D07F4920688842A5
:1015400024D07D491831206888421FD07A49303133
:10155000206888421AD0784948312068884215D0DE
:10156000754900E026E06031206888420ED072495B
:1015700078312068884209D06F49903120688842CC
:1015800004D06D49A8312068884204D120684069A0
:1015900000F0800002E020680068002050B194F85C
:1015A0005C0000F01F0101208840B060606D40F0D9
:1015B0000200606594F85C0000F01F010420884080
:1015C0003840E8B35B49206888424BD0594918310C
:1015D0002068884246D0574930312068884241D03F
:1015E00054494831206888423CD0524960312068D3
:1015F000884237D04F4978312068884232D04D49EF
:101600009031206888422DD04A49A831206888420C
:1016100028D049492068884224D047491831206899
:1016200088421FD044493031206888421AD042494C
:1016300048312068884215D03F496031206800E079
:1016400024E088420ED03C4978312068884209D095
:10165000394990312068884204D03749A831206840
:10166000884204D12068006800F0020002E020688F
:101670000068002050B194F85C0000F01F010420C5
:101680008840B060606D40F00400606594F85C00D4
:1016900000F01F01102088403840E8B32549206839
:1016A000884251D023491831206888424CD02149C2
:1016B00030312068884247D01E494831206888422E
:1016C00042D01C496031206888423DD019497831A8
:1016D0002068884238D0174990312068884233D03A
:1016E0001449A831206888422ED0134920688842C6
:1016F0002AD0114918312068884225D00E4930314E
:101700002068884220D00C494831206888421BD08C
:1017100009496031206800E04DE0884214D0064954
:101720007831206888420FD003499031206805E065
:10173000740000241000024010040240884203D0CC
:10174000FE492068884204D12068006800F0080043
:1017500003E02068006800F0040060B394F85C00C7
:1017600000F01F0110208840B0602068006800F47D
:10177000802080B12068006800F4002028B9206C27
:10178000C8B12046216C884715E0A06C98B120466E
:10179000A16C88470FE02068006800F4807028B9C9
:1017A0002068006820F0080021680860206C10B1F3
:1017B0002046216C884794F85C0000F01F0120202F
:1017C0008840384000287DD0DD492068884249D0D3
:1017D000DB4918312068884244D0D949303120682B
:1017E00088423FD0D6494831206888423AD0D4490F
:1017F00060312068884235D0D149783120688842EC
:1018000030D0CF499031206888422BD0CC49A831C4
:101810002068884226D0C949A8392068884221D04A
:10182000C6499039206888421CD0C449783920685C
:10183000884217D0C14960392068884212D0BF4918
:101840004839206888420DD0BC4930392068884228
:1018500008D0BA4918392068884203D0B7492068AF
:10186000884204D12068006800F0100003E020687E
:10187000006800F0020028B394F85C0000F01F013B
:1018800020208840B06094F8350004282DD12068CD
:10189000006820F01600216808602068406920F088
:1018A000800021684861206C08B9A06C28B12068CC
:1018B000006820F008002168086094F85C0000F0DF
:1018C0001F0100E03FE03F208840B060012084F825
:1018D000350000BF002084F8340000BF206D10B137
:1018E0002046216D8847BDE8F88F2068006800F425
:1018F000802080B12068006800F4002028B9606C66
:1019000008B32046616C88471DE0E06BD8B12046E3
:10191000E16B884717E02068006800F4807068B9C0
:101920002068006820F0100021680860012084F819
:10193000350000BF002084F8340000BFE06B10B118
:101940002046E16B8847606D00287AD0606D00F01A
:101950000100E8B3042084F8350079492068884202
:101960004BD0774918312068884246D074493031CD
:101970002068884241D072494831206888423CD072
:101980006F4960312068884237D06D4978312068CE
:10199000884232D06A499031206888422DD0684907
:1019A000A8312068884228D06449A8392068884234
:1019B00023D062499039206888421ED05F49783927
:1019C0002068884219D05D4960392068884200E06B
:1019D00040E012D059494839206888420DD0574913
:1019E00030392068884208D0544918392068884224
:1019F00003D052492068884206D12068006820F050
:101A000001002168086005E02068006820F00100FE
:101A10002168086000BF0098401C0090504500D924
:101A200005E02068006800F001000028F3D100BF45
:101A30002068006800F0010020B1032084F8350020
:101A400003E00DE0012084F8350000BF002084F899
:101A5000340000BFE06C002802D02046E16C8847CB
:101A6000D9E138492068884222D0364914312068AB
:101A700088421DD0334928312068884218D0314926
:101A80003C312068884213D02E495031206888426A
:101A90000ED02C4964312068884209D02949783118
:101AA0002068884204D027498C312068884201D1BF
:101AB000012000E000200028D2D02068056894F8BA
:101AC0005C0000F01F010420884000EA0900D8B340
:101AD00005F00400C0B394F85C0000F01F0104207E
:101AE0008840C8F8040005F4004080B105F4803057
:101AF00030B9A06C0028B3D02046A16C88478AE199
:101B0000206C0028ACD02046216C884783E105F08A
:101B10002000E8BB0A492068884253D008491831A0
:101B2000206888424ED0064930312068884249D02A
:101B3000034948312068884244D006E0B804024096
:101B400010000240085402584FE0B4496031206848
:101B5000884237D0B14978312068884232D0AF49C5
:101B60009031206888422DD0AC49A8312068884245
:101B700028D0AB492068884224D0A9491831206870
:101B800088421FD0A6493031206888421AD000E030
:101B900025E0A34948312068884213D0A04960312C
:101BA000206888420ED09E4978312068884209D04A
:101BB0009B4990312068884204D09949A831206817
:101BC000884206D12068006820F00800216808607B
:101BD00005E02068006820F0040021680860206C9F
:101BE00010B32046216C884715E194F85C0000F0A2
:101BF0001F010220884000EA0900E8B305F0020056
:101C0000D0B394F85C0000F01F0102208840C8F8AF
:101C1000040005F4004070B105F4803028B9606C10
:101C200010B12046616C8847F5E0E06BF0B32046C8
:101C3000E16B8847EFE005F02000C0BB77492068E2
:101C400088424ED0754918312068884249D073497E
:101C500030312068884244D0704948312068884239
:101C60003FD06E496031206888423AD06B49783164
:101C70002068884235D000E04EE068499031206805
:101C800088422ED06549A8312068884229D064490D
:101C90002068884225D0624918312068884220D0C7
:101CA0005F493031206888421BD001E06EE02DE0B2
:101CB0005B4948312068884213D059496031206817
:101CC00088420ED0564978312068884209D054495C
:101CD00090312068884204D05149A8312068884258
:101CE00006D12068006820F014002168086005E033
:101CF0002068006820F00A0021680860012084F84C
:101D0000350000BF002084F8340000BFE06BE8B36A
:101D10002046E16B88477EE094F85C0000F01F01EC
:101D20000820884000EA090080B305F0080068B385
:101D30003A49206888424BD0384918312068884297
:101D400046D0364930312068884241D03349483145
:101D5000206888423CD0314960312068884237D0C1
:101D60002E4978312068884232D02C499031206841
:101D700088422DD02949A8312068884228D0284996
:101D80002068884224D02649183100E043E02068CA
:101D900088421DD0224930312068884218D020491D
:101DA00048312068884213D01D496031206888423C
:101DB0000ED01B4978312068884209D018499031EB
:101DC0002068884204D01649A8312068884206D18C
:101DD0002068006820F01C002168086005E0206889
:101DE000006820F00E002168086094F85C0000F0A4
:101DF0001F0101208840C8F804000120606584F8B4
:101E0000350000BF002084F8340000BFE06C10B142
:101E10002046E16C884700BF65E5000010000240E5
:101E2000100402402DE9F041044600F023FE8046F4
:101E300014B90120BDE8F081FE492068884249D0EC
:101E4000FC4918312068884244D0FA493031206872
:101E500088423FD0F7494831206888423AD0F54956
:101E600060312068884235D0F24978312068884254
:101E700030D0F0499031206888422BD0ED49A8310C
:101E80002068884226D0EC492068884222D0EA495E
:101E90001831206888421DD0E749303120688842D7
:101EA00018D0E54948312068884213D0E2496031B2
:101EB000206888420ED0E04978312068884209D0F5
:101EC000DD4990312068884204D0DB49A831206880
:101ED000884201D1012000E00020002873D0606A10
:101EE00000B100BF022084F8350000BF002084F854
:101EF000340000BFCF492068884249D0CD4918310D
:101F00002068884244D0CB493031206888423FD095
:101F1000C8494831206888423AD0C64960312068B3
:101F2000884235D0C34978312068884230D0C149D1
:101F30009031206888422BD0BE49A8312068884261
:101F400026D0BD492068884222D0BB49183120687C
:101F500088421DD0B84930312068884218D0B6492F
:101F600048312068884213D0B349603120688842E4
:101F70000ED0B14978312068884209D0AE499031FD
:101F80002068884204D0AC49A8312068884206D134
:101F90002068006820F001002168086005E02068E2
:101FA000006820F00100216808600DE000F062FD8B
:101FB000A0EB0800052807D920206065032084F8DD
:101FC0003500012036E76AE02068006800F0010073
:101FD0000028EBD12068056898480540D4E9020143
:101FE00008432169084361690843A1690843E1691D
:101FF0000843216A08430543606A042803D1D4E9F1
:102000000B01084305438E4800686FF30F00B0F1E1
:10201000005F1DD36068292802D360682E2811D97B
:1020200060683F2802D3606842280BD9606847285F
:1020300002D36068482805D960684F2804D36068D7
:10204000522801D8012000E0002008B145F4801595
:10205000206805602068456925F00705606A05432A
:10206000606A04280DD1A06A0543E06A48B12046A1
:10207000FEF752FB28B140206065012084F835004E
:10208000D8E6206845612046FEF722FA064694F815
:102090005C0000F01F013F208840B0609EE069496D
:1020A0002068884222D067491431206888421DD0B8
:1020B000644928312068884218D062493C31206840
:1020C000884213D05F495031206888420ED05D4964
:1020D00064312068884209D05A49783120688842A2
:1020E00004D058498C312068884201D1012000E099
:1020F0000020E0B353492068884222D0514914316E
:10210000206888421DD04F4928312068884218D065
:102110004C493C312068884213D04A4950312068EC
:1021200088420ED0474964312068884209D0454929
:1021300078312068884204D042498C312068884236
:1021400001D1012000E0002000B100BF022084F88E
:10215000350000BF002084F8340000BF2068056807
:1021600039480540A068402802D1102106E02EE041
:10217000A068802801D1C10100E00021E06841EAA7
:10218000D001206941EAD001606941EAD001A0692B
:1021900041EAD001E06941EAD001206A41EA101029
:1021A00005432068056027492068401A1421B0FBC8
:1021B000F1F08000E0652046FEF78AF9074694F8C2
:1021C0005C0000F01F0101208840786006E040209C
:1021D0006065032084F8350001202BE6154920684E
:1021E00088427FD013491831206888427AD011493B
:1021F00030312068884275D00E49483120688842C5
:1022000070D00C496031206888426BD00949783120
:102210002068884266D0074990312068884261D0A2
:102220000449A831206888425CD00349206888426C
:1022300058D00BE010000240100402403F8010FE16
:102240000010005C085402580F00FEFF3B49183193
:102250002068884246D0394930312068884241D0D0
:1022600036494831206888423CD034496031206882
:10227000884237D0314978312068884232D02F499E
:102280009031206888422DD02C49A831206888429E
:1022900028D02B492068884224D02949143120684D
:1022A00088421FD026492831206888421AD0244904
:1022B0003C312068884215D021495031206888423D
:1022C00010D01F496431206888420BD01C497831F6
:1022D0002068884206D01A498C312068884200E084
:1022E00000E001D1012000E0002000B32046FEF70D
:1022F00065F9A068802801D1002060602079216EF6
:102300000860D4E919104860606860B16068082806
:1023100009D82046FEF7B4F90020E16E0860D4E940
:102320001C10486003E00020E06620676067002022
:102330006065012084F8350000207BE51004024030
:10234000085402582DE9F04104460D4616461F4632
:102350004FF0000814B90120BDE8F08100BF94F8E7
:102360003400012801D10220F6E7012084F834006E
:1023700000BF94F8350001287ED1022084F8350092
:1023800000206065E4492068884249D0E24918315C
:102390002068884244D0E0493031206888423FD0EC
:1023A000DD494831206888423AD0DB4960312068F5
:1023B000884235D0D84978312068884230D0D64913
:1023C0009031206888422BD0D349A83120688842B8
:1023D00026D0D2492068884222D0D04918312068BE
:1023E00088421DD0CD4930312068884218D0CB4971
:1023F00048312068884213D0C8496031206888423B
:102400000ED0C64978312068884209D0C34990313E
:102410002068884204D0C149A8312068884206D18A
:102420002068006820F001002168086005E020684D
:10243000006820F00100216808603B4632462946CA
:102440002046FEF7C1F9B449206888424BD0B24912
:1024500018312068884246D0AF4930312068884220
:1024600041D0AD494831206888423CD0AA4960310A
:102470002068884237D000E042E1A74978312068DF
:10248000884230D0A4499031206888422BD0A2499C
:10249000A8312068884226D0A0492068884222D0EE
:1024A0009E491831206888421DD09C4930312068EF
:1024B000884218D0994948312068884213D09749FA
:1024C0006031206888420ED0944978312068884273
:1024D00009D0924990312068884204D08F49A831B0
:1024E0002068884201D1012000E0002080B12068EE
:1024F000006820F01E0040F0160021680860206C83
:10250000B0B12068006840F00800216808600FE062
:102510002068006820F00E0040F00A002168086082
:10252000206C28B12068006840F004002168086031
:1025300079492068884270D07749183120688842EC
:102540006BD0754930312068884266D07249483175
:102550002068884261D070496031206888425CD030
:102560006D4978312068884257D06B499031206896
:10257000884252D06849A831206888424DD06749C6
:102580002068884249D0654918312068884244D083
:1025900062493031206888423FD060494831206824
:1025A00088423AD05D4960312068884235D05B4925
:1025B00078312068884230D058499031206888426C
:1025C0002BD05649A8312068884226D0544920682B
:1025D000884222D052491431206888421DD0504987
:1025E00028312068884218D04D493C312068884203
:1025F00013D04B495031206888420ED0484964318D
:102600002068884209D0464978312068884204D041
:1026100043498C312068884201D1012000E000202C
:1026200090B1206E006800F4803028B1206E006800
:1026300040F48070216E0860E06E28B1E06E0068A2
:1026400040F48070E16E086033492068884249D0C8
:10265000314918312068884244D02F4930312068F0
:1026600088423FD02C494831206888423AD02A49D4
:1026700060312068884235D0274978312068884207
:1026800030D025499031206888422BD02249A8318A
:102690002068884226D021492068884222D01F49DC
:1026A0001831206888421DD01C493031206888428A
:1026B00018D01A4948312068884213D01749603130
:1026C000206888420ED0154978312068884209D0A8
:1026D000124990312068884204D01049A8312068FE
:1026E000884206D12068006840F001002168086037
:1026F00010E02068006840F001002168086009E0EF
:102700004FF40060606500BF002084F8340000BF13
:102710004FF0010840461FE610000240100402403E
:102720000854025870B5044600F0A4F90646254640
:10273000681C10B104480078054400BF00F09AF905
:10274000801BA842FAD370BD7000002400B5B5B05C
:10275000142130A8FDF766FE3748006808B135B08F
:1027600000BD012034490860BC2101A8FDF75AFED4
:102770004FF0807001900020129001A801F024FE1B
:1027800008B1FEF75CF900BF2C48006840F48050A7
:102790002A4908600846006800F48050009000BF95
:1027A00000BF4FF4F0603090022031900020329052
:1027B000032033900C20349030A9214800F046F8D3
:1027C0004FF4C0503090022031900020329003200E
:1027D000339030A91B4800F039F84CF233003090A8
:1027E0000220319000203290032033900C2034904E
:1027F00030A9144800F02AF84FF48070309002207D
:10280000319000203290032033900920349030A979
:102810000D4800F01BF8402030900220319001203C
:102820003290032033900C20349030A9054800F0FA
:102830000DF800BF93E7000014000024D4440258B0
:1028400000100258000C025800080258F8B5024661
:102850000B4600216F4DD7E001278F401E6806EA26
:102860000704002C72D01E7906F00306012E04D056
:102870001E7906F00306022E13D190684F0003263E
:10288000BE40B0434F00DE68BE40304390605068A9
:1028900001268E40B0431E79C6F300168E403043A9
:1028A00050601E7906F00306032E09D0D0684F0051
:1028B0000326BE40B0434F009E68BE403043D06008
:1028C0001E7906F00306022E13D1CF0802F120066E
:1028D00056F827004E07F70E0F26BE40B0434F07AD
:1028E000FF0E1E69BE403043CF0802F1200646F8B5
:1028F000270010684F000326BE40B0431E7906F043
:1029000003064F00BE40304310605E6806F4403658
:10291000002E78D000BF404E366846F002063E4F8B
:102920003E603E46366806F00206009600BF00BFD5
:102930003A4E8F0856F827008E07370F0F26BE40F5
:10294000B043374EB24202D100262EE05BE0354E56
:10295000B24201D1012628E0334EB24201D1022613
:1029600023E0324EB24201D103261EE0304EB24285
:1029700001D1042619E02F4EB24201D1052614E000
:102980002D4EB24201D106260FE02C4EB24201D1AB
:1029900007260AE02A4EB24201D1082605E0294E58
:1029A000B24201D1092600E00A268F073F0FBE4040
:1029B00030431A4E8F0846F827004FF0B046306873
:1029C000A0435E6806F4801606B120434FF0B0467F
:1029D00030607068A0435E6806F4001606B12043BC
:1029E0004FF0B04670606868A0435E6806F4003639
:1029F00006B1204368602868A0435E6806F480360C
:102A000006B120432860491C1E68CE40002E7FF48A
:102A100023AFF8BD80000058F44402580804005861
:102A2000000002580004025800080258000C025826
:102A3000001002580014025800180258001C0258D6
:102A4000002002580024025810B5426921EA02030E
:102A500002EA010443EA0443836110BD0AB18161C3
:102A600001E00B048361704701480068000C704767
:102A70000010005C014800687047000068000024F6
:102A80000348006803490978084401490860704711
:102A9000680000247000002410B5032000F08AFABA
:102AA00002F054FC10490968C1F303210F4A515C3C
:102AB00001F01F0120FA01F40B48006800F00F003C
:102AC0001146085C00F01F0024FA00F00849086075
:102AD000084804600F2000F00FF808B1012010BD75
:102AE00000F0C8F90020FAE7184402583CB4000886
:102AF000780000247400002470B58AB00446102CBD
:102B00000AD200222146762000F017FA762000F043
:102B100000FA1948046002E001200AB070BD00BF4D
:102B20001648006840F48020144908600846006890
:102B300000F48020009000BF00BF01A902A802F0AD
:102B400085FB02F0F1FB45000D48B5FBF0F0461E99
:102B50000C480D49086040F2E7310B48C1604660FF
:102B600000210161816003F036FD18B9064803F0C9
:102B70006BFDD2E70120D0E76C000024F04402583E
:102B800040420F0000480140BC0B0024014609B937
:102B90000120704791F83D00022803D0802088660C
:102BA0000120F6E7042081F83D000868C06820F0A5
:102BB00001000A68D0600020EBE730B5034600242E
:102BC0000BB9012030BD00BF93F83C00012801D1B2
:102BD0000220F7E7012083F83C0000BF93F83D0096
:102BE000012819D11868006900F0804090B9186870
:102BF00001631868426331B91868006920F0004029
:102C00001D68286109E01868006940F000401D68EF
:102C1000286102E0012400E0012400BF002083F8C5
:102C20003C0000BF2046CDE7F8B5044600200090E8
:102C3000744800684FF41651B0FBF1F6208800F597
:102C4000F860C0F38411012000FA01F74FF0A440AE
:102C50000068384000B9F8BD2068006800F0010045
:102C6000B8B32068C06800F0020090B32068C06864
:102C700020F002002168C8602068856805F08000A7
:102C800020B9A06E40F00100A06603E0A06E40F005
:102C90000200A06605F4007018B1A06E40F00400B8
:102CA000A06605F4807018B1A06E40F00800A06620
:102CB00005F4806018B1A06E40F01000A06605F425
:102CC000006018B1A06E40F02000A06601202168CD
:102CD00048602068006800F0100060B12068C0689B
:102CE00000F0200038B1102021684860A06C10B1BD
:102CF0002046A16C88472068006800F0080060B199
:102D00002068C06800F0100038B1082021684860D1
:102D1000E06C10B12046E16C88472068006800F044
:102D2000040060B12068C06800F0080038B10420D9
:102D300021684860206D10B12046216D88472068C9
:102D4000006800F0020060B32068C06800F0040072
:102D500038B32068C06820F03E002168C86094F84D
:102D60003D0004280DD100BF002084F83C0000BFC6
:102D7000012084F83D00A06D10B12046A16D884768
:102D800069E702202168486000BF002084F83C0009
:102D900000BF012084F83D00606C10B12046616CDA
:102DA0008847A06E60B3042084F83D002068C068A6
:102DB00020F001002168C86000BF0098401C00900E
:102DC000B04200D905E02068C06800F0010000288A
:102DD000F3D100BF00BF002084F83C0000BF206892
:102DE000C06800F0010018B1032084F83D0002E043
:102DF000012084F83D00606D10B12046616D884768
:102E000000BF28E77400002470B50446FFF732FEC7
:102E100005460CB9012070BD00BF002084F83C00BD
:102E200000BF022084F83D002068C06820F0010047
:102E30002168C8600BE0FFF71DFE401B052806D97E
:102E40004020A066032084F83D000120E3E72068CD
:102E5000C06800F001000028EDD1204604F0AAFA75
:102E60000020E06520666066A066012084F83D00D1
:102E70000020D0E708B500BF0948006840F0020014
:102E8000074908600846006800F00200009000BF93
:102E900000BF00220F21901E00F04FF808BD000077
:102EA000F444025870B504460E4615460CB901208C
:102EB00070BD94F8210028B9002084F82000204635
:102EC00000F022F8211D2068FDF7DCFD3146D4E931
:102ED0000002FDF7C7FD2946D4E90002FDF7B2FD67
:102EE0002068006840F00400216808600548006818
:102EF00040F0004003490860012084F821000020D0
:102F0000D6E700000040005210B50446FFF71EFC53
:102F100010BD0146084600280DDB00BF00BF00F0D1
:102F20001F0301229A4043099B0003F1E023C3F8E9
:102F3000002100BF00BF00BF70472DE9F05F804651
:102F40000D46164606F00EFE074639462A4633461B
:102F500001F00700C0F1070ABAF1040F02D94FF0DF
:102F6000040A01E0C0F1070AD14600F1040ABAF1EF
:102F7000070F02D24FF0000A01E0A0F1030AD44685
:102F80004FF0010A0AFA09FAAAF1010A0AEA020A4A
:102F90000AFA0CFA4FF0010B0BFA0CFBABF1010B28
:102FA0000BEA030B4AEA0B042146404606F0E2FD19
:102FB000BDE8F09F00BF00F00702064B19684FF60E
:102FC000FF031940044B0B4343EA0221014B1960F4
:102FD00000BF70470CED00E00000FA0501460A68EA
:102FE0000120C1F80005002081F8F404906940F048
:102FF00000609061506D024B18435065002070478F
:1030000003000010704770477047704770472DE904
:10301000F04104460D4605F08000802808D105F0F7
:103020000F0000EBC00104F13C0000EB810607E05B
:1030300005F00F0000EBC00104F51F7000EB8106E6
:103040003146206806F064F907463846BDE8F0814D
:103050002DE9FE4F0446D4F800B05E46206806F025
:1030600036FA002874D1206806F070FA08B9BDE875
:10307000FE8F40F608008059C0F30D20C4F8FC0410
:10308000206806F063FA00F00200022805D12068EB
:10309000406900F0020021684861206806F056FA95
:1030A00000F01000102845D12068806920F0100041
:1030B00021688861DBF8209009F00F0000EBC00167
:1030C00004F51F7000EB810AC9F3434002281AD1AE
:1030D00047F6F07009EA000030B3C9F30A12584607
:1030E000DAF8101006F037FAC9F30A11DAF810000E
:1030F0000844CAF81000C9F30A11DAF8200008449D
:10310000CAF8200010E0C9F3434006280CD1082279
:1031100004F2C441584606F01EFAC9F30A11DAF85F
:1031200020000844CAF820002068806940F01000A0
:1031300021688861206806F009FA00F40020B0F5E3
:10314000002F7BD10025206806F0D0F9029072E0B4
:1031500003E3029800F00100002868D0E9B220687B
:1031600006F0E7F9804608F0010048B1012106F5B4
:10317000306000EB451081602946204604F0E8FBF2
:1031800008F00800082809D1082106F5306000EB96
:10319000451081602946204604F0A8FB08F0100085
:1031A000102805D1102106F5306000EB4510816034
:1031B00008F00200022824D1DBF8140000F080009F
:1031C000802807D140F60400805940F4806140F621
:1031D0000400815105EBC50104F51F7000EB810A65
:1031E0009AF80300012806D100208AF80300E9B20A
:1031F000204600F0B5FA022106F5306000EB4510DC
:10320000816008F02000202805D1202106F53060DB
:1032100000EB4510816008F40050B0F5005F06D166
:103220004FF4005106F5306000EB451081606D1CD5
:10323000029840080290029800288AD1206806F07F
:1032400085F900F48020B0F5802F7DD1206806F04C
:1032500043F9029000259AE0029800F0010000284E
:1032600073D0E9B2206806F04BF9804608F00100FF
:10327000F0B305F00F0101208840019040F63400C2
:103280008159019821EA000040F63401885101215A
:1032900006F5106000EB451081602069012824D1FB
:1032A00005EBC50104F13C0000EB810005EBC50214
:1032B000016904F13C0000EB8200C068014405EBA9
:1032C000C50204F13C0000EB820001616DB905EB21
:1032D000C50104F13C0000EB8100806928B904F2CB
:1032E000C4420121206805F0DBFFE9B2204600E07E
:1032F00001E0FFF789FE08F00800082805D1082141
:1033000006F5106000EB4510816008F010001028F1
:1033100005D1102106F5106000EB4510816008F022
:103320004000402805D1402106F5106000EB451013
:10333000816008F0020002281DD12946584606F097
:1033400087F805EBC50101E025E01CE004F13C0035
:1033500000EB810A9AF80300012806D100208AF8C0
:103360000300E9B2204600F0FAF9022106F51060E8
:1033700000EB4510816008F08000802803D12946C9
:10338000204604F087FB6D1C0298400802900298CA
:1033900000287FF461AF206806F0D8F800F0004004
:1033A000B0F1004F1CD140F60400805920F001011B
:1033B00040F60400815194F8F404012807D100205C
:1033C00084F8F40400212046FFF71CFE02E02046AA
:1033D00000F0E7FA2068406900F000402168486189
:1033E000206806F0B3F800F40060B0F5006F0ED16D
:1033F00040F60800805900F0010010B1204600F0AE
:10340000D3FA2068406900F40060216848612068B0
:1034100006F09CF800F00060B0F1006F19D1206850
:10342000406900F000602168486194F8F40468B9CC
:10343000012084F8F4042068406DC0F38300C4F8D0
:10344000F80401212046FFF7DDFD02E0204600F0F0
:10345000ABFA206806F07AF800F48050B0F5805F8F
:103460007ED140F60400805920F0010140F60400AE
:1034700081511021206805F0EBFF002732E04FF664
:103480007F3106F5106000EB4710816006F5106093
:1034900000EB4710006820F4001106F5106000EB07
:1034A000471001604FF67F3106F5306000EB4710A2
:1034B000816006F5306000EB4710006820F40011D1
:1034C00006F5306000EB4710016006F5306000EB58
:1034D0004710006840F0006106F5306000EB4710CF
:1034E00001607F1C6068B842C9D840F61C00805952
:1034F00040F0011140F61C008151206B70B1D6F8EC
:10350000840840F00B01C6F8841840F64400805946
:1035100040F00B0140F6440081510FE040F61400EA
:10352000805942F22B01084340F614018851081FCC
:10353000805940F00B014FF401608151D6F800082A
:1035400020F4FE60C6F80008217C04F2C442206822
:1035500005F0A6FE2068406900F48050216800E074
:1035600000E04861206805F0F1FF00F40050B0F57C
:10357000005F17D1206805F001FD206805F094FF79
:10358000E06001F099FE0090227B2068009906F02F
:103590004FF8204600F004FA2068406900F400501B
:1035A00021684861206805F0D1FF00F00800082874
:1035B00008D1204600F0F6F92068406900F00800C4
:1035C00021684861206805F0C1FF00F08000802874
:1035D00018D1DBF8180020F08000CBF81800012586
:1035E0000DE005EBC50104F51F7000EB8100C0780C
:1035F000012803D1E9B22046FFF709FD6D1C606880
:10360000A842EED8206805F0A1FF00F48010B0F5C4
:10361000801F2DD1012522E006F5106000EB45103A
:10362000D0F8009005EBC50104F13C0000EB8100EF
:103630000079012812D109F00040B0F1004F0DD1FE
:10364000012105EBC50204F13C0000EB8200C170D2
:10365000E8B240F080012046FFF7D9FC6D1C60689D
:10366000A842D9D82068406900F4801021684861D8
:10367000206805F06BFF00F40010B0F5001F44D186
:10368000012538E006F5306000EB4510D0F80090D9
:1036900005EBC50104F51F7000EB810000790128DE
:1036A00028D109F00040B0F1004F23D109F4803057
:1036B00094F8FC1401F0010188421BD1012105EBB3
:1036C000C50204F51F7000EB8200C170DBF8180022
:1036D00040F08000CBF81800DBF8140000F0800008
:1036E00040B940F60400805940F4007140F60400EF
:1036F000815103E06D1C6068A842C3D800BF2068F8
:10370000406900F4001021684861206805F01EFF40
:1037100000F08040B0F1804F08D12046FFF773FCE5
:103720002068406900F0804021684861206805F009
:103730000DFF00F0040004280FD12068D0F8049099
:1037400009F00400042802D12046FFF75FFC20683E
:10375000406840EA09002168486000BF87E470477C
:10376000704770B58AB0044614B901200AB070BD24
:10377000266894F8BD0428B9002084F8BC042046CB
:1037800000F0A8F8032084F8BD04F06B00F480700A
:1037900008B900212161206805F07AFD282204F192
:1037A00010016846FCF725FE94E80F0005F0FAFBCF
:1037B00020B1022084F8BD040120D7E70021206851
:1037C00005F0F9FE002531E0012105EBC50204F109
:1037D0003C0000EB8200417005EBC50104F13C00A8
:1037E00000F8215005EBC50100EB810005810021A7
:1037F00005EBC50204F13C0000EB8200017105EB12
:10380000C50204F13C0000EB8200C16005EBC5027B
:1038100004F13C0000EB8200016105EBC50204F1FC
:103820003C0000EB82008161681CC5B26068A84260
:10383000CAD800252AE0002105EBC50204F51F7057
:1038400000EB8200417005EBC50104F51F7000F824
:103850002150002105EBC50200EB8200017105EB50
:10386000C50204F51F7000EB8200C16005EBC502C4
:1038700004F51F7000EB8200016105EBC50204F541
:103880001F7000EB82008161681CC5B26068A842AD
:10389000D1D8282204F110016846FCF7AAFD94E86B
:1038A0000F0005F009FC20B1022084F8BD040120BE
:1038B0005CE7002084F83800012084F8BD04606AC9
:1038C000012802D12046FFF789FB206805F0E2FBC2
:1038D00000204BE710B5B6B00446142131A8FCF720
:1038E000A1FDBC2102A8FCF79DFD2A492068884261
:1038F0004ED14FF48020029019200B90F0210C91B2
:1039000002210D9105210E9102210F9100211091AC
:1039100012914FF40010239002A800F055FD08B159
:10392000FDF78DF800F072F800BF1B48006840F00A
:103930000100194908600846006800F00100019084
:1039400000BF00BF4FF4C0503190022032900020E1
:10395000339034900A20359031A91048FEF776FF55
:1039600000BF0D480838006840F000600A49083977
:1039700008600846006800F00060019000BF00BFCA
:10398000002205216520FFF7D8FA6520FFF7C1FA6C
:1039900036B010BD00000840E04402580000025854
:1039A00070477047704770477047000070B5044615
:1039B00015480068C0F3800048B91348006800F05B
:1039C0000700A04201D0012070BD0020FCE70E4896
:1039D000006820F0070020430B490860FFF74AF811
:1039E000054607E0FFF746F8401BB0F57A7F01D99E
:1039F0000120E9E7044808380068C0F34030002897
:103A0000F0D00020E0E700000C48025803480068AE
:103A100040F0807001490860704700000C4802586F
:103A200070477047704770472DE9F04104462068A1
:103A300086682068076806F00400002848D007F46C
:103A40008020002844D0206800F1200594F841002F
:103A500012281AD112E0E06A48B1606A0078287032
:103A6000606A401C6062E06A401EE06206E0206816
:103A7000006820F480202168086005E020688068E4
:103A8000C0F380000028E6D11EE094F8410022280F
:103A90001AD112E0A06B48B12878216B0870206B16
:103AA000401C2063A06B401EA06306E020680068F5
:103AB00020F480202168086005E020688068C0F359
:103AC00080000028E6D100BF2046FFF7ACFFE8E009
:103AD00006F0020000287DD007F40030002879D0DD
:103AE00002202168C8602068006820F4E020216876
:103AF000086094F84100122819D12068006800F08D
:103B0000040068B12068006820F0040021680860A3
:103B1000E06B0068C06820F00100E16B0968C860D4
:103B2000012084F84100204600F00BFAB9E094F837
:103B30004100222832D12068006800F0040070B1F2
:103B40002068006820F0040021680860E06B0068CD
:103B5000C06820F00100E16B0968C86017E02068C8
:103B600000F120050CE0A06B48B12878216B0870AB
:103B7000206B401C2063A06B401EA06300E005E0AA
:103B80002068806800F47C500028ECD100BF012040
:103B900084F84100204600F0CFF982E094F841001B
:103BA000022806D1012084F841002046FFF739FFA2
:103BB00077E094F84100082873D12068406920F02C
:103BC000406021684861012084F84100606C28B998
:103BD000204600E006E0FFF723FF62E02046FFF703
:103BE00021FF5EE006F00800B8B107F40020A0B1A4
:103BF00008202168C8602068006800F4800040B197
:103C00002068006820F4102021680860012084F8F2
:103C10004100204600F093F943E006F0010098B31C
:103C200007F4803080B301202168C86020680068F4
:103C300020F4702021680860606C40F0020060642D
:103C40002068006800F00400B8B12068006820F027
:103C50000400216808601448E16B8865E06BFEF79A
:103C600095FFF0B1606C40F004006064012084F8BE
:103C700041002046FFF7D6FE13E0012084F8410002
:103C80002046FFF7CFFE0CE0FFE706F0100040B142
:103C900007F4801028B110202168C860204600F089
:103CA0004FF9BDE8F08100004B7B0008F8B50446F1
:103CB000FEF7E0FE06460CB90120F8BD206A402858
:103CC00000D000BF94F8410038B9204600F046F813
:103CD00041F28831204600F030F92068006820F475
:103CE0007061A068401E41EA002021680860A06C55
:103CF0003346002220210090204603F047FF05466E
:103D000035BB2179E06840EA0160E1690843216A36
:103D10000843216809680F4A114008432168086078
:103D2000208A616941EA0040A16908432168496825
:103D3000094A11400843216848602068006840F043
:103D400001002168086000206064012084F84100BF
:103D50002846B2E72FFFFF00FEF8E0FF10B5B6B02F
:103D60000446142131A8FCF75DFBBC2102A8FCF736
:103D700059FB6949206888427ED14FF0007002905B
:103D80001020149002A800F01FFB08B1FCF757FEAA
:103D900000BF6248006840F48040604908600846FF
:103DA000006800F48040019000BF00BF00BF5B4886
:103DB0000C30006840F0100058490C31086008468B
:103DC000006800F01000019000BF00BF00BF08466F
:103DD000006840F0010008600846006800F001003B
:103DE000019000BF00BF00BF0846006840F002001D
:103DF00008600846006800F00200019000BF00BFA4
:103E000000BF0846006840F00400086008460068EB
:103E100000F00400019000BF00BF04203190022098
:103E2000329000203390032034900920359031A93E
:103E30003B48FEF70BFD022031903290002033907A
:103E4000032034900920359031A93648FEF7FEFC56
:103E500004203190022032900020339003203490CF
:103E60000920359031A93048FEF7F0FC4FF4C060CE
:103E700031900220329000E04BE00020339003208C
:103E800034900920359031A92848FEF7DFFC402006
:103E900031900220329000203390032034900A2089
:103EA000359031A92048FEF7D1FC2148214908600E
:103EB0001620486000211F488160C1600161022115
:103EC000416100218161C16101624FF00071416275
:103ED000802181620021C162016341638163FEF739
:103EE00093FF08B1FCF7ABFD002211461148FEF725
:103EF00064FE08B1FCF7A3FD00BF0E48E063046454
:103F000000BF002205215C20FFF717F85C20FFF7B7
:103F100000F836B010BD000000500052D4440258E2
:103F2000001002580000025800040258000802580D
:103F300080000052C40300247047816470477047BA
:103F40007047704710B501F0B7F905490968C1F32A
:103F50000211044A515C01F01F01C84010BD00006D
:103F6000204402583CB4000870B50146844D2D68C9
:103F700005F00303824D2D68C5F30530804D2D1DDE
:103F80002D68C5F300147E4D14352D68C5F3CC059E
:103F900015FB04F501EE105AB8EE411AF0EE410A95
:103FA00000286FD023B1012B4ED0022B6BD16BE0D8
:103FB000734D283D2D68C5F340153DB3704D283D28
:103FC0002D68C5F3C1066F4D25FA06F201EE102AE1
:103FD000F8EE411A01EE100AB8EE411A81EE812A7C
:103FE0009FED691AC0EE811A654D10352D68C5F335
:103FF000080501EE105AB8EE411A31EE811AF7EEBB
:10400000001A31EE211A22EE010A1CE001EE100A1C
:10401000B8EE411ADFED5D1A81EE812A9FED5A1A42
:10402000C0EE811A564D10352D68C5F3080501EE16
:10403000105AB8EE411A31EE811AF7EE001A31EE3D
:10404000211A22EE010A5BE001EE100AB8EE411AD5
:10405000DFED4F1A81EE812A9FED4B1AC0EE811AD7
:10406000474D10352D68C5F3080501EE105AB8EE1E
:10407000411A31EE811AF7EE001A31EE211A22EEC2
:10408000010A3DE077E01DE001EE100AB8EE411AAA
:104090009FED402AC2EE011A9FED3B1A80EE812A65
:1040A000374D10352D68C5F3080501EE105AB8EEEE
:1040B000411A32EE011AB7EE002A31EE021A21EE51
:1040C000810A1DE001EE100AB8EE411ADFED301A48
:1040D00081EE812A9FED2C1AC0EE811A284D1035F1
:1040E0002D68C5F3080501EE105AB8EE411A31EEFD
:1040F000811AF7EE001A31EE211A22EE010A00BFF2
:1041000000BF1F4D10352D68C5F3462501EE105A2E
:10411000B8EE411AF7EE001A31EE211AC0EE011A7C
:10412000BCEEE11A81ED001A154D10352D68C5F36E
:10413000064501EE105AB8EE411AF7EE001A31EEBC
:10414000211AC0EE011ABCEEE11A81ED011A0C4DE4
:1041500010352D68C5F3066501EE105AB8EE411A08
:10416000F7EE001A31EE211AC0EE011ABCEEE11A88
:1041700081ED021A03E000250D604D608D6070BD79
:10418000284402580090D003000000460024744CDC
:104190000024744A20BCBE4B70B50146844D2D6886
:1041A00005F00303824D2D68C5F30550804D2D1D8C
:1041B0002D68C5F300247E4D1C352D68C5F3CC0554
:1041C00015FB04F501EE105AB8EE411AF0EE410A63
:1041D00000286FD023B1012B4ED0022B6BD16BE0A6
:1041E000734D283D2D68C5F340153DB3704D283DF6
:1041F0002D68C5F3C1066F4D25FA06F201EE102AAF
:10420000F8EE411A01EE100AB8EE411A81EE812A49
:104210009FED691AC0EE811A654D18352D68C5F3FA
:10422000080501EE105AB8EE411A31EE811AF7EE88
:10423000001A31EE211A22EE010A1CE001EE100AEA
:10424000B8EE411ADFED5D1A81EE812A9FED5A1A10
:10425000C0EE811A564D18352D68C5F3080501EEDC
:10426000105AB8EE411A31EE811AF7EE001A31EE0B
:10427000211A22EE010A5BE001EE100AB8EE411AA3
:10428000DFED4F1A81EE812A9FED4B1AC0EE811AA5
:10429000474D18352D68C5F3080501EE105AB8EEE4
:1042A000411A31EE811AF7EE001A31EE211A22EE90
:1042B000010A3DE077E01DE001EE100AB8EE411A78
:1042C0009FED402AC2EE011A9FED3B1A80EE812A33
:1042D000374D18352D68C5F3080501EE105AB8EEB4
:1042E000411A32EE011AB7EE002A31EE021A21EE1F
:1042F000810A1DE001EE100AB8EE411ADFED301A16
:1043000081EE812A9FED2C1AC0EE811A284D1835B6
:104310002D68C5F3080501EE105AB8EE411A31EECA
:10432000811AF7EE001A31EE211A22EE010A00BFBF
:1043300000BF1F4D18352D68C5F3462501EE105AF4
:10434000B8EE411AF7EE001A31EE211AC0EE011A4A
:10435000BCEEE11A81ED001A154D18352D68C5F334
:10436000064501EE105AB8EE411AF7EE001A31EE8A
:10437000211AC0EE011ABCEEE11A81ED011A0C4DB2
:1043800018352D68C5F3066501EE105AB8EE411ACE
:10439000F7EE001A31EE211AC0EE011ABCEEE11A56
:1043A00081ED021A03E000250D604D608D6070BD47
:1043B000284402580090D003000000460024744CAA
:1043C0000024744A20BCBE4B2DE9F0410446002570
:1043D000A846206800F00060B0F1006F30D1606E38
:1043E00048B1B0F5801F0DD0B0F5001F10D0B0F56A
:1043F000401F15D113E0F948006840F40030F74938
:1044000008600FE00221201D03F0EEFB054609E0E5
:10441000022104F1240003F099FC054602E001E0CA
:10442000012500BF00BF55B9EC482430006820F4D6
:104430004010616E0843E9492431086000E0A84655
:10444000208800F48070B0F5807F2DD1606D052844
:104450001AD2DFE800F0030A10171800DF480068DE
:1044600040F40030DD49086010E00021201D03F019
:10447000BBFB05460AE0002104F1240003F066FCC2
:10448000054603E002E001E0012500BF00BF55B989
:10449000D2482430006820F00700616D0843CF49FE
:1044A0002431086000E0A846208800F40070B0F5D0
:1044B000007F33D1A06D802817D003DC40B14028A5
:1044C0001CD10CE0C02817D0B0F5807F16D114E0C5
:1044D000C248006840F40030C049086010E0002184
:1044E000201D03F081FB05460AE0002104F12400B1
:1044F00003F02CFC054603E002E001E0012500BFCB
:1045000000BF55B9B5482430006820F4E070A16DB3
:104510000843B2492431086000E0A846208800F42E
:104520008060B0F5806F38D1D4F8A400B0F5800F6A
:1045300019D004DC50B1B0F5001F1DD10DE0B0F56D
:10454000C00F17D0B0F5000F16D114E0A3480068D3
:1045500040F40030A149086010E00021201D03F064
:1045600043FB05460AE0002104F1240003F0EEFBC2
:10457000054603E002E001E0012500BF00BF5DB990
:1045800096482C30006820F46000D4F8A41008434A
:1045900092492C31086000E0A846208800F40060B1
:1045A000B0F5006F38D1D4F8A800B0F1007F19D071
:1045B00004DC50B1B0F1807F1DD10DE0B0F1407F3F
:1045C00017D0B0F1806F16D114E08448006840F431
:1045D00000308249086010E00021201D03F004FB38
:1045E00005460AE0002104F1240003F0AFFB054674
:1045F00003E002E001E0012500BF00BF5DB977489C
:104600002C30006820F0E060D4F8A810084373490B
:104610002C31086000E0A846206800F00070B0F17E
:10462000007F27D1A06CA0B1102804D0202809D089
:1046300030280FD10CE06948006840F40030674929
:10464000086009E00221201D03F0CEFA054603E0D0
:1046500002E001E0012500BF00BF55B95F482030EE
:10466000006820F03000A16C08435C4920310860EC
:1046700000E0A846208800F48050B0F5805F36D175
:10468000E06DB0F5005F19D004DC50B1B0F5805F8B
:104690001DD10DE0B0F5405F17D0B0F5804F16D1B9
:1046A00014E04E48006840F400304C49086010E0C7
:1046B0000021201D03F098FA05460AE0002104F1CC
:1046C000240003F043FB054603E002E001E001257E
:1046D00000BF00BF55B941482430006820F4E040D5
:1046E000E16D08433D492431086000E0A846208878
:1046F00000F40050B0F5005F34D1206EB0F5403FBB
:104700001DD007DC68B1B0F5803F0BD0B0F5003F9D
:1047100018D10DE0B0F5802F12D0B0F5A02F11D137
:104720000FE011E00121201D03F05EFA05460BE0C9
:10473000012104F1240003F009FB054604E003E035
:1047400002E001E0012500BF00BF55B92348243035
:10475000006820F4E020216E0843204924310860DD
:1047600000E0A846208800F48040B0F5804F38D1A2
:10477000D4F8AC00B0F1405F1DD007DC68B1B0F1F7
:10478000805F0BD0B0F1005F18D10DE0B0F1804F29
:1047900012D0B0F1A04F11D10FE011E00121201D86
:1047A00003F022FA05460BE0012104F1240003F096
:1047B000CDFA054604E003E002E001E0012500BF78
:1047C00000BF6DB905482C30006820F0E040D4F8F7
:1047D000AC10084301492C31086002E02C44025817
:1047E000A846208800F40040B0F5004F26D1E06EC6
:1047F00098B1B0F1805F03D0B0F1005F0ED106E058
:10480000F948006840F40030F749086008E00121E9
:10481000201D03F0E9F9054602E001E0012500BF93
:1048200000BF55B9F0482430006820F04050E16ED8
:104830000843ED492431086000E0A846206800F0F4
:104840008070B0F1807F27D1606CA0B1012804D0C6
:10485000022809D003280FD10CE0E348006840F497
:104860000030E149086009E00221201D03F0BCF995
:10487000054603E002E001E0012500BF00BF55B995
:10488000D9482030006820F00300616C0843D64905
:104890002031086000E0A846206800F48000B0F5F0
:1048A000800F7DD1D148006840F48070CF49086006
:1048B000FEF7E0F8064606E0FEF7DCF8801B642809
:1048C00001D9032505E0C948006800F4807000287C
:1048D000F2D000BF85BBC4484430006800F440708B
:1048E000B4F8B01001F44071884213D0BE4844308F
:1048F000006820F44077BC484430006840F48030C1
:10490000B949443108600846006820F480300860E6
:1049100008460760D4F8B000B0F5807F15D1FEF7E7
:10492000A9F8064609E0FEF7A5F8801B41F2883198
:10493000884202D9032507E038E0AB4844300068DC
:10494000C0F340000028EED000BF55BB00BFB4F854
:10495000B00000F44070B0F5407F0ED1A2481C3882
:10496000006820F47C51A24AD4F8B000104041EA1B
:1049700010109D491C39086007E09B481C380068EE
:1049800020F47C5098491C390860974844300068EE
:10499000B4F8B010C1F30B0108439349443101E06E
:1049A00005E001E0086002E0A84600E0A8462078A3
:1049B00000F0010068B3A06F182819D005DC48B1D9
:1049C000082808D0102816D10BE0202811D028285C
:1049D00011D10FE011E00121201D03F005F905467A
:1049E0000BE0012104F1240003F0B0F9054604E0D6
:1049F00003E002E001E0012500BF00BF55B97A489D
:104A00002830006820F03800A16F0843764928312B
:104A1000086000E0A846207800F00200022828D1B3
:104A2000606F062815D2DFE800F003040A111213A4
:104A300011E00121201D03F0D7F805460BE001210C
:104A400004F1240003F082F9054604E003E002E0EB
:104A500001E0012500BF00BF55B963482830006858
:104A600020F00700616F08435F492831086000E0CB
:104A7000A846207800F0040004282AD1D4F8900039
:104A8000062815D2DFE800F003040A11121311E022
:104A90000121201D03F0A8F805460BE0012104F1D7
:104AA000240003F053F9054604E003E002E001E0CE
:104AB000012500BF00BF5DB94B482C30006820F0D5
:104AC0000700D4F89010084347492C31086000E0F3
:104AD000A846207800F02000202836D1D4F88C0099
:104AE000B0F1405F1DD007DC68B1B0F1805F0BD042
:104AF000B0F1005F18D10DE0B0F1804F12D0B0F1ED
:104B0000A04F11D10FE011E00021201D03F06CF83F
:104B100005460BE0022104F1240003F017F90546D5
:104B200004E003E002E001E0012500BF00BF5DB941
:104B30002D482830006820F0E040D4F88C1008435D
:104B400029492831086000E0A846207800F040009C
:104B5000402836D1D4F89800B0F5406F1DD007DC5E
:104B600068B1B0F5806F0BD0B0F5006F18D10DE0D3
:104B7000B0F5805F12D0B0F5A05F11D10FE011E069
:104B80000021201D03F030F805460BE0022104F15E
:104B9000240003F0DBF8054604E003E002E001E056
:104BA000012500BF00BF5DB90F482C30006820F41C
:104BB000E050D4F8981008430B492C31086000E00D
:104BC000A846207800F0800080283AD1D4F89C00D4
:104BD000B0F5C04F23D00DDC98B1B0F5005F11D017
:104BE000B0F5804F1ED113E02C4402580048025803
:104BF000FFFCFF0FB0F5004F12D0B0F5204F11D1E0
:104C00000FE011E00021201D02F0EEFF05460BE051
:104C1000022104F1240003F099F8054604E003E0C2
:104C200002E001E0012500BF00BF4DB9BE480068A9
:104C300020F46040D4F89C100843BB49086000E0B1
:104C4000A846207800F00800082817D1D4F8800082
:104C5000B0F5805F07D1022104F1240003F076F85B
:104C600008B14FF00108B048001F006820F4405020
:104C7000D4F880100843AC49091F0860207800F080
:104C80001000102815D1D4F89400B0F5807F07D11A
:104C9000022104F1240003F059F808B14FF0010893
:104CA000A148006820F44070D4F8941008439E494D
:104CB0000860206800F40020B0F5002F26D1D4F859
:104CC000A00030B1B0F5803F09D0B0F5003F0ED163
:104CD0000CE00021201D02F087FF054609E00221BB
:104CE00004F1240003F032F8054602E001E001255A
:104CF00000BF00BF4DB98C48006820F44030D4F8A4
:104D0000A01008438849086000E0A846206800F425
:104D10008020B0F5802F2DD1D4F88400B0F5801F0D
:104D200006D0B0F5001F0CD0B0F5401F11D10FE038
:104D30007D482C38006840F400307B492C390860ED
:104D400009E0012104F1240003F000F8054602E027
:104D500001E0012500BF00BF5DB97348001F006876
:104D600020F44010D4F8841008436F49091F0860EC
:104D700000E0A846206800F48030B0F5803F24D1E0
:104D8000E06C18B1B0F5803F0FD108E066482C38D0
:104D9000006840F4003064492C39086007E00221C3
:104DA000201D02F021FF054601E0012500BF00BFE4
:104DB00055B95D480C38006820F48030E16C084338
:104DC00059490C39086000E0A846206800F00050FE
:104DD000B0F1005F07D1022104F1240002F0B6FF18
:104DE00008B14FF00108206800F40030B0F5003F32
:104DF00027D1E06FA0B1B0F5807F06D0B0F5007F7D
:104E00000CD0B0F5407F0CD109E047482C38006841
:104E100040F4003044492C39086004E003E002E02B
:104E200001E0012500BF00BF55B93F48001F0068E1
:104E300020F44070E16F08433B49091F086000E01F
:104E4000A846206800F48010B0F5801F09D13648CC
:104E50000838006820F00040216F084332490839C3
:104E60000860206800F08050B0F1805F0AD12E48C1
:104E70004838006820F48040D4F8B41008432A4928
:104E800048390860206800F40010B0F5001F09D10F
:104E900025480838006820F08070A16E0843224938
:104EA00008390860206800F08040B0F1804F11D1CF
:104EB00000BF1D484838006820F400401A494839AE
:104EC000086008460068D4F8B81008431649483905
:104ED000086000BF206800F00040B0F1004F09D129
:104EE00011480C38006820F04050216D08430E49ED
:104EF0000C390860206800F40000B0F5000F0AD1FA
:104F00000948001F006820F44000D4F888100843C6
:104F10000549091F0860B8F1000F02D10020BDE863
:104F2000F0810120FBE70000584402582DE9F041D0
:104F300004460D4614B90120BDE8F081BD48006863
:104F400000F00F00A8420ED2BA48006820F00F000F
:104F50002843B84908600846006800F00F00A842DE
:104F600001D00120E8E7207800F0040004280ED1E9
:104F7000B1492069096801F07001884207D9AE483B
:104F8000006820F0700021690843AB490860207870
:104F900000F00800082811D1A749091D60690968B7
:104FA00001F07001884209D9A348001D006820F073
:104FB000700061690843A049091D0860207800F06D
:104FC0001000102811D19C49091DA069096801F43D
:104FD000E061884209D99848001D006820F4E0602B
:104FE000A16908439449091D0860207800F0200059
:104FF000202811D190490831E069096801F0700159
:10500000884209D98C480830006820F07000E169B6
:105010000843894908310860207800F0020002281E
:105020000ED18549E068096801F00F01884207D96F
:105030008148006820F00F00E16808437E4908605D
:10504000207800F00100002850D07B48006820F450
:105050007060A1680843784908606068022807D139
:10506000754818380068C0F34040F8B9012063E77C
:105070006068032807D1704818380068C0F34060A2
:10508000A0B9012058E76068012807D16A4818389C
:105090000068C0F3002048B901204DE76648183881
:1050A0000068C0F3800008B9012045E7624808386D
:1050B000006820F00700616808435F49083908600C
:1050C000FDF7D8FC064608E0FDF7D4FC801B41F252
:1050D0008831884201D903202EE7574808380068F4
:1050E00000F038006168B0EBC10FEDD1207800F01E
:1050F000020002280ED15049E068096801F00F0152
:10510000884207D24C48006820F00F00E16808434D
:10511000494908604748006800F00F00A8420ED9CE
:105120004448006820F00F002843424908600846C0
:10513000006800F00F00A84201D00120FCE62078B2
:1051400000F0040004280ED13B492069096801F0F1
:105150007001884207D23848006820F07000216949
:10516000084335490860207800F00800082811D16C
:105170003149091D6069096801F07001884209D24E
:105180002D48001D006820F07000616908432A491D
:10519000091D0860207800F01000102811D1264960
:1051A000091DA069096801F4E061884209D222481A
:1051B000001D006820F4E060A16908431E49091D34
:1051C0000860207800F02000202811D11A49083109
:1051D000E069096801F07001884209D21648083078
:1051E000006820F07000E169084313490831086045
:1051F00000F0ACF810490968C1F303210F4A515C73
:1052000001F01F0120FA01F70B48006800F00F00C1
:105210001146085C00F01F0027FA00F008490860FA
:105220000848076008480068FDF766FC804640466D
:1052300082E6000000200052184402583CB40008E6
:1052400078000024740000246C0000243F220260D7
:10525000174A126802F007024260154A08321268C3
:1052600002F470628260124A0832126802F00F0281
:10527000C2600F4A0832126802F0700202610C4AE2
:105280000C32126802F070024261094A0C32126854
:1052900002F4E0628261064A1032126802F0700283
:1052A000C261044A126802F00F020A6070470000EF
:1052B000104402580020005210B500F047F80D4984
:1052C0000968C1F303210C4A515C01F01F0120FA67
:1052D00001F40848006800F00F001146085C00F077
:1052E0001F0024FA00F005490860054804600846DC
:1052F000006810BD184402583CB40008780000242F
:105300007400002400B5FFF7D7FF05490968C1F311
:105310000211044A515C01F01F01C84000BD0000A9
:105320001C4402583CB4000800B5FFF7C5FF05490E
:105330000968C1F30221044A515C01F01F01C84011
:1053400000BD00001C4402583CB40008F0B5824E79
:10535000366806F0380636B1082E15D0102E15D056
:10536000182E7DD114E07C4E103E3668C6F34016F0
:1053700046B1794E103E3668C6F3C107774E26FA1D
:1053800007F000E07548E5E07548E3E07548E1E0C6
:10539000714E1836366806F003046F4E18363668BC
:1053A000C6F305116C4E1C36366806F001056A4ED0
:1053B00024363668C6F3CC0616FB05F601EE106AF5
:1053C000B8EE410A002971D024B1012C50D0022C32
:1053D0006DD16DE0604E103E3668C6F340163EB3A8
:1053E0005D4E103E3668C6F3C1075C4E26FA07F3E1
:1053F00001EE103AF8EE411A01EE101AB8EE411A19
:1054000081EE812A9FED581AC0EE011A524E2036C5
:105410003668C6F3080601EE106AB8EE411A31EE9E
:10542000811AF7EE001A31EE211A62EE010A1EE02F
:1054300001EE101AB8EE411ADFED4C1A81EE812A06
:105440009FED491AC0EE011A434E20363668C6F366
:10545000080601EE106AB8EE411A31EE811A00E03A
:1054600076E0F7EE001A31EE211A62EE010A5BE0F7
:1054700001EE101AB8EE411A9FED3D2AC2EE011A54
:105480009FED391A80EE012A334E20363668C6F376
:10549000080601EE106AB8EE411A32EE011AB7EEB4
:1054A000002A31EE021A61EE810A3DE04EE01DE075
:1054B00001EE101AB8EE411ADFED2E1A81EE812AA4
:1054C0009FED291AC0EE011A234E20363668C6F326
:1054D000080601EE106AB8EE411A31EE811AF7EEB5
:1054E000001A31EE211A62EE010A1DE001EE101AD7
:1054F000B8EE411A9FED1E2AC2EE011A9FED1A1A4C
:1055000080EE012A144E20363668C6F3080601EEF6
:10551000106AB8EE411A32EE011AB7EE002A31EEE7
:10552000021A61EE810A00BF00BF0B4E20363668BA
:10553000C6F34626721C01EE102AB8EE411AC0EEE0
:10554000811ABCEEE11A11EE100A00E0002001E021
:10555000034800BF00BFF0BD104402580090D003C4
:1055600000093D0040787D01000000460024744C95
:105570000024744A20BCBE4B2DE9F047044614B900
:105580000120BDE8F087207800F00100002870D0ED
:10559000FA48006800F03808F8481830D0F8009051
:1055A000B8F1100F06D0B8F1180F0FD109F00300B1
:1055B00002280BD1F14810380068C0F340400028A1
:1055C0006AD06068002867D10120DAE700BF606810
:1055D000B0F5803F08D1E9481038006840F48030C9
:1055E000E649103908602EE0606868B9E348103871
:1055F000006820F48030E1491039086008460068EE
:1056000020F4802008601EE06068B0F5A02F0DD166
:10561000DA481038006840F48020D8491039086012
:105620000846006840F4803008600CE0D348103829
:10563000006820F48030D1491039086008460068BD
:1056400020F48020086000BF606898B1FDF712FA6E
:10565000054606E0FDF70EFA401B642801D9032039
:105660008FE7C64810380068C0F340400028F1D0EA
:1056700012E012E0FDF7FEF9054606E0FDF7FAF943
:10568000401B642801D903207BE7BC481038006820
:10569000C0F340400028F1D100BF207800F00200A4
:1056A000022874D1B548006800F03808B3481830B3
:1056B000D0F80090B8F1000F05D0B8F1180F56D10E
:1056C00009F00300D0BBAD4810380068C0F380007B
:1056D00018B1E06808B9012053E7A84810380068FD
:1056E00020F01900E1680843A44910390860FDF76B
:1056F000C1F9054606E0FDF7BDF9401B022801D9B6
:1057000003203EE79D4810380068C0F38000002861
:10571000F1D000BFFDF7A8F941F2030188421AD881
:10572000206940280BD195480C38006820F47C3063
:1057300040F4003091490C39086017E017E08F48B9
:105740000C38006820F47C30216940EA01308B4934
:105750000C3908600AE089480C38006820F0FE40E7
:10576000217C40EA016085490C39086066E0E06808
:1057700088B382481038006820F01900E1680843B7
:105780007E4910390860FDF775F9054607E056E0D7
:10579000FDF770F9401B022801D90320F1E6774894
:1057A00010380068C0F380000028F1D000BFFDF77A
:1057B0005BF941F2030188421AD8206940280BD1D5
:1057C0006E480C38006820F47C3040F400306B499F
:1057D0000C39086017E017E068480C38006820F4BE
:1057E0007C30216940EA013064490C3908600AE0E4
:1057F00062480C38006820F0FE40217C40EA0160DD
:105800005E490C39086019E05C481038006820F0E7
:1058100001005A4910390860FDF72CF9054606E0E9
:10582000FDF728F9401B022801D90320A9E65348B7
:1058300010380068C0F380000028F1D100BF207844
:1058400000F0100010287CD14C48006800F03808A7
:105850004A481830D0F80090B8F1080F06D0B8F1D7
:10586000180F3DD109F00300012839D14348103801
:105870000068C0F3002020B1E069802801D0012039
:105880007FE600BFFDF7F0F841F2030188421AD825
:10589000206A20280AD139480C38006820F0F840E6
:1058A00040F0804035490C39086018E033480C3826
:1058B000006820F0F84094F8201040EA81602F49F9
:1058C0000C3908600BE02D48001F006820F07C5068
:1058D00094F8201040EA01602849091F086066E03A
:1058E000E06978B325481038006840F0800023490B
:1058F00010390860FDF7BEF8054606E0FDF7BAF876
:10590000401B022801D903203BE61C4810380068E0
:10591000C0F300200028F1D000BFFDF7A5F841F248
:10592000030188421CD8206A20280CD113480C3867
:10593000006820F0F84040F0804010490C390860C1
:105940001AE035E01CE00D480C38006820F0F84003
:1059500094F8201040EA816008490C3908600BE097
:105960000648001F006820F07C5094F8201040EAA0
:1059700001600249091F086019E000001044025844
:10598000FA48006820F08000F8490860FDF772F8D6
:10599000054606E0FDF76EF8401B022801D90320FA
:1059A000EFE5F2480068C0F300200028F2D100BF04
:1059B000207800F00800082836D16069D0B1EB48A3
:1059C0007430006840F00100E84974310860FDF768
:1059D00051F8054606E0FDF74DF8401B022801D9B5
:1059E0000320CEE5E14874300068C0F34000002891
:1059F000F1D019E0DD487430006820F00100DB4987
:105A000074310860FDF736F8054606E0FDF732F818
:105A1000401B022801D90320B3E5D4487430006844
:105A2000C0F340000028F1D1207800F020002028A9
:105A300030D1A069B8B1CD48006840F48050CB495E
:105A40000860FDF717F8054606E0FDF713F8401B60
:105A5000022801D9032094E5C4480068C0F340300F
:105A60000028F2D016E0C148006820F48050BF49F9
:105A70000860FCF7FFFF054606E0FCF7FBFF401B54
:105A8000022801D903207CE5B8480068C0F3403003
:105A90000028F2D1207800F0040004287DD1B44819
:105AA000006840F48070B2490860FCF7E3FF0546E7
:105AB00006E0FCF7DFFF401B642801D9032060E506
:105AC000AB48006800F480700028F2D000BFA068E6
:105AD000012808D1A5487030006840F00100A349B2
