:020000040800F2
:1000000078490024AD0200089D8A0008F7830008A3
:10001000998A0008910F0008A9A9000800000000B3
:1000200000000000000000000000000039960008F9
:100030000116000800000000A18A00089D96000833
:10004000C7020008C7020008C7020008C70200086C
:10005000C7020008C7020008C7020008C70200085C
:10006000C7020008C7020008C702000865100008A0
:100070007510000885100008C7020008C7020008B4
:10008000C7020008C7020008C7020008C70200082C
:10009000C7020008C7020008C7020008C70200081C
:1000A000C7020008C7020008C7020008C70200080C
:1000B000C7020008C7020008C7020008C7020008FC
:1000C000C7020008C7020008C70200081D95000803
:1000D000C702000811A90008C7020008C7020008EB
:1000E000C7020008C7020008000000008598000849
:1000F000A598000895980008C7020008C7020008E4
:10010000C7020008C7020008C7020008C7020008AB
:10011000C7020008C7020008C7020008C70200089B
:10012000C7020008C7020008C7020008C70200088B
:10013000C7020008C7020008C7020008C70200087B
:1001400000000000000000000000000000000000AF
:10015000C7020008C7020008C7020008C70200085B
:10016000C7020008C7020008C7020008C70200084B
:10017000C7020008C7020008C7020008000000000C
:10018000C7020008C7020008C7020008C70200082B
:10019000C7020008C7020008C7020008C70200081B
:1001A000C7020008C7020008C7020008C70200080B
:1001B00045920008C7020008C7020008C7020008ED
:1001C000C7020008C7020008C7020008C7020008EB
:1001D000C7020008C7020008C7020008C7020008DB
:1001E000C7020008C7020008C7020008C7020008CB
:1001F000C7020008C7020008C7020008C7020008BB
:10020000C7020008C7020008C7020008C7020008AA
:10021000C7020008C7020008C7020008C70200089A
:10022000C7020008C7020008FD83000800000000A4
:10023000C7020008C702000800000000C70200084B
:10024000C7020008C7020008C7020008C70200086A
:10025000C7020008C7020008C7020008C70200085A
:10026000C7020008C7020008C7020008C70200084A
:10027000C7020008C7020008C7020008000000000B
:10028000C7020008C7020008C702000800000000FB
:1002900000000000C7020008DFF80CD000F0F8F8FA
:1002A00000480047C9B6000878490024064880473E
:1002B00006480047FEE7FEE7FEE7FEE7FEE7FEE74B
:1002C000FEE7FEE7FEE7FEE78997000899020008CF
:1002D0002DE9F05F0546002092469B46884606467B
:1002E000814640241BE0284641464746224600F00E
:1002F00086F853465A46C01A914110D31146184603
:10030000224600F06DF82D1A67EB01084F46224691
:100310000120002100F064F817EB00094E41201E77
:10032000A4F10104DFDC484631462A464346BDE8D5
:10033000F09F40EA01039B0703D009E008C9121FA0
:1003400008C0042AFAD203E011F8013B00F8013B8F
:10035000521EF9D27047D2B201E000F8012B491EBB
:10036000FBD270470022F6E710B513460A46044652
:100370001946FFF7F0FF204610BD30B505462A4666
:100380000B4612F8010B13F8014B08B1A042F8D04C
:100390001CB1002802D06D1CF1E7284630BD421C7C
:1003A00010F8011B0029FBD1801A704730B50446B4
:1003B0000020034600E05B1C934203D2E05CCD5C6E
:1003C000401BF8D030BD70B506460AF08BFE0468BD
:1003D00005460A220021304600F021F82C6070BD4D
:1003E000202A04DB203A00FA02F1002070479140F5
:1003F000C2F1200320FA03F3194390407047202AEA
:1004000004DB203A21FA02F00021704721FA02F3BE
:10041000D040C2F1200291400843194670472DE9AF
:10042000F04791460F4680460446002614F8015BCB
:100430002DB100F03FF80068405DC007F6D12B2DCC
:1004400002D02D2D18D0641E4A463946204600F0B1
:1004500035F827B13968A14201D1C7F8008071058C
:100460004FF002040BD54042002803DD0AF03AFEAB
:100470000460A007BDE8F08746F48066E4E7002842
:10048000F8DA0AF02FFE04606FF00040F2E7000097
:10049000064C074D06E0E06840F0010394E80700D1
:1004A00098471034AC42F6D3FFF7FAFEACB8000818
:1004B000CCB8000800487047A8B800082DE9F05FE4
:1004C00082460078002715468B460AF10104B9469A
:1004D000302801D09DB113E014F8010B01277828D2
:1004E00003D0582801D045B10AE00DB1102D07D135
:1004F0000027102514F8010B02E0082500E00A256A
:100500000026B0460EE005FB080005FB06F10127BA
:1005100001EB10461FFA80F8B6F5803F00D3B946CC
:1005200014F8010B294600F018F80028EBDABBF1AB
:10053000000F05D00FB1641E00E05446CBF8004018
:10054000B9F1000F06D00AF0CDFD02210160C81EEE
:10055000BDE8F09F48EA0640FAE73A2800D2303872
:1005600020F02002412A01D3A2F13700884201D3B2
:100570004FF0FF30704700002DE9F04707468846EE
:1005800014461D46DDE9089A1A48446085604846CD
:100590000AF072FD1848194908601948194908609D
:1005A000002620E04146384600F0BCF900BF0AF0C2
:1005B000C5FC10484078012803D00E480078012877
:1005C000F5D10C484078012804D100200949487031
:1005D000BDE8F08707480078012802D100200549CE
:1005E0000870701CC6B25645DCDB01200AF044FDE1
:1005F0000120EDE7041100242D0800081400002458
:10060000F1070008180000242DE9F0419CB00546D0
:100610000E46174603200A21002335A2CDE900101B
:10062000052134A0FFF7A8FF18B101201CB0BDE8D8
:10063000F08105203221002330A2CDE900100F21E6
:1006400031A0FFF799FF08B10120EFE7642103A86B
:10065000FFF788FE002403200A21002324A2CDE90D
:10066000001007212CA0FFF787FF03200A21002399
:100670001FA2CDE900100F2129A0FFF77DFF012F58
:1006800014D103200A21002319A2CDE9001015215D
:1006900027A0FFF771FF33462A462BA103A80AF0D3
:1006A000F1FCC4B2002003A9085514E003200A217C
:1006B00000230FA2CDE900100E212AA0FFF75CFF56
:1006C0002B4600222BA103A800960AF0DBFCC4B243
:1006D000002003A9085503200A2100232DA2CDE9FB
:1006E0000010214603A8FFF747FF804640469DE7DC
:1006F0004F4B000041540D0A000000005354415478
:1007000055533A320000000041542B434950535492
:10071000415455530D0A0000415445300D0A000064
:1007200041542B4349504D4F44453D300D0A000084
:1007300041542B43495053534C53495A453D34304F
:1007400039360D0A0000000041542B4349505354E0
:100750004152543D2253534C222C222573222C25E6
:10076000640D0A0041542B4349504D55583D310DFD
:100770000A00000041542B43495053544152543D08
:1007800025642C22544350222C222573222C2564CC
:100790000D0A0000434F4E4E4543540010B5044629
:1007A0004CB900224FF480710E4803F07FFA00200C
:1007B0000D49087010BD00210C4800F0EBFA012231
:1007C0001102084803F072FA0120074908704FF43B
:1007D0007A7002F053FF0121044800F0DBFA00BFF9
:1007E000E8E70000000C025887000024EC03002416
:1007F00070B504460D460C4841682046FFF7BDFD24
:1008000028B9094881682046FFF7B7FD28B10120C3
:10081000054948700020087004E000200249487033
:100820000120087070BD00000411002470B504465A
:100830000D46094841682046FFF79FFD28B9064844
:1008400081682046FFF799FD20B1012002494870D8
:100850000020087070BD0000041100242DE9F04351
:10086000CDB005460E461746642134A8FFF77AFD41
:100870000024A046A1462B46324617A134A80AF010
:1008800001FCC4B2012F07D122461BA102A80AF025
:10089000F9FB00F0FF0807E023464A461AA102A828
:1008A0000AF0F0FB00F0FF0805200A211BA31CA2A0
:1008B000CDE90010414602A8FFF75EFE50B9322094
:1008C00002F0DCFE214634A800F02CF800204DB0E8
:1008D000BDE8F0830120FAE74745542025732048FE
:1008E0005454502F312E310D0A486F73743A20251D
:1008F000730D0A0D0A00000041542B434950534523
:100900004E443D25640D0A0041542B434950534544
:100910004E443D25642C25640D0A00003E00000075
:100920004F4B000070B504460D46FF2D00DC04B9A6
:1009300070BD2A462146044800F016FB024800F02C
:1009400005FA00BFF4E70000EC0300240146264846
:10095000814201D2002070472448814201D2012007
:10096000F9E72348814201D20220F4E7214881427D
:1009700001D20320EFE72048814201D20420EAE7B8
:100980001E48814201D20520E5E71D48814201D27F
:100990000620E0E7B1F1016F01D20720DBE719483B
:1009A000814201D20020D6E71748814201D20120BE
:1009B000D1E71648814201D20220CCE71448814297
:1009C00001D20320C7E71348814201D20420C2E7C5
:1009D0001148814201D20520BDE71048814201D271
:1009E0000620B8E70720B6E7000002080000040868
:1009F000000006080000080800000A0800000C08B3
:100A000000000E080000120800001408000016087C
:100A10000000180800001A0800001C0800001E084A
:100A200070B503469818B0F1026F01D9032070BD6C
:100A30000AB90020FBE7012500260BE01C780878A6
:100A4000A04204D0FF2C01D00220F0E700255B1C5F
:100A5000491C761C9642F1D3012D01D10020E6E716
:100A60000120E4E7F0B587B004460E46B4F1006F0C
:100A700002D304F0030010B1012007B0F0BD00273D
:100A8000002001900125B4F1016F01D3022500E09F
:100A9000012501200AF039FB02F05AFF03950020DE
:100AA00002902046FFF752FF049005962020069002
:100AB00029464CF2503000F027FE01A902A802F0AE
:100AC000F1FD074629464CF2503000F01DFE02F0C1
:100AD00087FE00200AF019FB0198401C10B90FB9DD
:100AE0000020CAE70120C8E72DE9F04188B004469C
:100AF0000F461546B4F1006F02D304F0030018B19D
:100B0000012008B0BDE8F0816019B0F1026F01D991
:100B10000120F6E70DB90020F3E72A4639462046C2
:100B2000FFF77EFF06460EB90020EAE701200AF033
:100B3000ECFA02F00DFF4FF000081AE020223946CF
:100B40006846FFF7F6FB20376A462146012002F08F
:100B500069FE30B102F044FE00200AF0D6FA01200E
:100B6000CFE7203401214CF2503000F0CDFD08F1E8
:100B70000108B8EB551FE1D305F01F00B8B12021E3
:100B80006846FFF7EFFB05F01F0239466846FFF79E
:100B9000D0FB6A462146012002F044FE30B102F04B
:100BA0001FFE00200AF0B1FA0120AAE700BF02F000
:100BB00017FE00200AF0A9FA0020A2E710B50446AB
:100BC0000448844204D104480AF0F2FC80B210BD0B
:100BD0000020FCE7EC0300243029002470B5054612
:100BE000434885427ED1434800684349884258D0F3
:100BF0004048006840491831884252D03D4800685A
:100C00003D49303188424CD03A4800683A49483131
:100C1000884246D03748006837496031884240D022
:100C2000344800683449783188423AD03148006805
:100C300031499031884234D02E4800682E49A8317D
:100C400088422ED02B4800682C49884229D0294858
:100C500000682A491831884223D02648006827496D
:100C6000303188421DD023480068244948318842E9
:100C700017D02048006821496031884211D01D48B2
:100C800000681E49783188420BD01A4800681B4919
:100C90009031884205D0174800681849A831884229
:100CA00003D114480068406802E0124800684068B8
:100CB0001349B1F84010081A84B21148B0F84A003C
:100CC000201A86B20E48C06B0D4AB2F84A2081182D
:100CD00032460B4820300AF0BCFC0948A0F84A40D4
:100CE000012000E002E00649487000BF70BD00002E
:100CF000EC0300247C040024100002401004024095
:100D00001029002410B50446074884420AD12068FF
:100D1000C069C0F3001028B1102021680862204685
:100D2000FFF75CFF10BD0000EC03002410B5044683
:100D3000204609F0F7FD2068006840F010002168A7
:100D4000086010202168086210BD000070B50446DC
:100D500000250E480078012800D170BD0B48B0F87E
:100D60004820416C001D0AF02BFC85B25DB10120CA
:100D7000064908700648844205D108462A46416C57
:100D8000034807F0CBFA00BFE7E700001029002472
:100D9000EC0300240A4A904200D07047012906D192
:100DA000084A126842F00402064B1A6005E0054A40
:100DB000126822F00402034B1A6000BFEDE7000046
:100DC000EC0300240010014070B504460D461646A1
:100DD0000548844206D13246294604480AF0F0FB11
:100DE00080B270BD0020FCE7EC0300243029002411
:100DF00070B504460D48844217D10D48B0F8400044
:100E00000B49B1F84A10401A85B20948C06B084A2C
:100E1000B2F84A2081182A46054820300AF019FC09
:100E200000200349A1F84A0000BF70BDEC03002474
:100E30001029002470B50546404885427DD14048C0
:100E400000684049884258D03D4800683D49183103
:100E5000884252D03A4800683A49303188424CD0F2
:100E60003748006837494831884246D034480068DE
:100E700034496031884240D0314800683149783186
:100E800088423AD02E4800682E499031884234D0AA
:100E90002B4800682B49A83188422ED0284800688A
:100EA0002949884229D026480068274918318842B4
:100EB00023D0234800682449303188421DD020487F
:100EC000006821494831884217D01D4800681E49F2
:100ED0006031884211D01A4800681B497831884235
:100EE0000BD01748006818499031884205D0144843
:100EF00000681549A831884203D11148006840684C
:100F000002E00F48006840681049B1F84010081A24
:100F100084B20E48B0F84A00201A86B20B48C06B63
:100F20000A4AB2F84A2081183246084820300AF0AE
:100F300090FB0648A0F84A4000BF70BDEC030024B7
:100F40007C040024100002401004024010290024F8
:100F50000349884202D10021024A11707047000003
:100F6000EC0300241029002470B504460D461646F3
:100F70000548844206D13246294604480AF069FBF6
:100F800080B270BD0020FCE7EC030024142900248B
:100F900000BFFEE770B503460C4600210BE0480099
:100FA000401C34F810004E0034F8166040EA064049
:100FB0001E683060491CB1EB520FF0D302F0010003
:100FC00020B11D68480034F81000288018680068B7
:100FD00070BDF0B504460B46002113E013F8210064
:100FE00007068800401C185C47EA00478800801C00
:100FF000185C47EA00208F00FF1CDF5D384327683C
:101000003860491CB1EB920FE8D302F0030030B313
:1010100002F00300012803D113F82100276838707B
:1010200002F00300022808D18800401C185C13F865
:10103000217040EA07252668358002F00300032866
:101040000DD18800401C185C13F8217040EA072578
:10105000266835808800801C185C276838702068F6
:101060000068F0BD10B5024801F00CF910BD000099
:101070004402002410B5024801F004F910BD00003C
:101080007C04002410B5024801F0FCF810BD0000FB
:10109000F40400240146374A0868904249D0354A92
:1010A00018320868904244D0324A30320868904280
:1010B0003FD0304A4832086890423AD02D4A6032D8
:1010C0000868904235D02B4A78320868904230D078
:1010D000284A9032086890422BD0264AA8320868E5
:1010E000904226D0244A0868904222D0224A1832E0
:1010F000086890421DD0204A30320868904218D0CB
:101100001D4A48320868904213D01B4A6032086872
:1011100090420ED0184A78320868904209D0164A98
:1011200090320868904204D0134AA832086890426E
:1011300001D1012000E00020B0B10A78103A182354
:10114000B2FBF3F000F007020C4B9A5CCA6503286F
:1011500005D90A686FF30902121D8A6503E00A685F
:101160006FF309028A6503E0086820F0FF008865D4
:10117000886D70471000024010040240E4B7000878
:1011800010B502682B4C0368A34222D0294C1434BA
:101190000368A3421DD0274C28340368A34218D00B
:1011A000244C3C340368A34213D0224C50340368CF
:1011B000A3420ED01F4C64340368A34209D01D4CD7
:1011C00078340368A34204D01A4C8C340368A342D9
:1011D00001D1012300E000238BB10378083B1424E4
:1011E000B3FBF4F1144B03EB81030366124B803322
:1011F000436601F01F040123A340836618E00378CF
:10120000103B1824B3FBF4F10C4B9A4204D80B4B5F
:10121000A83B9A4200D30831094B03EB81030366D4
:10122000074B8033436601F01F040123A34083660C
:1012300010BD00000854025800580258B80402407B
:10124000000802400179A9B3082940D8204B026860
:101250009A4222D01E4B143302689A421DD01C4B76
:10126000283302689A4218D0194B3C3302689A42DC
:1012700013D0174B503302689A420ED0144B64338C
:1012800002689A4209D0124B783302689A4204D01D
:101290000F4B8C3302689A4201D1012200E00022F8
:1012A0004AB14A1E0B4B03EB8202C266094A403226
:1012B000026708E00BE04A1E074B03EB8202C2669E
:1012C000054A403202674A1E012393404367704734
:1012D00008540258005902580009024001460020F3
:1012E0008A69D2B98A6A32B1012A0DD0022A03D0A2
:1012F000032A10D10EE000BFCA6A02F08072B2F178
:10130000807F00D1012007E0CA6AB2F1C07F00D11E
:10131000012001E000E000BF36E08A69B2F5005F1D
:101320001BD18A6A32B1012A07D0022A03D0032ACC
:1013300011D10AE000BF01200EE0CA6A02F08072FB
:10134000B2F1807F00D1012006E0CA6AB2F1C07F0D
:1013500000D1012000E000BF16E08A6A32B1012A04
:1013600005D0022A04D0032A0CD103E000BF00BF3D
:10137000012008E0CA6A02F08072B2F1807F00D1D9
:10138000012000E000BF00BF70470000F0B5856D90
:10139000846D984F0668BE4270D0964F1837066825
:1013A000BE426BD0934F30370668BE4266D0914F35
:1013B00048370668BE4261D08E4F60370668BE422D
:1013C0005CD08C4F78370668BE4257D0894F903733
:1013D0000668BE4252D0874FA8370668BE424DD03D
:1013E000854F0668BE4249D0834F18370668BE4213
:1013F00044D0814F30370668BE423FD07E4F4837D9
:101400000668BE423AD07C4F60370668BE4235D08F
:10141000794F78370668BE4230D0774F90370668EC
:10142000BE422BD0744FA8370668BE4226D0734FF9
:101430000668BE4222D0714F14370668BE421DD0E6
:101440006E4F28370668BE4218D06C4F3C3706688E
:10145000BE4213D0694F50370668BE420ED0674F68
:1014600064370668BE4209D0644F78370668BE42CA
:1014700004D0624F8C370668BE4201D1012600E0DD
:1014800000263EB1D0E919767E60C66E16B1D0E96D
:101490001C767E60574F0668BE4249D0554F1837BC
:1014A0000668BE4244D0534F30370668BE423FD034
:1014B000504F48370668BE423AD04E4F60370668F4
:1014C000BE4235D04B4F78370668BE4230D0494FC8
:1014D00090370668BE422BD0464FA8370668BE42FA
:1014E00026D0454F0668BE4222D0434F18370668C3
:1014F000BE421DD0404F30370668BE4218D03E4F26
:1015000048370668BE4213D03B4F60370668BE427C
:101510000ED0394F78370668BE4209D0364F903723
:101520000668BE4204D0344FA8370668BE4201D1D7
:10153000012600E00026DEB190F85C6006F01F078F
:101540003F26BE40AE600668366826F480260768EF
:101550003E60066873608668402E04D10668B260FB
:101560000668F16044E00668B1600668F2603FE03A
:10157000224F0668BE4222D0204F14370668BE4272
:101580001DD01E4F28370668BE4218D01B4F3C376F
:101590000668BE4213D0194F50370668BE420ED0BF
:1015A000164F64370668BE4209D0144F7837066874
:1015B000BE4204D0114F8C370668BE4201D10126CD
:1015C00000E00026A6B190F85C6006F01F07012637
:1015D000BE406660066873608668402E04D1066867
:1015E000B2600668F16003E00668B1600668F26008
:1015F000F0BD0000100002401004024008540258E0
:10160000704772B600BFFEE710B501F001037BB171
:10161000134BDB6823F4E663114CE36042F00403F0
:1016200043EA002343F08003E46823430C4CE36067
:1016300001F00203022B12D10A4B1B6823F4E6636C
:10164000074CC4F80C3142F0040343EA002343F092
:101650008003D4F80C412343014CC4F80C3110BD75
:10166000002000520C21005201F00302032A1BD17A
:10167000234AD26822F03002214BDA60214A1268F4
:1016800022F03002C3F80C211A46D2680243DA6015
:101690001A46D2F80C210243C3F80C211A4692696B
:1016A00042F010029A6129E001F0010272B1144A7D
:1016B000D26822F03002124BDA601A46D268024336
:1016C000DA601A46D26842F08802DA6001F002025B
:1016D000022A13D10B4A126822F03002084BC3F8D9
:1016E0000C211A46D2F80C210243C3F80C211A46E9
:1016F000D2F80C2142F08802C3F80C217047000098
:10170000002000520C2100522DE9F04107460E4600
:101710000424002502F0D6FA8046022E00D1344C73
:101720000BE0781C48B102F0CDFAA0EB0800B842FB
:1017300000D817B90320BDE8F0812E482040A04210
:1017400008D12D4800692040A04201D101200DE0C0
:1017500000200BE02948006824F00041084024F0F4
:101760000041884201D1012000E000200028D8D1AA
:10177000012E05D120480069214900EA010505E054
:101780001E4800681F49084040F0004525F0004011
:1017900090B11D48806928431B498861154828403D
:1017A000A84202D11448456104E025F000401349E5
:1017B000091D08600120BEE7012E0AD10E4800690C
:1017C00000F48030B0F5803F0FD130040A49486101
:1017D0000BE00A48006800F48030B0F5803F04D187
:1017E0004FF480300549091D08600020A3E7000080
:1017F000040000800F00EF1F002000521021005253
:101800000000EE170000EE975C29002410B5034697
:10181000D1E9000440EA04200C8940EA04400C7B32
:1018200040EA0460DC68D860002010BD10B50346B3
:10183000D1E9000440EA04200C8940EA04400C7B12
:1018400040EA04609C689860002010BD10B5024614
:10185000486840F008008B681843CB6818430B6950
:1018600018434B6940EA43208B6940EA43301368D0
:10187000024C234018431060002010BD8901F0FF86
:1018800072B600BFFEE770B503460C4600201F216C
:1018900000BF0D1EA1F1010106D001F01F060125B8
:1018A000B5402540002DF4D08AB1082A0BD0102A6B
:1018B00005D0182A0CD1072900D301200AE00829F5
:1018C00000D3012006E0102900D3012002E001E04E
:1018D000012000BF00BF40B91D686C611D68AD6884
:1018E00025F0180515431E68B56070BD2DE9F0415F
:1018F00004460E4617464FF0000802206077206825
:10190000806840F0010021688860206A012810D0BA
:10191000022815D003281AD1002504E056F8250026
:10192000216808606D1CBD42F8D32068D0F80080A3
:101930000EE03A4631462046FFF74BFB804607E073
:101940003A4631462046FFF725FB804600E000BFBF
:1019500000BF012060774046BDE8F08110B5044625
:101960000CB9012010BD607F20B9002020772046EF
:1019700000F036F802206077207948B917482168CE
:1019800048612068806820F018002168886007E0BE
:101990002046D4E90212FFF776FF08B10120E1E703
:1019A000607920B94FF0FF302168086102E02168BA
:1019B000206908612068806820F060006169084340
:1019C000216888602068806820F08000A169084351
:1019D00021688860012060770020C3E7B71DC1043B
:1019E00008B5094A016891420DD100BF074909684D
:1019F00041F40021054A11601146096801F40021F3
:101A0000009100BF00BF08BD004C0258E0440258DE
:101A10002DE9F041044602F055F9804614B9012041
:101A2000BDE8F08194F83500022808D08020606578
:101A300000BF002084F8340000BF0120F0E7FE4919
:101A40002068884249D0FC4918312068884244D037
:101A5000F9493031206888423FD0F7494831206841
:101A600088423AD0F44960312068884235D0F24942
:101A700078312068884230D0EF4990312068884220
:101A80002BD0ED49A8312068884226D0EB49206848
:101A9000884222D0E9491831206888421DD0E749A0
:101AA00030312068884218D0E449483120688842A3
:101AB00013D0E2496031206888420ED0DF49783186
:101AC0002068884209D0DD4990312068884204D0DE
:101AD000DA49A8312068884201D1012000E00020C5
:101AE00068B12068006820F01E0021680860206846
:101AF000406920F0800021684861256806E0206880
:101B0000006820F00E00216808602568CA49206836
:101B1000884270D0C8491831206888426BD0C649C5
:101B200030312068884266D0C349483120688842F5
:101B300061D0C1496031206888425CD0BE497831AB
:101B40002068884257D0BC4990312068884252D0E2
:101B5000B949A831206888424DD0B84920688842E8
:101B600049D0B64918312068884244D0B349303151
:101B7000206888423FD0B1494831206888423AD035
:101B8000AE4960312068884235D0AC497831206850
:101B9000884230D0A9499031206888422BD0A7498B
:101BA000A8312068884226D0A5492068884222D0E2
:101BB000A3491431206888421DD0A14928312068EA
:101BC000884218D09E493C312068884213D09C49F5
:101BD0005031206888420ED099496431206888428B
:101BE00009D0974978312068884204D094498C31D3
:101BF0002068884201D1012000E0002028B1206E39
:101C0000006820F48070216E08608B49206888424B
:101C100049D0894918312068884244D086493031FA
:101C2000206888423FD084494831206888423AD0B1
:101C3000814960312068884235D07F4978312068F9
:101C4000884230D07C499031206888422BD07A4934
:101C5000A8312068884226D078492068884222D05E
:101C600076491831206888421DD074493031206887
:101C7000884218D0714948312068884213D06F4992
:101C80006031206888420ED06C49783120688842E3
:101C900009D06A4990312068884204D06749A83148
:101CA0002068884206D12068006820F00100216881
:101CB000086005E02068006820F0010021680860E5
:101CC00011E001F0FFFFA0EB080005280BD9202050
:101CD0006065032084F8350000BF002084F83400DC
:101CE00000BF01209CE6286800F001000028E8D130
:101CF00051492068884249D04F49183120688842AC
:101D000044D04D493031206888423FD04A4948315B
:101D1000206888423AD0484960312068884235D0EE
:101D2000454978312068884230D043499031206855
:101D300088422BD04049A8312068884226D03F49AC
:101D40002068884222D03D491831206888421DD041
:101D50003A4930312068884218D0384948312068E3
:101D6000884213D035496031206888420ED033490B
:101D700078312068884209D0304990312068884203
:101D800004D02E49A8312068884201D1012000E00A
:101D9000002040B1A66D94F85C0000F01F013F20C8
:101DA0008840B06007E0A76D94F85C0000F01F0168
:101DB00001208840786020492068884276D01E49FA
:101DC00018312068884271D01B4930312068884220
:101DD0006CD0194948312068884267D01649603173
:101DE0002068884262D014497831206888425DD0EA
:101DF000114990312068884258D00F49A831206895
:101E0000884253D00D49206888424FD00B49183181
:101E1000206888424AD0094930312068884245D03C
:101E2000064948312068884240D004496031206822
:101E300088423BD0014905E01000024010040240F6
:101E4000085402587831206888422FD025492068EC
:101E500088422BD0234918312068884226D0224955
:101E60002068884222D020491431206888421DD041
:101E70001D4928312068884218D01B493C31206810
:101E8000884213D018495031206888420ED0164934
:101E900064312068884209D013497831206888422B
:101EA00004D011498C312068884201D1012000E022
:101EB000002068B1D4E919104860E06E40B1E06ECE
:101EC000006820F48070E16E0860D4E91C1048605E
:101ED000012084F8350000BF002084F8340000BFE2
:101EE00000BF9DE5A00402400854025870B50446A6
:101EF0000CB9012070BD94F83500022803D0802071
:101F000060650120F6E7DC492068884249D0DA495B
:101F100018312068884244D0D7493031206888423F
:101F20003FD0D5494831206888423AD0D249603103
:101F30002068884235D0D04978312068884230D036
:101F4000CD499031206888422BD0CB49A8312068F8
:101F5000884226D0C9492068884222D0C749183112
:101F6000206888421DD0C54930312068884218D089
:101F7000C24948312068884213D0C0496031206886
:101F800088420ED0BD4978312068884209D0BB49CB
:101F900090312068884204D0B849A831206888422E
:101FA00001D1012000E00020F0B3042084F83500C6
:101FB000B149206888424BD0AF4918312068884227
:101FC00046D0AD4930312068884241D0AA494831D5
:101FD000206888423CD0A84960312068884237D0C8
:101FE000A54978312068884232D0A34990312068D1
:101FF00088422DD0A049A8312068884228D09F4926
:102000002068884224D09D491831206888421FD01A
:102010009A493031206888421AD09849483120685E
:10202000884215D0954900E020E060312068884260
:102030000ED0924978312068884209D08F4990317A
:102040002068884204D08D49A8312068884206D192
:102050002068006820F001002168086009E120681C
:10206000006820F001002168086002E12068006833
:1020700020F00E00216808607F492068884249D01E
:102080007D4918312068884244D07B49303120682E
:1020900088423FD078494831206888423AD0764912
:1020A00060312068884235D0734978312068884291
:1020B00030D071499031206888422BD06E49A831C8
:1020C0002068884226D06D492068884222D06B491A
:1020D0001831206888421DD0684930312068884214
:1020E00018D0664948312068884213D0634960316E
:1020F000206888420ED0614978312068884209D032
:102100005E4990312068884204D05C49A83120683B
:10211000884206D12068006820F00100216808602C
:1021200005E02068006820F001002168086052493D
:102130002068884270D050491831206888426BD09E
:102140004D4930312068884266D04B49483120687B
:10215000884261D048496031206888425CD0464955
:1021600078312068884257D04349903120688842AE
:1021700052D04149A831206888424DD03F4920685B
:10218000884249D03D4918312068884244D03B49B3
:102190003031206888423FD0384948312068884231
:1021A0003AD0364960312068884235D03349783199
:1021B0002068884230D031499031206888422BD045
:1021C0002E49A8312068884226D02D4920688842AF
:1021D00022D02B491431206888421DD0284928314B
:1021E0002068884218D026493C312068884213D0A4
:1021F00023495031206888420ED02149643120683B
:10220000884209D01E4978312068884204D01C4990
:102210008C312068884201D1012000E00020D8B133
:10222000206E006820F48070216E0860A56D94F81F
:102230005C0000F01F01012088406860D4E919109B
:102240004860E06E40B1E06E006820F48070E16E9E
:102250000860D4E91C104860012084F8350000BFF4
:10226000002084F8340000BF206D10B12046216D9D
:10227000884700203EE600001000024010040240A3
:10228000085402582DE9F84F044600200090FE48FB
:1022900000684FF41651B0FBF1FAA66DD4F85880DF
:1022A0003768D8F80090F9492068884249D0F74942
:1022B00018312068884244D0F4493031206888427F
:1022C0003FD0F2494831206888423AD0EF49603126
:1022D0002068884235D0ED4978312068884230D076
:1022E000EA499031206888422BD0E849A83120681B
:1022F000884226D0E6492068884222D0E449183135
:10230000206888421DD0E24930312068884218D0C8
:10231000DF4948312068884213D0DD4960312068A8
:1023200088420ED0DA4978312068884209D0D849ED
:1023300090312068884204D0D549A831206888426D
:1023400001D1012000E0002000287DD094F85C003D
:1023500000F01F01082088403840002868D0CB4991
:102360002068884249D0C94918312068884244D041
:10237000C6493031206888423FD0C449483120687E
:1023800088423AD0C14960312068884235D0BF497F
:1023900078312068884230D0BC499031206888422A
:1023A0002BD0BA49A8312068884226D0B849206885
:1023B000884222D0B6491831206888421DD0B449DD
:1023C00030312068884218D0B149483120688842AD
:1023D00013D0AF496031206888420ED0AC497831C3
:1023E0002068884209D0AA4990312068884204D0E8
:1023F000A749A8312068884204D12068006800F00D
:10240000040003E02068006800F0080080B1206844
:10241000006820F004002168086094F85C0000F077
:102420001F0108208840B060606D40F001006065C9
:1024300094F85C0000F01F01012088403840E8B3A8
:1024400092492068884200E0B7E24BD08F491831AA
:102450002068884246D08D4930312068884241D07A
:102460008A494831206888423CD0884960312068D8
:10247000884237D0854978312068884232D08349F4
:102480009031206888422DD08049A8312068884248
:1024900028D07F492068884224D07D49183120689F
:1024A00088421FD07A493031206888421AD0784952
:1024B00048312068884215D0754900E026E0603137
:1024C000206888420ED0724978312068884209D04D
:1024D0006F4990312068884204D06D49A831206846
:1024E000884204D12068406900F0800002E0206842
:1024F0000068002050B194F85C0000F01F0101203A
:102500008840B060606D40F00200606594F85C0047
:1025100000F01F01042088403840E8B35B49206880
:1025200088424BD0594918312068884246D05749D3
:1025300030312068884241D054494831206888426F
:102540003CD0524960312068884237D04F497831B9
:102550002068884232D04D499031206888422DD081
:102560004A49A8312068884228D0494920688842D1
:1025700024D047491831206888421FD0444930315F
:10258000206888421AD0424948312068884215D0D4
:102590003F496031206800E024E088420ED03C4989
:1025A00078312068884209D03949903120688842C2
:1025B00004D03749A8312068884204D120680068D7
:1025C00000F0020002E020680068002050B194F89A
:1025D0005C0000F01F0104208840B060606D40F096
:1025E0000400606594F85C0000F01F011020884032
:1025F0003840E8B325492068884251D02349183132
:10260000206888424CD0214930312068884247D028
:102610001E4948312068884242D01C4960312068F8
:1026200088423DD0194978312068884238D017490E
:1026300090312068884233D01449A83120688842FC
:102640002ED01349206888422AD0114918312068B9
:10265000884225D00E4930312068884220D00C496C
:102660004831206888421BD009496031206800E069
:102670004DE0884214D006497831206888420FD056
:1026800003499031206805E09400002410000240C6
:1026900010040240884203D0FE492068884204D1D9
:1026A0002068006800F0080003E02068006800F07F
:1026B000040060B394F85C0000F01F011020884013
:1026C000B0602068006800F4802080B12068006855
:1026D00000F4002028B9206CC8B12046216C88473E
:1026E00015E0A06C98B12046A16C88470FE02068E7
:1026F000006800F4807028B92068006820F00800A5
:1027000021680860206C10B12046216C884794F83D
:102710005C0000F01F0120208840384000287DD058
:10272000DD492068884249D0DB4918312068884259
:1027300044D0D9493031206888423FD0D649483109
:10274000206888423AD0D44960312068884235D028
:10275000D14978312068884230D0CF499031206803
:1027600088422BD0CC49A8312068884226D0C9495C
:10277000A8392068884221D0C6499039206888420B
:102780001CD0C44978392068884217D0C1496039C3
:102790002068884212D0BF494839206888420DD04D
:1027A000BC4930392068884208D0BA4918392068B5
:1027B000884203D0B7492068884204D12068006865
:1027C00000F0100003E02068006800F0020028B369
:1027D00094F85C0000F01F0120208840B06094F85D
:1027E000350004282DD12068006820F016002168EB
:1027F00008602068406920F0800021684861206CF2
:1028000008B9A06C28B12068006820F00800216891
:10281000086094F85C0000F01F0100E03FE03F20FA
:102820008840B060012084F8350000BF002084F8A3
:10283000340000BF206D10B12046216D8847BDE8EF
:10284000F88F2068006800F4802080B1206800685C
:1028500000F4002028B9606C08B32046616C8847FA
:102860001DE0E06BD8B12046E16B884717E0206897
:10287000006800F4807068B92068006820F01000DB
:1028800021680860012084F8350000BF002084F82A
:10289000340000BFE06B10B12046E16B8847606DEB
:1028A00000287AD0606D00F00100E8B3042084F8BD
:1028B00035007949206888424BD077491831206823
:1028C000884246D0744930312068884241D07249EC
:1028D0004831206888423CD06F4960312068884286
:1028E00037D06D4978312068884232D06A499031BA
:1028F000206888422DD06849A8312068884228D0B5
:102900006449A8392068884223D0624990392068F8
:1029100088421ED05F4978392068884219D05D49C5
:1029200060392068884200E040E012D059494839B7
:10293000206888420DD0574930392068884208D035
:10294000544918392068884203D052492068884287
:1029500006D12068006820F001002168086005E0C9
:102960002068006820F001002168086000BF00981E
:10297000401C0090504500D905E02068006800F038
:1029800001000028F3D100BF2068006800F00100BA
:1029900020B1032084F8350003E00DE0012084F825
:1029A000350000BF002084F8340000BFE06C002830
:1029B00002D02046E16C8847D9E138492068884236
:1029C00022D036491431206888421DD0334928313D
:1029D0002068884218D031493C312068884213D0A1
:1029E0002E495031206888420ED02C49643120682D
:1029F000884209D0294978312068884204D0274983
:102A00008C312068884201D1012000E0002000289C
:102A1000D2D02068056894F85C0000F01F01042003
:102A2000884000EA0900D8B305F00400C0B394F868
:102A30005C0000F01F0104208840C8F8040005F481
:102A4000004080B105F4803030B9A06C0028B3D0CC
:102A50002046A16C88478AE1206C0028ACD0204633
:102A6000216C884783E105F02000E8BB0A49206813
:102A7000884253D008491831206888424ED0064910
:102A800030312068884249D0034948312068884263
:102A900044D006E0B8040240100002400854025836
:102AA0004FE0B44960312068884237D0B14978316D
:102AB0002068884232D0AF499031206888422DD0BA
:102AC000AC49A8312068884228D0AB4920688842A8
:102AD00024D0A9491831206888421FD0A649303136
:102AE000206888421AD000E025E0A34948312068D8
:102AF000884213D0A0496031206888420ED09E4998
:102B000078312068884209D09B49903120688842FA
:102B100004D09949A8312068884206D1206800680D
:102B200020F008002168086005E02068006820F0B7
:102B3000040021680860206C10B32046216C88478F
:102B400015E194F85C0000F01F010220884000EAC3
:102B50000900E8B305F00200D0B394F85C0000F07F
:102B60001F0102208840C8F8040005F4004070B13D
:102B700005F4803028B9606C10B12046616C88473C
:102B8000F5E0E06BF0B32046E16B8847EFE005F03D
:102B90002000C0BB7749206888424ED07549183163
:102BA0002068884249D0734930312068884244D037
:102BB00070494831206888423FD06E4960312068B2
:102BC00088423AD06B4978312068884235D000E09D
:102BD0004EE068499031206888422ED06549A8317E
:102BE0002068884229D064492068884225D06249FB
:102BF00018312068884220D05F49303120688842EF
:102C00001BD001E06EE02DE05B494831206888422E
:102C100013D059496031206888420ED05649783126
:102C20002068884209D0544990312068884204D0F5
:102C30005149A8312068884206D12068006820F0F8
:102C400014002168086005E02068006820F00A0090
:102C500021680860012084F8350000BF002084F856
:102C6000340000BFE06BE8B32046E16B88477EE0AC
:102C700094F85C0000F01F010820884000EA090079
:102C800080B305F0080068B33A49206888424BD009
:102C9000384918312068884246D03649303120689A
:102CA000884241D033494831206888423CD031497C
:102CB00060312068884237D02E49783120688842B8
:102CC00032D02C499031206888422DD02949A83132
:102CD0002068884228D028492068884224D0264984
:102CE000183100E043E0206888421DD0224930318D
:102CF0002068884218D0204948312068884213D083
:102D00001D496031206888420ED01B497831206807
:102D1000884209D0184990312068884204D0164969
:102D2000A8312068884206D12068006820F01C0085
:102D30002168086005E02068006820F00E00216826
:102D4000086094F85C0000F01F0101208840C8F87A
:102D500004000120606584F8350000BF002084F87D
:102D6000340000BFE06C10B12046E16C884700BF22
:102D700065E5000010000240100402402DE9F0411A
:102D8000044600F09FFF804614B90120BDE8F081A1
:102D9000FE492068884249D0FC49183120688842A1
:102DA00044D0FA493031206888423FD0F749483151
:102DB000206888423AD0F54960312068884235D091
:102DC000F24978312068884230D0F049903120684B
:102DD00088422BD0ED49A8312068884226D0EC49A2
:102DE0002068884222D0EA491831206888421DD0E4
:102DF000E74930312068884218D0E54948312068D9
:102E0000884213D0E2496031206888420ED0E04900
:102E100078312068884209D0DD49903120688842A5
:102E200004D0DB49A8312068884201D1012000E0AC
:102E30000020002873D0606A00B100BF022084F82F
:102E4000350000BF002084F8340000BFCF4920685F
:102E5000884249D0CD4918312068884244D0CB49B6
:102E60003031206888423FD0C849483120688842C4
:102E70003AD0C64960312068884235D0C34978319C
:102E80002068884230D0C1499031206888422BD0D8
:102E9000BE49A8312068884226D0BD4920688842B2
:102EA00022D0BB491831206888421DD0B849303142
:102EB0002068884218D0B64948312068884213D02B
:102EC000B3496031206888420ED0B149783120681A
:102ED000884209D0AE4990312068884204D0AC497C
:102EE000A8312068884206D12068006820F00100DF
:102EF0002168086005E02068006820F00100216872
:102F000008600DE000F0DEFEA0EB0800052807D900
:102F100020206065032084F83500012036E76AE050
:102F20002068006800F001000028EBD120680568E7
:102F300098480540D4E902010843216908436169C2
:102F40000843A1690843E1690843216A084305432E
:102F5000606A042803D1D4E90B01084305438E4875
:102F600000686FF30F00B0F1005F1DD3606829287F
:102F700002D360682E2811D960683F2802D36068A8
:102F800042280BD96068472802D36068482805D9D1
:102F900060684F2804D36068522801D8012000E0FF
:102FA000002008B145F48015206805602068456957
:102FB00025F00705606A0543606A04280DD1A06A00
:102FC0000543E06A48B12046FEF788F928B1402061
:102FD0006065012084F83500D8E620684561204608
:102FE000FEF758F8064694F85C0000F01F013F20F9
:102FF0008840B0609EE069492068884222D06749D5
:103000001431206888421DD06449283120688842E4
:1030100018D062493C312068884213D05F49503152
:10302000206888420ED05D4964312068884209D00A
:103030005A4978312068884204D058498C31206838
:10304000884201D1012000E00020E0B3534920680C
:10305000884222D051491431206888421DD04F49FE
:1030600028312068884218D04C493C312068884279
:1030700013D04A495031206888420ED04749643104
:103080002068884209D0454978312068884204D0B8
:1030900042498C312068884201D1012000E00020A3
:1030A00000B100BF022084F8350000BF002084F882
:1030B000340000BF2068056839480540A0684028F2
:1030C00002D1102106E02EE0A068802801D1C101C4
:1030D00000E00021E06841EAD001206941EAD00126
:1030E000606941EAD001A06941EAD001E06941EAA2
:1030F000D001206A41EA1010054320680560274985
:103100002068401A1421B0FBF1F08000E0652046F1
:10311000FDF7C0FF074694F85C0000F01F01012096
:103120008840786006E040206065032084F8350020
:1031300001202BE61549206888427FD013491831B9
:10314000206888427AD0114930312068884275D091
:103150000E4948312068884270D00C49603120689F
:1031600088426BD0094978312068884266D0074987
:1031700090312068884261D00449A8312068884293
:103180005CD003492068884258D00BE01000024010
:10319000100402403F8010FE0010005C08540258EA
:1031A0000F00FEFF3B4918312068884246D039495C
:1031B00030312068884241D0364948312068884201
:1031C0003CD0344960312068884237D03149783169
:1031D0002068884232D02F499031206888422DD013
:1031E0002C49A8312068884228D02B492068884281
:1031F00024D029491431206888421FD0264928311B
:10320000206888421AD024493C312068884215D071
:10321000214950312068884210D01F49643120680C
:1032200088420BD01C4978312068884206D01A4960
:103230008C312068884200E000E001D1012000E0EC
:10324000002000B32046FDF79BFFA068802801D135
:10325000002060602079216E0860D4E91910486070
:10326000606860B16068082809D82046FDF7EAFF69
:103270000020E16E0860D4E91C10486003E00020E3
:10328000E0662067606700206065012084F83500F3
:1032900000207BE510040240085402582DE9F0415B
:1032A00004460D4616461F464FF0000814B901208B
:1032B000BDE8F08100BF94F83400012801D102205C
:1032C000F6E7012084F8340000BF94F835000128A7
:1032D0007ED1022084F8350000206065E449206832
:1032E000884249D0E24918312068884244D0E049F8
:1032F0003031206888423FD0DD494831206888421B
:103300003AD0DB4960312068884235D0D8497831DD
:103310002068884230D0D6499031206888422BD02E
:10332000D349A8312068884226D0D24920688842F3
:1033300022D0D0491831206888421DD0CD49303183
:103340002068884218D0CB4948312068884213D081
:10335000C8496031206888420ED0C649783120685B
:10336000884209D0C34990312068884204D0C149BD
:10337000A8312068884206D12068006820F001004A
:103380002168086005E02068006820F001002168DD
:1033900008603B46324629462046FDF7F7FFB44910
:1033A000206888424BD0B24918312068884246D004
:1033B000AF4930312068884241D0AD49483120685A
:1033C00088423CD0AA4960312068884237D000E06A
:1033D00042E1A74978312068884230D0A449903131
:1033E000206888422BD0A249A8312068884226D084
:1033F000A0492068884222D09E491831206888421E
:103400001DD09C4930312068884218D099494831F4
:103410002068884213D097496031206888420ED0D6
:10342000944978312068884209D0924990312068C7
:10343000884204D08F49A8312068884201D10120F8
:1034400000E0002080B12068006820F01E0040F0FD
:10345000160021680860206CB0B12068006840F058
:103460000800216808600FE02068006820F00E0066
:1034700040F00A0021680860206C28B120680068CC
:1034800040F004002168086079492068884270D0C3
:1034900077491831206888426BD0754930312068EF
:1034A000884266D0724948312068884261D07049AC
:1034B0006031206888425CD06D497831206888424C
:1034C00057D06B4990312068884252D06849A83162
:1034D000206888424DD067492068884249D06549B4
:1034E00018312068884244D06249303120688842CF
:1034F0003FD060494831206888423AD05D49603108
:103500002068884235D05B4978312068884230D0C5
:1035100058499031206888422BD05649A8312068FC
:10352000884226D054492068884222D0524914311A
:10353000206888421DD0504928312068884218D020
:103540004D493C312068884213D04B4950312068A6
:1035500088420ED0484964312068884209D04649E3
:1035600078312068884204D043498C3120688842F1
:1035700001D1012000E0002090B1206E006800F42D
:10358000803028B1206E006840F48070216E0860A1
:10359000E06E28B1E06E006840F48070E16E086073
:1035A00033492068884249D031491831206888421F
:1035B00044D02F493031206888423FD02C494831CF
:1035C000206888423AD02A4960312068884235D044
:1035D000274978312068884230D0254990312068C9
:1035E00088422BD02249A8312068884226D0214920
:1035F0002068884222D01F491831206888421DD097
:103600001C4930312068884218D01A494831206856
:10361000884213D017496031206888420ED015497E
:1036200078312068884209D0124990312068884258
:1036300004D01049A8312068884206D1206800686B
:1036400040F001002168086010E02068006840F048
:1036500001002168086009E04FF40060606500BF68
:10366000002084F8340000BF4FF0010840461FE6F8
:1036700010000240100402400854025870B504467D
:1036800000F020FB06462546681C10B1044800786F
:10369000054400BF00F016FB801BA842FAD370BDA2
:1036A000900000242DE9F04104460E46002700BF9B
:1036B0004848007D012802D10220BDE8F0810120A8
:1036C0004449087500BF00208861207900F001009E
:1036D00030B101214CF25030FEF716F800B101274D
:1036E000207900F00200022806D102214CF250306D
:1036F000FEF70AF800B10127002F63D120680128E6
:1037000028D161682069FDF7AFFF207900F0010042
:1037100060B101214CF25030FDF7F6FF00B10127F6
:103720002D48C06820F008002B49C860207900F0BF
:103730000200022846D102214CF25030FDF7E4FF8E
:1037400000B101272548006820F008002249C1F88F
:103750000C0137E04FF0FF303060A5682CE02846C0
:1037600022696168FDF750FF207900F0010060B127
:1037700001214CF25030FDF7C7FF07461648C068DC
:1037800040F2047188431449C860207900F00200B7
:1037900002280DD102214CF25030FDF7B5FF07464B
:1037A0000E48006840F2047188430B49C1F80C01CF
:1037B0000FB1356005E06D1CD4E902100844A84241
:1037C000CDD800BF00BF00200249087500BF3846B1
:1037D00073E700005C290024002000520C210052F5
:1037E0000E48C06840F001000C49C8600846C06837
:1037F00000F0010008B9012070470948006840F056
:1038000001000649C1F80C010548006800F00100FC
:1038100008B90120F0E70020EEE700000020005288
:103820000C2100522DE9F05F83460C461746A04656
:10383000B9464FF0080A00BF4248007D012802D176
:103840000220BDE8F09F01203E49087500BFB4F199
:10385000006F04D3B4F1016F01D2012509E0B4F186
:10386000016F04D3B4F1026F01D2022501E00120FF
:10387000E7E700203349886129464CF25030FDF7D4
:1038800043FF0646002E55D1012D06D12E48C068B3
:1038900040F002002C49C86006E02C48006840F067
:1038A00002002949C1F80C0100BF00BF00BFBFF3EF
:1038B0006F8F00BF00BF00BF00BF00BF00BFBFF3DE
:1038C0004F8F00BF00BF00BF00BFD9F80000C8F88D
:1038D000000008F1040809F10409AAF1010000F050
:1038E000FF0ABAF1000FF0D100BF00BF00BFBFF365
:1038F0006F8F00BF00BF00BF00BF00BF00BFBFF39E
:103900004F8F00BF00BF00BF29464CF25030FDF77B
:10391000FBFE0646012D06D10B48C06820F00200D0
:103920000949C86006E00948006820F0020006491D
:10393000C1F80C0100BF00200249087500BF3046E5
:103940007FE700005C290024002000520C21005277
:103950001348C06800F0010058B11248104948608F
:10396000114848600846C06800F0010008B1012015
:1039700070470E48006800F0010070B109480B491B
:103980000839086008480649C1F80401074800687A
:1039900000F0010008B10120EAE70020E8E700009C
:1039A0000020005223016745AB89EFCD0C21005266
:1039B00000B5B5B0142130A8FCF7D4FC3748006836
:1039C00008B135B000BD012034490860BC2101A810
:1039D000FCF7C8FC4FF0807001900020129001A805
:1039E00001F066FC08B1FDF70CFE00BF2C48006832
:1039F00040F480502A4908600846006800F480506E
:103A0000009000BF00BF4FF4F06030900220319072
:103A100000203290032033900C20349030A92148AC
:103A200000F046F84FF4C050309002203190002052
:103A300032900320339030A91B4800F039F84CF243
:103A400033003090022031900020329003203390D8
:103A50000C20349030A9144800F02AF84FF48070FC
:103A600030900220319000203290032033900920C2
:103A7000349030A90D4800F01BF84020309002200F
:103A8000319001203290032033900C20349030A9E3
:103A9000054800F00DF800BF93E700000000002487
:103AA000D444025800100258000C02580008025872
:103AB000F8B502460B4600216F4DD7E001278F4035
:103AC0001E6806EA0704002C72D01E7906F0030671
:103AD000012E04D01E7906F00306022E13D1906841
:103AE0004F000326BE40B0434F00DE68BE40304367
:103AF0009060506801268E40B0431E79C6F30016D0
:103B00008E40304350601E7906F00306032E09D024
:103B1000D0684F000326BE40B0434F009E68BE40B1
:103B20003043D0601E7906F00306022E13D1CF0871
:103B300002F1200656F827004E07F70E0F26BE406A
:103B4000B0434F07FF0E1E69BE403043CF0802F15D
:103B5000200646F8270010684F000326BE40B043F9
:103B60001E7906F003064F00BE40304310605E68C9
:103B700006F44036002E78D000BF404E366846F03E
:103B800002063E4F3E603E46366806F0020600964C
:103B900000BF00BF3A4E8F0856F827008E07370F38
:103BA0000F26BE40B043374EB24202D100262EE06F
:103BB0005BE0354EB24201D1012628E0334EB242DD
:103BC00001D1022623E0324EB24201D103261EE08B
:103BD000304EB24201D1042619E02F4EB24201D13B
:103BE000052614E02D4EB24201D106260FE02C4EE0
:103BF000B24201D107260AE02A4EB24201D108267C
:103C000005E0294EB24201D1092600E00A268F07BD
:103C10003F0FBE4030431A4E8F0846F827004FF042
:103C2000B0463068A0435E6806F4801606B12043B3
:103C30004FF0B04630607068A0435E6806F400162E
:103C400006B120434FF0B04670606868A0435E68DC
:103C500006F4003606B1204368602868A0435E6819
:103C600006F4803606B120432860491C1E68CE4009
:103C7000002E7FF423AFF8BD80000058F4440258B2
:103C800008040058000002580004025800080258B6
:103C9000000C025800100258001402580018025874
:103CA000001C025800200258002402580AB1816109
:103CB00001E00B048361704701480068000C704705
:103CC0000010005C01480068704700008800002474
:103CD00003480068034909780844014908607047AF
:103CE000880000249000002410B5032000F0CCFAD6
:103CF00002F06AFA10490968C1F303210F4A515CC6
:103D000001F01F0120FA01F40B48006800F00F00D9
:103D10001146085C00F01F0024FA00F00849086012
:103D200008480460002000F00FF808B1012010BD21
:103D300000F010FA0020FAE71844025814B80008FE
:103D4000980000249400002470B5044611480078BF
:103D500008B9012070BD0F4800784FF47A71B1FBAB
:103D6000F0F00D490968B1FBF0F5284603F011FAAF
:103D700008B10120EEE7102C07D200222146501E88
:103D800000F045FA0548046001E00120E2E7002068
:103D9000E0E7000090000024940000248C00002440
:103DA000014609B90120704791F83D00022803D06F
:103DB000802088660120F6E7042081F83D0008682D
:103DC000C06820F001000A68D0600020EBE730B541
:103DD000034600240BB9012030BD00BF93F83C001E
:103DE000012801D10220F7E7012083F83C0000BF41
:103DF00093F83D00012819D11868006900F080404F
:103E000090B9186801631868426331B9186800698D
:103E100020F000401D68286109E01868006940F042
:103E200000401D68286102E0012400E0012400BF79
:103E3000002083F83C0000BF2046CDE7F8B50446DB
:103E400000200090744800684FF41651B0FBF1F662
:103E5000208800F5F860C0F38411012000FA01F712
:103E60004FF0A4400068384000B9F8BD20680068F1
:103E700000F00100B8B32068C06800F0020090B301
:103E80002068C06820F002002168C860206885684A
:103E900005F0800020B9A06E40F00100A06603E0AC
:103EA000A06E40F00200A06605F4007018B1A06E8C
:103EB00040F00400A06605F4807018B1A06E40F0D8
:103EC0000800A06605F4806018B1A06E40F01000F4
:103ED000A06605F4006018B1A06E40F02000A06656
:103EE0000120216848602068006800F0100060B17F
:103EF0002068C06800F0200038B1102021684860B8
:103F0000A06C10B12046A16C88472068006800F0C2
:103F1000080060B12068C06800F0100038B10820C7
:103F200021684860E06C10B12046E16C8847206849
:103F3000006800F0040060B12068C06800F008006C
:103F400038B1042021684860206D10B12046216DF1
:103F500088472068006800F0020060B32068C068ED
:103F600000F0040038B32068C06820F03E002168EB
:103F7000C86094F83D0004280DD100BF002084F8EB
:103F80003C0000BF012084F83D00A06D10B1204628
:103F9000A16D884769E702202168486000BF0020C2
:103FA00084F83C0000BF012084F83D00606C10B133
:103FB0002046616C8847A06E60B3042084F83D0001
:103FC0002068C06820F001002168C86000BF009828
:103FD000401C0090B04200D905E02068C06800F0A5
:103FE00001000028F3D100BF00BF002084F83C008E
:103FF00000BF2068C06800F0010018B1032084F8F9
:104000003D0002E0012084F83D00606D10B12046C3
:10401000616D884700BF28E79400002470B504460E
:10402000FFF750FE05460CB9012070BD00BF00200F
:1040300084F83C0000BF022084F83D002068C0687E
:1040400020F001002168C8600BE0FFF73BFE401B39
:10405000052806D94020A066032084F83D000120F1
:10406000E3E72068C06800F001000028EDD1204699
:1040700004F0CCF90020E06520666066A0660120AF
:1040800084F83D000020D0E72DE9F84304460D46B2
:1040900016461F46DDF8208014B90120BDE8F883DC
:1040A00000BF94F83C00012801D10220F6E701206E
:1040B00084F83C0000BF94F83D00012841D1022063
:1040C00084F83D000020A0662068C06820F0010050
:1040D0002168C8603B46324629462046CDF800801C
:1040E00004F0F6F92068C06840F006002168C86056
:1040F000E06C28B12068C06840F010002168C860FA
:10410000206D28B12068C06840F008002168C860B0
:10411000A06C28B12068C06840F020002168C86009
:104120002068C06840F001002168C8606068B0F194
:10413000804F0DD12068C06840F480302168C8608D
:1041400006E000BF002084F83C0000BF0220A5E785
:104150000020A3E708B500BF0648006840F0020051
:10416000044908600846006800F00200009000BFA3
:1041700000BF08BDF444025870B504460E4615460B
:104180000CB9012070BD94F8210028B9002084F8F2
:104190002000204600F022F8211D2068FDF756FB84
:1041A0003146D4E90002FDF741FB2946D4E900027B
:1041B000FDF72CFB2068006840F0040021680860CF
:1041C0000548006840F0004003490860012084F879
:1041D00021000020D6E700000040005210B5044640
:1041E000FFF7E6FB10BD0146084600280DDB00BFC7
:1041F00000BF00F01F0301229A4043099B0003F116
:10420000E023C3F8002100BF00BF00BF70472DE9C5
:10421000F05F80460D46164606F048FF07463946D1
:104220002A46334601F00700C0F1070ABAF1040F2D
:1042300002D94FF0040A01E0C0F1070AD14600F1AB
:10424000040ABAF1070F02D24FF0000A01E0A0F110
:10425000030AD4464FF0010A0AFA09FAAAF1010A40
:104260000AEA020A0AFA0CFA4FF0010B0BFA0CFBED
:10427000ABF1010B0BEA030B4AEA0B042146404663
:1042800006F01CFFBDE8F09F00BF00F00702064BE0
:1042900019684FF6FF031940044B0B4343EA022110
:1042A000014B196000BF70470CED00E00000FA05FB
:1042B00070B5044615480068C0F3800048B913483B
:1042C000006800F00700A04201D0012070BD00206E
:1042D000FCE70E48006820F0070020430B49086007
:1042E000FFF7F0FC054607E0FFF7ECFC401BB0F5DC
:1042F0007A7F01D90120E9E7044808380068C0F353
:1043000040300028F0D00020E0E700000C480258C0
:104310007047000070B50446002594F8410000F095
:10432000020000283ED000BF002084F8400000BFFB
:10433000082084F841002068006820F4F810216803
:1043400008602068006800F0040098B120680068E8
:1043500020F00400216808601348E16B8865E06B79
:10436000FFF71EFDF0B1012084F841002046FFF761
:10437000CFFF17E020688068C0F3401078B10220BA
:104380002168C8602068006840F400302168086037
:104390002068006840F002002168086002E0012007
:1043A00084F84100284670BD8B8C00082DE9F84345
:1043B00004460E461546FFF785FC8046B06900B1FD
:1043C00000BFF06900B100BF306A00B100BF00BF9C
:1043D00094F84000012802D10220BDE8F8830120B2
:1043E00084F8400000BF94F8410001283DD100202E
:1043F0006064422084F84100A06C434600222021E2
:104400000090204604F0F8FE07464FBB286821685C
:104410008862686821684862A8682168C862D5E92E
:10442000040108432168096821F440010843216818
:10443000086009202168C860E868B0624FF0006237
:104440003146204604F02DFB00BF002084F84000D8
:1044500000BF2068006840F41020216808600AE06E
:1044600000BF002084F8400005E0022700BF0020C4
:1044700084F8400000BF3846AFE7000002490978E1
:10448000491C014A11707047820000242DE9F8434D
:1044900004460D461746FFF715FC8046A86900B193
:1044A00000BFE86900B100BF286A00B100BF00BFCB
:1044B00094F84000012802D10220BDE8F8830120D1
:1044C00084F8400000BF94F84100012828D1002062
:1044D0006064022084F841004346002220212046E7
:1044E000009704F089FE0646DEB9002229462046E0
:1044F00004F0D7FA686A78B94346012202212046BF
:10450000009704F079FE06465EB902202168C86073
:10451000012084F8410004E0012084F8410000E01B
:10452000022600BF002084F8400000BF3046C4E7E8
:10453000F8B504460D46FFF7C5FB0746A86900B16C
:1045400000BFE86900B100BF286A00B100BF00BF2A
:1045500094F84000012801D10220F8BD012084F820
:10456000400000BF94F84100012833D1002060646E
:10457000022084F84100A06C3B46002220210090DC
:10458000204604F039FE0646FEB9686A10B90320D9
:104590002168C86000222946204604F082FA686A31
:1045A00058B900BF002084F8400000BF20680068B0
:1045B00040F440302168086012E0012084F8410096
:1045C00000BF002084F840000AE000BF002084F80B
:1045D000400005E0022600BF002084F8400000BF34
:1045E0003046BAE7704770472DE9F041044620682D
:1045F00086682068076806F00400002848D007F4A1
:104600008020002844D0206800F1200594F8410063
:1046100012281AD112E0E06A48B1606A0078287066
:10462000606A401C6062E06A401EE06206E020684A
:10463000006820F480202168086005E02068806818
:10464000C0F380000028E6D11EE094F84100222843
:104650001AD112E0A06B48B12878216B0870206B4A
:10466000401C2063A06B401EA06306E02068006829
:1046700020F480202168086005E020688068C0F38D
:1046800080000028E6D100BF2046FFF7ACFFE8E03D
:1046900006F0020000287DD007F40030002879D011
:1046A00002202168C8602068006820F4E0202168AA
:1046B000086094F84100122819D12068006800F0C1
:1046C000040068B12068006820F0040021680860D8
:1046D000E06B0068C06820F00100E16B0968C86009
:1046E000012084F84100204600F098FBB9E094F8DE
:1046F0004100222832D12068006800F0040070B127
:104700002068006820F0040021680860E06B006801
:10471000C06820F00100E16B0968C86017E02068FC
:1047200000F120050CE0A06B48B12878216B0870DF
:10473000206B401C2063A06B401EA06300E005E0DE
:104740002068806800F47C500028ECD100BF012074
:1047500084F84100204600F09BFA82E094F8410082
:10476000022806D1012084F841002046FFF786FE8A
:1047700077E094F84100082873D12068406920F060
:10478000406021684861012084F84100606C28B9CC
:10479000204600E006E0FFF7BBFD62E02046FFF7A1
:1047A00021FF5EE006F00800B8B107F40020A0B1D8
:1047B00008202168C8602068006800F4800040B1CB
:1047C0002068006820F4102021680860012084F827
:1047D0004100204600F066FA43E006F0010098B37D
:1047E00007F4803080B301202168C8602068006829
:1047F00020F4702021680860606C40F00200606462
:104800002068006800F00400B8B12068006820F05B
:104810000400216808601448E16B8865E06BFFF7CD
:10482000BFFAF0B1606C40F004006064012084F8CD
:1048300041002046FFF7D6FE13E0012084F8410036
:104840002046FFF7CFFE0CE0FFE706F0100040B176
:1048500007F4801028B110202168C860204600F0BD
:1048600029FABDE8F08100008B8C0008F8B50446F9
:10487000FFF728FA06460CB90120F8BD206A402847
:1048800000D000BF94F8410038B9204600F046F847
:1048900041F28831204600F003FA2068006820F4D5
:1048A0007061A068401E41EA002021680860A06C89
:1048B0003346002220210090204604F09DFC05464E
:1048C00035BB2179E06840EA0160E1690843216A6B
:1048D0000843216809680F4A1140084321680860AD
:1048E000208A616941EA0040A1690843216849685A
:1048F000094A11400843216848602068006840F078
:1049000001002168086000206064012084F84100F3
:104910002846B2E72FFFFF00FEF8E0FF10B5B6B063
:104920000446142131A8FBF71DFDBC2102A8FBF7AA
:1049300019FD7149206888427ED100BF6F48006828
:1049400040F001006D4908600846006800F0010071
:10495000019000BF00BF4FF0007002901020149033
:1049600002A800F0A5FC08B1FCF74BFE00BF6348AD
:10497000006840F48040614908600846006800F41F
:104980008040019000BF00BF00BF5C480C30006851
:1049900040F0100059490C3108600846006800F0EA
:1049A0001000019000BF00BF00BF0846006840F043
:1049B000010008600846006800F00100019000BF97
:1049C00000BF00BF0846006840F0020008600846CB
:1049D000006800F00200019000BF00BF00BF084661
:1049E000006840F0040008600846006800F0040019
:1049F000019000BF00BF04203190022032900020BF
:104A00003390032034900920359031A93C48FFF7BA
:104A10004FF80220319032900020339003203490E0
:104A20000920359031A93748FFF742F8042031902A
:104A300002203290002000E05BE0339003203490AD
:104A40000920359031A93048FFF732F84FF4C060A3
:104A500031900220329000203390032034900920BE
:104A6000359031A92948FFF723F8402031900220E2
:104A7000329000203390032034900A20359031A9E1
:104A80002148FFF715F8224822490860162048609F
:104A9000002120488160C021C16000210161022104
:104AA000416100218161C16101624FF00071416289
:104AB000802181620021C162016341638163FFF74C
:104AC000ADFA08B1FCF79DFD002211461148FFF731
:104AD0007EF908B1FCF795FD00BF0E48E063046461
:104AE00000BF002211465C20FFF791FB5C20FFF71E
:104AF0007AFB36B010BD000000500052D44402587A
:104B00000010025800000258000402580008025821
:104B100080000052500100242DE9F84304460D4660
:104B20000026206887692068006900F1010800BF3D
:104B300094F84000012802D10220BDE8F88301204A
:104B400084F8400000BF94F8410001287BD1002088
:104B50006064002D78D0C4F83880222084F84100A9
:104B600003202168C860A06B606325634648E16B41
:104B700048644648E16B48650020E16B8865E06B5E
:104B80000068006940F203318843E16B09680861FD
:104B9000E06B006A58B9E06B0068006940F60C41B0
:104BA000884340F00800E16B0968086124E0E06B8D
:104BB000006A40280BD1E06B0068006940F60C41A8
:104BC000884340F48160E16B0968086114E0E06BA0
:104BD000006A80280BD1E06B0068006940F60C4148
:104BE000884300F60800E16B0968086104E0606C26
:104BF00040F00400606401262068406920F04060B5
:104C000040F0806021684861206887610120009041
:104C1000636B226802F120012A46E06BFFF734FA49
:104C200098B900BF002084F8400000BF20680068E9
:104C300040F48030216808602068006840F004007B
:104C4000216808601EE017E00CE00126606C40F06F
:104C500004006064012084F8410000BF002084F853
:104C600040000FE0606C40F008006064012600BF67
:104C7000002084F8400005E0022600BF002084F8F0
:104C8000400000BF304658E7F58C0008CD8C000886
:104C900002490978491C014A1170704783000024B9
:104CA0008164704702490978491C014A11707047B4
:104CB0008500002470470000F8B504460D46002624
:104CC00020680069471C00BF94F84000012801D10A
:104CD0000220F8BD012084F8400000BF94F8410094
:104CE000012875D100206064002D72D0E762122087
:104CF00084F8410003202168C860E06AA062656210
:104D00002068406920F04060216848614148E16BBB
:104D100048644148E16B48650020E16B8865E06BC1
:104D20000068006940F60C418843E16B096808613E
:104D3000E06BC06950B9E06B0068006940F2033174
:104D40008843801CE16B0968086124E0E06BC0695E
:104D500010280BD1E06B0068006940F203318843F2
:104D600040F48170E16B0968086114E0E06BC06990
:104D700020280BD1E06B0068006940F203318843C2
:104D800000F20220E16B0968086104E0606C40F009
:104D900004006064012601200090A36A216801F1EB
:104DA00020022946E06BFFF76FF998B900BF002099
:104DB00084F8400000BF2068006840F4803021681B
:104DC00008602068006840F00400216808601EE068
:104DD00017E00CE00126606C40F0040060640120E4
:104DE00084F8410000BF002084F840000FE0606CB0
:104DF00040F008006064012600BF002084F84000F5
:104E000005E0022600BF002084F8400000BF3046C5
:104E10005FE700000B8D0008CD8C0008024909787F
:104E2000491C014A117070478400002410B501F03C
:104E300081F905490968C1F30211044A515C01F086
:104E40001F01C84010BD00002044025814B80008DB
:104E500070B50146844D2D6805F00303824D2D6821
:104E6000C5F30530804D2D1D2D68C5F300147E4D12
:104E700014352D68C5F3CC0515FB04F501EE105A69
:104E8000B8EE411AF0EE410A00286FD023B1012B91
:104E90004ED0022B6BD16BE0734D283D2D68C5F3CE
:104EA00040153DB3704D283D2D68C5F3C1066F4DCB
:104EB00025FA06F201EE102AF8EE411A01EE100A68
:104EC000B8EE411A81EE812A9FED691AC0EE811A6F
:104ED000654D10352D68C5F3080501EE105AB8EE82
:104EE000411A31EE811AF7EE001A31EE211A22EE44
:104EF000010A1CE001EE100AB8EE411ADFED5D1A5E
:104F000081EE812A9FED5A1AC0EE811A564D103556
:104F10002D68C5F3080501EE105AB8EE411A31EEBE
:104F2000811AF7EE001A31EE211A22EE010A5BE037
:104F300001EE100AB8EE411ADFED4F1A81EE812A18
:104F40009FED4B1AC0EE811A474D10352D68C5F301
:104F5000080501EE105AB8EE411A31EE811AF7EE4B
:104F6000001A31EE211A22EE010A3DE077E01DE041
:104F700001EE100AB8EE411A9FED402AC2EE011A66
:104F80009FED3B1A80EE812A374D10352D68C5F311
:104F9000080501EE105AB8EE411A32EE011AB7EECA
:104FA000002A31EE021A21EE810A1DE001EE100AFC
:104FB000B8EE411ADFED301A81EE812A9FED2C1AEE
:104FC000C0EE811A284D10352D68C5F3080501EE95
:104FD000105AB8EE411A31EE811AF7EE001A31EE8E
:104FE000211A22EE010A00BF00BF1F4D10352D68A7
:104FF000C5F3462501EE105AB8EE411AF7EE001A35
:1050000031EE211AC0EE011ABCEEE11A81ED001A50
:10501000154D10352D68C5F3064501EE105AB8EE52
:10502000411AF7EE001A31EE211AC0EE011ABCEE59
:10503000E11A81ED011A0C4D10352D68C5F3066596
:1050400001EE105AB8EE411AF7EE001A31EE211AAD
:10505000C0EE011ABCEEE11A81ED021A03E0002550
:105060000D604D608D6070BD284402580090D003E3
:10507000000000460024744C0024744A20BCBE4B3F
:1050800070B50146844D2D6805F00303824D2D68EF
:10509000C5F30550804D2D1D2D68C5F300247E4DB0
:1050A0001C352D68C5F3CC0515FB04F501EE105A2F
:1050B000B8EE411AF0EE410A00286FD023B1012B5F
:1050C0004ED0022B6BD16BE0734D283D2D68C5F39C
:1050D00040153DB3704D283D2D68C5F3C1066F4D99
:1050E00025FA06F201EE102AF8EE411A01EE100A36
:1050F000B8EE411A81EE812A9FED691AC0EE811A3D
:10510000654D18352D68C5F3080501EE105AB8EE47
:10511000411A31EE811AF7EE001A31EE211A22EE11
:10512000010A1CE001EE100AB8EE411ADFED5D1A2B
:1051300081EE812A9FED5A1AC0EE811A564D18351C
:105140002D68C5F3080501EE105AB8EE411A31EE8C
:10515000811AF7EE001A31EE211A22EE010A5BE005
:1051600001EE100AB8EE411ADFED4F1A81EE812AE6
:105170009FED4B1AC0EE811A474D18352D68C5F3C7
:10518000080501EE105AB8EE411A31EE811AF7EE19
:10519000001A31EE211A22EE010A3DE077E01DE00F
:1051A00001EE100AB8EE411A9FED402AC2EE011A34
:1051B0009FED3B1A80EE812A374D18352D68C5F3D7
:1051C000080501EE105AB8EE411A32EE011AB7EE98
:1051D000002A31EE021A21EE810A1DE001EE100ACA
:1051E000B8EE411ADFED301A81EE812A9FED2C1ABC
:1051F000C0EE811A284D18352D68C5F3080501EE5B
:10520000105AB8EE411A31EE811AF7EE001A31EE5B
:10521000211A22EE010A00BF00BF1F4D18352D686C
:10522000C5F3462501EE105AB8EE411AF7EE001A02
:1052300031EE211AC0EE011ABCEEE11A81ED001A1E
:10524000154D18352D68C5F3064501EE105AB8EE18
:10525000411AF7EE001A31EE211AC0EE011ABCEE27
:10526000E11A81ED011A0C4D18352D68C5F306655C
:1052700001EE105AB8EE411AF7EE001A31EE211A7B
:10528000C0EE011ABCEEE11A81ED021A03E000251E
:105290000D604D608D6070BD284402580090D003B1
:1052A000000000460024744C0024744A20BCBE4B0D
:1052B0002DE9F04104460025A846206800F0006072
:1052C000B0F1006F30D1606E48B1B0F5801F0DD0E5
:1052D000B0F5001F10D0B0F5401F15D113E0F9480C
:1052E000006840F40030F74908600FE00221201DFB
:1052F00003F0B0FF054609E0022104F1240004F0A8
:105300005BF8054602E001E0012500BF00BF55B98A
:10531000EC482430006820F44010616E0843E949ED
:105320002431086000E0A846208800F48070B0F5C1
:10533000807F2DD1606D05281AD2DFE800F0030AC6
:1053400010171800DF48006840F40030DD4908609D
:1053500010E00021201D03F07DFF05460AE000213A
:1053600004F1240004F028F8054603E002E001E01F
:10537000012500BF00BF55B9D2482430006820F095
:105380000700616D0843CF492431086000E0A8465A
:10539000208800F40070B0F5007F33D1A06D802824
:1053A00017D003DC40B140281CD10CE0C02817D036
:1053B000B0F5807F16D114E0C248006840F4003098
:1053C000C049086010E00021201D03F043FF05469E
:1053D0000AE0002104F1240003F0EEFF054603E09B
:1053E00002E001E0012500BF00BF55B9B5482430F7
:1053F000006820F4E070A16D0843B24924310860D0
:1054000000E0A846208800F48060B0F5806F38D1B5
:10541000D4F8A400B0F5800F19D004DC50B1B0F579
:10542000001F1DD10DE0B0F5C00F17D0B0F5000F73
:1054300016D114E0A348006840F40030A149086088
:1054400010E00021201D03F005FF05460AE00021C1
:1054500004F1240003F0B0FF054603E002E001E0A0
:10546000012500BF00BF5DB996482C30006820F4CC
:105470006000D4F8A410084392492C31086000E081
:10548000A846208800F40060B0F5006F38D1D4F849
:10549000A800B0F1007F19D004DC50B1B0F1807FDA
:1054A0001DD10DE0B0F1407F17D0B0F1806F16D163
:1054B00014E08448006840F400308249086010E03D
:1054C0000021201D03F0C6FE05460AE0002104F17C
:1054D000240003F071FF054603E002E001E001252E
:1054E00000BF00BF5DB977482C30006820F0E06055
:1054F000D4F8A810084373492C31086000E0A8468E
:10550000206800F00070B0F1007F27D1A06CA0B13E
:10551000102804D0202809D030280FD10CE0694889
:10552000006840F400306749086009E00221201D4E
:1055300003F090FE054603E002E001E0012500BF14
:1055400000BF55B95F482030006820F03000A16CE2
:1055500008435C492031086000E0A846208800F438
:105560008050B0F5805F36D1E06DB0F5005F19D0A6
:1055700004DC50B1B0F5805F1DD10DE0B0F5405FA7
:1055800017D0B0F5804F16D114E04E48006840F4B3
:1055900000304C49086010E00021201D03F05AFE45
:1055A00005460AE0002104F1240003F005FF05464A
:1055B00003E002E001E0012500BF00BF55B941480A
:1055C0002430006820F4E040E16D08433D49243177
:1055D000086000E0A846208800F40050B0F5005FA5
:1055E00034D1206EB0F5403F1DD007DC68B1B0F576
:1055F000803F0BD0B0F5003F18D10DE0B0F5802F03
:1056000012D0B0F5A02F11D10FE011E00121201D23
:1056100003F020FE05460BE0012104F1240003F015
:10562000CBFE054604E003E002E001E0012500BFF7
:1056300000BF55B923482430006820F4E020216ED3
:10564000084320492431086000E0A846208800F47F
:105650008040B0F5804F38D1D4F8AC00B0F1405F55
:105660001DD007DC68B1B0F1805F0BD0B0F1005FF6
:1056700018D10DE0B0F1804F12D0B0F1A04F11D190
:105680000FE011E00121201D03F0E4FD05460BE0D1
:10569000012104F1240003F08FFE054604E003E03D
:1056A00002E001E0012500BF00BF6DB905482C30C4
:1056B000006820F0E040D4F8AC10084301492C31D8
:1056C000086002E02C440258A846208800F40040FC
:1056D000B0F5004F26D1E06E98B1B0F1805F03D0F5
:1056E000B0F1005F0ED106E0F948006840F40030E8
:1056F000F749086008E00121201D03F0ABFD0546D5
:1057000002E001E0012500BF00BF55B9F048243098
:10571000006820F04050E16E0843ED4924310860F4
:1057200000E0A846206800F08070B0F1807F27D1AB
:10573000606CA0B1012804D0022809D003280FD141
:105740000CE0E348006840F40030E149086009E0FB
:105750000221201D03F07EFD054603E002E001E08A
:10576000012500BF00BF55B9D9482030006820F09E
:105770000300616C0843D6492031086000E0A84668
:10578000206800F48000B0F5800F7DD1D14800681A
:1057900040F48070CF490860FEF794FA064606E0B0
:1057A000FEF790FA801B642801D9032505E0C9485B
:1057B000006800F480700028F2D000BF85BBC448A8
:1057C0004430006800F44070B4F8B01001F4407147
:1057D000884213D0BE484430006820F44077BC486B
:1057E0004430006840F48030B949443108600846CC
:1057F000006820F48030086008460760D4F8B000E4
:10580000B0F5807F15D1FEF75DFA064609E0FEF798
:1058100059FA801B41F28831884202D9032507E0FA
:1058200038E0AB4844300068C0F340000028EED0B8
:1058300000BF55BB00BFB4F8B00000F44070B0F535
:10584000407F0ED1A2481C38006820F47C51A24A47
:10585000D4F8B000104041EA10109D491C3908608E
:1058600007E09B481C38006820F47C5098491C399C
:105870000860974844300068B4F8B010C1F30B01D9
:1058800008439349443101E005E001E0086002E08B
:10589000A84600E0A846207800F0010068B3A06F99
:1058A000182819D005DC48B1082808D0102816D1CE
:1058B0000BE0202811D0282811D10FE011E00121A0
:1058C000201D03F0C7FC05460BE0012104F1240074
:1058D00003F072FD054604E003E002E001E001256B
:1058E00000BF00BF55B97A482830006820F0380062
:1058F000A16F084376492831086000E0A846207867
:1059000000F00200022828D1606F062815D2DFE8D7
:1059100000F003040A11121311E00121201D03F00D
:1059200099FC05460BE0012104F1240003F044FD3D
:10593000054604E003E002E001E0012500BF00BFEE
:1059400055B963482830006820F00700616F0843AC
:105950005F492831086000E0A846207800F0040084
:1059600004282AD1D4F89000062815D2DFE800F0E8
:1059700003040A11121311E00121201D03F06AFC37
:1059800005460BE0012104F1240003F015FD054656
:1059900004E003E002E001E0012500BF00BF5DB9C3
:1059A0004B482C30006820F00700D4F890100843D2
:1059B00047492C31086000E0A846207800F020001C
:1059C000202836D1D4F88C00B0F1405F1DD007DC20
:1059D00068B1B0F1805F0BD0B0F1005F18D10DE07D
:1059E000B0F1804F12D0B0F1A04F11D10FE011E013
:1059F0000021201D03F02EFC05460BE0022104F1DE
:105A0000240003F0D9FC054604E003E002E001E0D5
:105A1000012500BF00BF5DB92D482830006820F087
:105A2000E040D4F88C10084329492831086000E090
:105A3000A846207800F04000402836D1D4F89800DD
:105A4000B0F5406F1DD007DC68B1B0F5806F0BD0AA
:105A5000B0F5006F18D10DE0B0F5805F12D0B0F551
:105A6000A05F11D10FE011E00021201D03F0F2FB37
:105A700005460BE0022104F1240003F09DFC0546DD
:105A800004E003E002E001E0012500BF00BF5DB9D2
:105A90000F482C30006820F4E050D4F898100843E8
:105AA0000B492C31086000E0A846207800F0800007
:105AB00080283AD1D4F89C00B0F5C04F23D00DDC3B
:105AC00098B1B0F5005F11D0B0F5804F1ED113E052
:105AD0002C44025800480258FFFCFF0FB0F5004F5D
