:020000040800F2
:10000000B8400024B1020008AF630008BF5D0008DB
:10001000AD6300086D060008AD7D0008000000001B
:10002000000000000000000000000000C76D000894
:10003000250B000800000000B1630008C96D00082E
:10004000CB020008CB020008CB020008CB0200085C
:10005000CB020008CB020008CB020008CB0200084C
:10006000CB020008CB020008CB0200087106000892
:100070007D06000889060008CB020008CB020008B4
:10008000CB020008CB020008CB020008CB0200081C
:10009000CB020008CB020008CB020008CB0200080C
:1000A000CB020008CB020008CB020008CB020008FC
:1000B000CB020008CB020008CB020008CB020008EC
:1000C000CB020008CB020008CB020008D56C000868
:1000D000CB020008297D0008CB020008CB020008F3
:1000E000CB020008CB020008000000005D6F000892
:1000F000756F0008696F0008CB020008CB0200088A
:10010000CB020008CB020008CB020008CB0200089B
:10011000CB020008CB020008CB020008CB0200088B
:10012000CB020008CB020008CB020008CB0200087B
:10013000CB020008CB020008CB020008CB0200086B
:1001400000000000000000000000000000000000AF
:10015000CB020008CB020008CB020008CB0200084B
:10016000CB020008CB020008CB020008CB0200083B
:10017000CB020008CB020008CB0200080000000000
:10018000CB020008CB020008CB020008CB0200081B
:10019000CB020008CB020008CB020008CB0200080B
:1001A000CB020008CB020008CB020008CB020008FB
:1001B000816A0008CB020008CB020008CB020008CD
:1001C000CB020008CB020008CB020008CB020008DB
:1001D000CB020008CB020008CB020008CB020008CB
:1001E000CB020008CB020008CB020008CB020008BB
:1001F000CB020008CB020008CB020008CB020008AB
:10020000CB020008CB020008CB020008CB0200089A
:10021000CB020008CB020008CB020008CB0200088A
:10022000CB020008CB020008C15D000800000000FE
:10023000CB020008CB02000800000000CB0200083F
:10024000CB020008CB020008CB020008CB0200085A
:10025000CB020008CB020008CB020008CB0200084A
:10026000CB020008CB020008CB020008CB0200083A
:10027000CB020008CB020008CB02000800000000FF
:10028000CB020008CB020008CB02000800000000EF
:1002900000000000CB020008DFF810D000F08EF85C
:1002A00000480047E97F0008AFF30080B840002411
:1002B0000648804706480047FEE7FEE7FEE7FEE700
:1002C000FEE7FEE7FEE7FEE7FEE7FEE7816E0008D9
:1002D000990200082DE9F05F0546002092469B46F2
:1002E00088460646814640241BE02846414647464C
:1002F000224600F053F853465A46C01A914110D393
:1003000011461846224600F03AF82D1A67EB01080C
:100310004F4622460120002100F031F817EB00097A
:100320004E41201EA4F10104DFDC484631462A4636
:100330004346BDE8F09F40EA01039B0703D009E074
:1003400008C9121F08C0042AFAD203E011F8013BC1
:1003500000F8013B521EF9D27047D2B201E000F81A
:10036000012B491EFBD270470022F6E710B5134659
:100370000A4604461946FFF7F0FF204610BD202A22
:1003800004DB203A00FA02F1002070479140C2F1EC
:10039000200320FA03F3194390407047202A04DB1E
:1003A000203A21FA02F00021704721FA02F3D040EE
:1003B000C2F120029140084319467047064C074D90
:1003C00006E0E06840F0010394E807009847103425
:1003D000AC42F6D3FFF764FFAC800008CC80000885
:1003E00010B58318B3F1026F01D9012010BD0AB115
:1003F000002306E0012010BD10F8014B01F8014B6D
:100400005B1C9342F8D3002010BD000070B52B494F
:10041000884252D12A482B49006888423AD029495B
:100420001831884236D027493031884232D02549A8
:10043000483188422ED02349603188422AD0214950
:100440007831884226D01F499031884222D01D49F8
:10045000A83188421ED01C4988421BD01A49183145
:10046000884217D018493031884213D01649483194
:1004700088420FD01449603188420BD0124978313C
:10048000884207D010499031884203D00E49A831E4
:10049000884201D1406800E040680C4CA18E0D1AE2
:1004A000E08F291A8AB2216B014404F1140007F08D
:1004B00069FDE587012004F80B0C70BDD40300240E
:1004C0006404002410000240100402407808002454
:1004D0000649884208D10168CA69D243D20603D4CA
:1004E00010220A62FFF792BF70470000D403002475
:1004F00010B50446204607F023FC2168086840F048
:100500001000086021681020086210BD70B5054613
:100510000B4C2078012812D0B4F84820201D616CC3
:1005200007F0F3FC82B2002A09D0012020700548B0
:10053000854204D1616CBDE8704005F0EBBB70BD35
:100540006C080024D403002410B5084988420CD15B
:10055000074CA188E089091A8AB221680144A4F1F4
:100560001C0007F00FFD0020E08110BDD403002423
:10057000A808002470B52A4988424FD129482A4941
:10058000006888423AD028491831884236D0264936
:100590003031884232D02449483188422ED0224915
:1005A000603188422AD020497831884226D01E49BD
:1005B0009031884222D01C49A83188421ED01B4964
:1005C00088421BD019491831884217D01749303159
:1005D000884213D01549483188420FD01349603101
:1005E00088420BD011497831884207D00F499031A9
:1005F000884203D00D49A831884201D1406800E00B
:1006000040680B4DA9880C1AE889211A8AB229681A
:100610000144A5F11C0007F0B5FCEC8170BD0000A1
:10062000D40300246404002410000240100402409B
:10063000A80800240349884202D103490020087019
:1006400070470000D40300246C08002410B5054B4B
:10065000984204D1044807F095FC80B210BD0020F8
:1006600010BD0000D403002470080024FEE7000041
:10067000014800F02BBE00002C020024014800F0CD
:1006800025BE000064040024014800F01FBE0000E5
:10069000DC04002410B52C4A016891423AD02A4A61
:1006A0001832914236D0284A3032914232D0264A0E
:1006B000483291422ED0244A603291422AD0224AB6
:1006C0007832914226D0204A9032914222D01E4A5E
:1006D000A83291421ED01D4A91421BD01B4A1832AB
:1006E000914217D0194A3032914213D0174A4832FA
:1006F00091420FD0154A603291420BD0134A7832A2
:10070000914207D0114A9032914203D00F4AA83249
:10071000914214D1CAB2103A1823B2FBF3F20C4C36
:1007200002F00703E35CC365032A04D96FF30901F0
:10073000091D816506E06FF30901816502E021F082
:10074000FF018165806D10BD100002401004024061
:100750006C80000810B501680123224CCAB2A14286
:100760001BD0204C1434A14217D01E4C2834A14277
:1007700013D01C4C3C34A1420FD01A4C5034A1422F
:100780000BD0184C6434A14207D0164C7834A142E7
:1007900003D0144C8C34A1420FD1083A1421B2FB7F
:1007A000F1F1114A02EB810202660F4A8032426681
:1007B00001F01F018B40836610BD103A1824B2FB74
:1007C000F4F20A4C2144A82900D80832084901EB68
:1007D0008201016606498031416602F01F018B40AB
:1007E000836610BD0854025800580258F0FBFDBF44
:1007F000000802400279521E072A31D8194B0168BD
:1008000099421BD0174B1433994217D0154B2833FC
:10081000994213D0134B3C3399420FD0114B5033B4
:1008200099420BD00F4B6433994207D00D4B78336C
:10083000994203D00B4B8C33994207D10A4901EB03
:100840008201C16608494031016706E0074901EBB2
:100850008201C1660549403101670121914041672C
:10086000704700000854025800590258000902401D
:10087000014610B500208B694FF0C0748A6A002BC6
:100880000ED0B3F5005F1AD062B3012A2AD0022A33
:1008900028D0032A03D1C96AC90100D5012010BD9F
:1008A0001AB1012A06D0022AF9D1C96AC901F6D5BE
:1008B000012010BDC96AA142FBD1012010BD52B177
:1008C000012A0AD0022A06D0032AF7D1C96AA14216
:1008D000F4D1012010BD012010BDC96AC901FBD5AA
:1008E000012010BD012010BD2DE9F04F856D8A4E0D
:1008F000894FDFF824C2A836DFF81C82DFF818928F
:100900000CF1180CDFF810A208F13008DFF808B27B
:1009100009F1480904680AF1600A0BF1780BBC423E
:100920006DD064456BD0444569D04C4567D0544583
:1009300065D05C4563D0DFF8E0E10EF1900E7445C0
:100940005DD0B4425BD0DFF8D4E1744557D0DFF816
:10095000CCE10EF1180E744551D0DFF8C0E10EF174
:10096000300E74454BD0DFF8B4E10EF1480E7445FB
:1009700045D0DFF8A8E10EF1600E74453FD0DFF8F6
:100980009CE10EF1780E744539D0DFF890E10EF15C
:10099000900E744533D0DFF884E10EF1A80E744553
:1009A0002DD0DFF87CE1744529D0DFF874E10EF139
:1009B000140E744523D0DFF868E10EF1280E74455B
:1009C0001DD0DFF85CE10EF13C0E744517D0DFF866
:1009D00050E10EF1500E744511D0DFF844E10EF1F4
:1009E000640E74450BD0DFF838E10EF1780E7445D3
:1009F00005D0DFF82CE10EF18C0E744509D1D0E959
:100A000019E4CEF80440C46E1CB1D0E91CE4CEF861
:100A100004400468BC422ED064452CD044452AD002
:100A20004C4528D0544526D05C4524D03A4F9037C9
:100A3000BC4220D0B4421ED0384EB4421BD0374EF8
:100A40001836B44217D0354E3036B44213D0334E38
:100A50004836B4420FD0314E6036B4420BD02F4EE0
:100A60007836B44207D02D4E9036B44203D02B4E88
:100A7000A836B4421BD190F85C4004F01F063F2416
:100A8000B440AC600468256825F4802525600468BE
:100A900063608368402B05D0036899600068C2607A
:100AA000BDE8F08F03689A600068C160F8E71C4EEB
:100AB000B4421BD01A4E1436B44217D0184E283602
:100AC000B44213D0164E3C36B4420FD0144E5036BA
:100AD000B4420BD0124E6436B44207D0104E783672
:100AE000B44203D00E4E8C36B442D9D190F85C405B
:100AF00004F01F060124B4406C60046863608368DE
:100B0000402B04D0036899600068C260C8E703689E
:100B10009A600068C160C3E7100002401004024000
:100B200008540258704772B6FEE7D1E9002342EA42
:100B300003220B89097B1B0443EA01610A43C16854
:100B4000C26000207047D1E9002342EA03220B89EA
:100B5000097B1B0443EA01610A438168826000202B
:100B60007047000010B5D1E901231A43D1E90334DD
:100B700023431A434B69896942EA432242EA4131DD
:100B80000268044B1A40114341F008010160002043
:100B900010BD00008901F0FF72B6FEE7F0B5054612
:100BA00000201F2301275B1E5C1C05D003F01F06DD
:100BB00007FA06F40C42F6D032B1082A17D0102AF0
:100BC00011D0182A0BD00120002807D12B685961B9
:100BD00029688B6823F0180313438B60F0BD072B43
:100BE000F2D30120F0E7082BEED30120ECE7102B25
:100BF000EAD30120E8E7000010B50446002C02D03B
:100C0000607F10B106E0012010BD00202077204653
:100C100000F032F802206077207938B1D4E902126E
:100C20002046FFF7BBFF48B1012010BD21681148E5
:100C300048612068816821F0180181606079A0B165
:100C400021682069086120688168626921F060017B
:100C50001143816020688168A26921F080011143FD
:100C6000816001206077002010BD21684FF0FF30C7
:100C70000861E8E7B71DC10408B500680649884265
:100C800008D10648016841F400210160006800F4C1
:100C90000020009008BD0000004C0258E0440258BB
:100CA0002DE9F84F044601F0F9FB00905CB194F88F
:100CB0003500022809D080206065002084F83400C7
:100CC0000120BDE8F88F0120FBE7D14ED04FD0497D
:100CD0001836DFF83C833037DFF83493DFF830A381
:100CE00008F14808DFF828B309F1600920680AF123
:100CF000780A0BF1900B88422ED0B0422CD0B8422B
:100D00002AD0404528D0484526D0504524D05845C3
:100D100022D0BF4AA83290421ED0BE4A90421BD079
:100D2000BC4A1832904217D0BA4A3032904213D09F
:100D3000B84A483290420FD0B64A603290420BD047
:100D4000B44A7832904207D0B24A9032904203D0EF
:100D5000B04AA83290420AD1026822F01E02026014
:100D60002068426922F080024261256804E002683E
:100D700022F00E0202602568206888424DD0B04201
:100D80004BD0B84249D0404547D0484545D0504562
:100D900043D0584541D09E4AA83290423DD09D4A0A
:100DA00090423AD09B4A1832904236D0994A30321B
:100DB000904232D0974A483290422ED0954A6032C3
:100DC00090422AD0934A7832904226D0914A90326B
:100DD000904222D08F4AA83290421ED08E4A904232
:100DE0001BD08D4A1432904217D08B4A2832904241
:100DF00013D0894A3C3290420FD0874A50329042F9
:100E00000BD0854A6432904207D0834A78329042B0
:100E100003D0814A8C32904204D1206E026822F4C1
:100E2000807202607A49206888422ED0B0422CD06D
:100E3000B8422AD0404528D0484526D0504524D035
:100E4000584522D07249A83188421ED07149884243
:100E50001BD070491831884217D06E493031884212
:100E600013D06C49483188420FD06A4960318842BA
:100E70000BD068497831884207D066499031884262
:100E800003D06449A831884204D1016821F00101EE
:100E9000016013E0016821F0010101600EE001F042
:100EA000FDFA0099401A052808D920203434206220
:100EB0000320607000202070012002E72868C0072E
:100EC000EDD1534A0121206890422ED0B0422CD05F
:100ED000B8422AD0404528D0484526D0504524D095
:100EE000584522D04A4BA83398421ED0494B9842CD
:100EF0001BD0484B1833984217D0464B303398429A
:100F000013D0444B483398420FD0424B6033984241
:100F10000BD0404B7833984207D03E4B90339842E9
:100F200003D03C4BA833984208D1A06D94F85C30B4
:100F300003F01F053F23AB40836007E0A06D94F8EA
:100F40005C3003F01F0301FA03F343602068904212
:100F50004DD0B0424BD0B84249D0404547D048452B
:100F600045D0504543D0584541D0294AA8329042F7
:100F70003DD0284A90423AD0264A1832904236D084
:100F8000244A3032904232D0224A483290422ED007
:100F9000204A603290422AD01E4A7832904226D0AF
:100FA0001C4A9032904222D01A4AA83290421ED057
:100FB000194A90421BD0184A1432904217D0164A50
:100FC0002832904213D0144A3C3290420FD0124A39
:100FD000503290420BD0104A6432904207D00E4AF1
:100FE0007832904203D00C4A8C3290420BD1D4E933
:100FF00019205060E06E30B1026822F48072026005
:10100000D4E91C205060343461700020207058E610
:101010001000024010040240085402582DE9F05F0D
:10102000002808D090F83510022906D080214165AB
:101030000120BDE8F09F0120FBE7A14AA04BA04C96
:1010400018329F4D30339E4E4834DFF874B260350D
:10105000DFF870C27836DFF86C82DFF868920CF146
:10106000300CDFF860A208F16008016809F1780926
:10107000944F0AF1900A594531D091422FD09942AC
:101080002DD0A1422BD0A94229D0B14227D0DFF8E0
:1010900030E20EF1900E714521D0DFF824E20EF11E
:1010A000A80E71451BD0DFF81CE2AEF1180E714599
:1010B00015D0B94213D0DFF80CE20EF1180E7145CD
:1010C0000DD061450BD0DFF8FCE10EF1480E714503
:1010D00005D0414503D0494501D0514537D14FF0A6
:1010E000040E80F835E0594527D0914225D0994229
:1010F00023D0A14221D0A9421FD0B1421DD07048B7
:101100009030814219D06E48A830814215D06D4888
:101110001838814211D0B9420FD06A481830814244
:101120000BD0614509D067484830814205D0414520
:1011300003D0494501D0514504D1086820F0010091
:101140000860BAE0086820F001000860B5E0D1F856
:1011500000E02EF00E0EC1F800E00168DE465945B1
:1011600031D091422FD099422DD0A1422BD0A9420B
:1011700029D0B14227D0DFF848B10BF1900B594587
:1011800021D0DFF83CB10BF1A80B59451BD0DFF89B
:1011900034B1ABF1180B594515D0B94213D0DFF873
:1011A00024B10BF1180B59450DD061450BD0DFF878
:1011B00014B10BF1480B594505D0414503D04945C1
:1011C00001D0514506D1D1F800B02BF0010BC1F888
:1011D00000B005E0D1F800B02BF0010BC1F800B071
:1011E00001684FF0010B714546D0914244D09942BD
:1011F00042D0A14240D0A9423ED0B1423CD0304A78
:101200009032914238D02E4AA832914234D02D4AA1
:10121000183A914230D0B9422ED02A4A183291421F
:101220002AD0614528D0274A4832914224D04145EE
:1012300022D0494520D051451ED0234A91421BD08F
:10124000214A1432914217D01F4A2832914213D0BA
:101250001D4A3C3291420FD01B4A503291420BD072
:10126000194A6432914207D0174A7832914203D02A
:10127000154A8C32914218D1016E0A6822F48072AC
:101280000A60816D90F85C2002F01F020BFA02F2F6
:101290004A60D0E919215160C16E31B10A6822F467
:1012A00080720A60D0E91C21516080F835B00021BD
:1012B00080F83410016D01B188470020B9E60000C4
:1012C0001000024028040240085402582DE9FF5F34
:1012D0000446002001904FF41651FD480068B0FB11
:1012E000F1F00090A56D2E682968FA4FDFF8E4B39D
:1012F000DFF8E083DFF8DC930BF1180BDFF8D4A301
:1013000008F13008206809F148090AF1600AB8427A
:101310003BD05A46904238D0404536D0484534D02C
:10132000504532D0EB4A783290422ED0E94A903282
:1013300090422AD0E74AA832904226D0E64A90420C
:1013400023D0E54A183290421FD0E34B3033984205
:101350001BD0E14B4833984217D0DFF87CC30CF127
:10136000600C604511D0DFF870C30CF1780C60455B
:101370000BD0DFF864C30CF1900C604505D0DFF8AA
:1013800058E30EF1A80E70457ED194F85C10082346
:1013900001F01F0103FA01F232424BD0B84232D0C1
:1013A000584530D040452ED048452CD050452AD005
:1013B000C8497831884226D0C6499031884222D027
:1013C000C449A83188421ED0C34988421BD0C249B3
:1013D0001831884217D0C0493031884213D0BE49F5
:1013E000483188420FD0BC49603188420BD0BA499D
:1013F0007831884207D0B8499031884203D0B64945
:10140000A831884203D1016801F0040102E00168BB
:1014100001F0080171B1016821F00401016094F844
:101420005C0000F01F0003FA00F2AA60606D40F05B
:101430000100606594F85C00012100F01F0081400C
:10144000314240D02068B84234D0584532D040456F
:1014500030D048452ED050452CD09E4A783290420C
:1014600028D09C4A9032904224D09A4AA832904286
:1014700020D0994A90421DD0974A1832904219D0F4
:10148000954A3032904200E0D2E113D0924A48327D
:1014900090420FD0904A603290420BD08E4A783200
:1014A000904207D08C4A9032904203D08A4AA832A8
:1014B00090427DD1406910F0800F04D0A960606D2A
:1014C00040F00200606594F85C00042100F01F0009
:1014D000814031423ED02068B84232D0584530D0A9
:1014E00040452ED048452CD050452AD0794A7832F4
:1014F000904226D0774A9032904222D0754AA83244
:1015000090421ED0744A90421BD0734A18329042C7
:1015100017D0714A3032904213D06F4A483290420D
:101520000FD06D4A603290420BD06B4A78329042B5
:1015300007D0694A9032904203D0674AA83290425D
:101540004ED1006810F0020F04D0A960606D40F029
:101550000400606594F85C00102100F01F008140D9
:10156000314260D02068B84234D0584532D040452E
:1015700030D048452ED050452CD0564A7832904233
:1015800028D0544A9032904224D0524AA8329042F5
:1015900020D0514A90421DD04F4A1832904219D063
:1015A0004D4A3032904215D04B4A4832904200E0CA
:1015B00014E00FD0484A603290420BD0464A78324D
:1015C000904207D0444A9032904203D0424AA83217
:1015D000904207D1006800F0080006E0006872E75A
:1015E0000068B7E7006800F0040058B1A9602068FF
:1015F000016849030CD50068000304D4216C09B1CB
:10160000204688470FE0A16C69B1204688470AE070
:101610000168C90503D4016821F008010160216C4B
:1016200009B12046884794F85C00202100F01F0093
:10163000814031427BD02068B84232D0584530D00A
:1016400040452ED048452CD050452AD0214A7832EA
:10165000904226D01F4A9032904222D01D4AA83292
:1016600090421ED01C4A90421BD01B4A1832904216
:1016700017D0194A3032904213D0174A483290425C
:101680000FD0154A603290420BD0134A7832904204
:1016900007D0114A9032904203D00F4AA8329042AC
:1016A00003D1006800F0100002E0006800F00200C2
:1016B000E8B3A96094F83500042812D020680168C6
:1016C00049033DD50068000335D4616C79B305E06A
:1016D0008000002410000240100402402046884789
:1016E0003FE02068016821F016010160206841692F
:1016F00021F080014161206C08B9A06C20B1206804
:10170000016821F00801016094F85C0000F01F01FD
:101710003F208840A860012084F83500002084F82C
:101720003400216D002974D004B0204600E018E098
:10173000BDE8F05F0847E16B99B12046884710E0AB
:101740000168C90509D4016821F010010160012078
:1017500084F83500002084F83400E16B09B120469C
:101760008847606D002854D0606DC00758D00420B1
:1017700084F835002068B84231D058452FD0404514
:101780002DD048452BD0504529D0B749884226D086
:10179000B5491831884222D0B349303188421ED031
:1017A000B24988421BD0B1491831884217D0AF499D
:1017B0003031884213D0AD49483188420FD0AB490F
:1017C000603188420BD0A9497831884207D0A749B7
:1017D0009031884203D0A549A831884204D10168DC
:1017E00021F00101016003E0016821F001010160C5
:1017F00021680198009A401C0190904202D8086824
:10180000C007F6D10868C00704D0032084F835006B
:1018100003E087E0012084F83500002084F83400DC
:10182000E16C00297ED004B02046BDE8F05F084797
:101830008F4EB0421BD08E4E1436B04217D08C4E15
:101840002836B04213D08A4E3C36B0420FD0884E74
:101850005036B0420BD0864E6436B04207D0844E2C
:101860007836B04203D0824E8C36B0425AD10668E8
:101870004FF0040E94F85CB00BF01F0B0EFA0BFE49
:101880001EEA010FCDF80CE05ED05FEA467E5BD524
:1018900003986860300411D5F00307D4A16C0029C7
:1018A00040D004B02046BDE8F05F0847216C002915
:1018B00038D004B02046BDE8F05F0847B0063BD4FE
:1018C0002068B8422DD068496039884229D0404507
:1018D00027D0484525D0504523D06349884220D0A1
:1018E0006149183188421CD05F493031884218D094
:1018F0005E49884215D0904213D05C49303188420D
:101900000FD098420DD059496031884209D05749CB
:101910007831884205D0604503D05449A8318842C7
:1019200006D100E07CE0016821F00801016003E0DD
:10193000016821F004010160216C002970D004B01D
:101940002046BDE8F05F08474FF0020E0EFA0BFE8E
:101950001EEA010FCDF808E063D05FEA867E60D50D
:1019600002986860300411D5F00307D4616C002937
:1019700078D004B02046BDE8F05F0847E16B00294D
:1019800070D004B02046BDE8F05F0847B0063FD4F1
:101990002068B8422DD034496039884229D040456A
:1019A00027D0484525D0504523D02F49884220D004
:1019B0002D49183188421CD02B493031884218D02B
:1019C0002A49884215D0904213D0284930318842A4
:1019D0000FD098420DD025496031884209D0234963
:1019E0007831884205D0604503D02049A83188422B
:1019F00004D1016821F01401016003E0016821F0C5
:101A00000A010160012084F83500002084F83400C8
:101A1000E16B002926D004B02046BDE8F05F0847FE
:101A200020E0082202FA0BF20A421BD0310719D536
:101A3000016821F00E01016094F85C0000F01F01C4
:101A4000012000FA01F16960606584F8350000202A
:101A500084F83400E16C002904D004B02046BDE8CD
:101A6000F05F0847BDE8FF9F880002401004024075
:101A7000085402582DE9F05F044600F00FFD0646B9
:101A8000002C7DD0F44F0222DFF8CC830025DFF854
:101A9000C893DFF8C4A308F13008DFF8BCB309F13C
:101AA000480920680AF1600A0BF1780BB84232D07D
:101AB000E949183188422ED040452CD048452AD0DB
:101AC000504528D0584526D0E3499031884222D04D
:101AD000E149A83188421ED0E04988421BD0DF4945
:101AE0001831884217D0DD493031884213D0DB49A4
:101AF000483188420FD0D949603188420BD0D7494C
:101B00007831884207D0D5499031884203D0D349F3
:101B1000A83188427ED184F8352084F83450B84208
:101B200034D0CD491831884230D040452ED0484578
:101B30002CD050452AD0584528D0C74990318842EA
:101B400024D0C549A831884220D0C44988421DD03C
:101B5000C2491831884219D0C0493031884215D065
:101B6000BE494831884211D0BC49603188420DD00D
:101B7000BA497831884209D0B8499031884200E0AA
:101B800009E003D0B549A831884207D1016821F0A6
:101B90000101016013E00120BDE8F09F016821F020
:101BA000010101600BE000F079FC801B052806D9DB
:101BB00020206065032084F835000120ECE72068D0
:101BC0000068C007EFD122681168A5480140D4E938
:101BD00002031843D4E9043633431843A369184376
:101BE000E3691843236A18430843616A042903D14F
:101BF000D4E90B13194308439A4909686FF30F019D
:101C0000B1F1005F11D36168A1F12903052B0AD955
:101C1000163B00E02EE0032B05D9083B012B02D92F
:101C20004F39032901D840F48010106020684069C2
:101C300020F00701606A40EA010604280DD1A06A7D
:101C40000643E06A48B12046FEF712FE28B1402064
:101C50006065012084F835009EE7206846612046D3
:101C6000FEF718FD94F85C1001F01F023F2191402F
:101C7000816066E07C4988421BD07B4B14339842DC
:101C800017D0794B2833984213D0774B3C33984286
:101C90000FD0754B503398420BD0734B643398423E
:101CA00007D0714B7833984203D06F4B8C339842F6
:101CB0007ED1884211D06C49143188420DD06A49D6
:101CC0002831884209D068493C31884205D06649AC
:101CD0005031884201D06449643184F8352084F859
:101CE0003450026861490A40A16840297ED08029A9
:101CF0007DD00021E36841EAD301236941EAD301A1
:101D0000636941EAD301A36941EAD301E36941EA86
:101D1000D301236A41EA131111430160524920683B
:101D2000494208441421B0FBF1F08000E0652046F0
:101D3000FEF7B0FC94F85C1001F01F020121914005
:101D400041602068B84256D043491831884252D089
:101D5000404550D048454ED050454CD058454AD0CB
:101D60003D499031884246D03B49A831884242D013
:101D70003A4988423FD03949183188423BD03749E7
:101D80003031884237D035494831884233D03349E1
:101D9000603188422FD03149783188422BD02F4989
:101DA0009031884227D02D49A831884223D000E0C5
:101DB0002DE02D4988421ED02B49143188421AD07B
:101DC00029492831884216D027493C31884212D00F
:101DD0002549503188420ED02349643188420AD0C7
:101DE00021497831884206D01F4901E00AE00BE022
:101DF0008C31884229D12046FEF7ACFCA0688028AF
:101E00000CD00CE0102175E74FF4804172E74020C0
:101E10006065032084F835000120BDE66560216E11
:101E200020790860D4E9191048606068401E0728CE
:101E300008D82046FEF7DEFCE06E0560D4E91C10F1
:101E4000486002E0E566256765676565012084F8FE
:101E500035000020A0E600001000024010040240FF
:101E60003F8010FE0010005C085402580F00FEFF77
:101E70002DE9F84F044600200090002C15D094F86E
:101E80003400012813D0012084F8340094F8355030
:101E90000020012D0DD04FF40061616584F83400FD
:101EA000012000900098BDE8F88F0120FBE7022098
:101EB000F9E7022584F835506065A54DA44EA44F7E
:101EC0001835DFF88CC23036DFF884824837DFF807
:101ED0008092DFF87CA208F16008DFF874B209F1A3
:101EE000780920680AF1900A0BF1A80B60453BD0F5
:101EF000A84239D0B04237D0B84235D0404533D06F
:101F0000484531D050452FD058452DD0DFF844C238
:101F1000604529D0DFF83CC20CF1180C604523D095
:101F2000DFF830C20CF1300C60451DD0DFF824C260
:101F30000CF1480C604517D0DFF818C20CF1600CAA
:101F4000604511D0DFF80CC20CF1780C60450BD065
:101F5000DFF800C20CF1900C604505D0DFF8F4C149
:101F60000CF1A80C604506D1D0F800C02CF0010C93
:101F7000C0F800C005E0D0F800C02CF0010CC0F89B
:101F800000C02046FEF7B0FC7149206888422CD082
:101F9000A8422AD0B04228D0B84226D0404524D00A
:101FA000484522D0504520D058451ED0694A90421D
:101FB0001BD0684A1832904217D0664A303290429D
:101FC00013D0644A483290420FD0624A6032904245
:101FD0000BD0604A7832904207D05E4A90329042ED
:101FE00003D05C4AA83290420DD1026822F01E0252
:101FF00042F016020260206C90B12068026842F044
:10200000080202600CE0026822F00E0242F00A02AE
:102010000260206C20B12068026842F00402026075
:10202000206888424BD0A84249D0B04247D0B8423D
:1020300045D0404543D0484541D050453FD0584514
:102040003DD0444A90423AD0424A1832904236D06B
:10205000404A3032904232D03E4A483290422ED0EE
:102060003C4A603290422AD03A4A7832904226D096
:10207000384A9032904222D0364AA83290421ED03E
:10208000354A90421BD0344A1432904217D0324A1B
:102090002832904213D0304A3C3290420FD02E4A20
:1020A000503290420BD02C4A6432904207D02A4AD8
:1020B0007832904203D0284A8C3290420DD1206E63
:1020C0000268D20303D5026842F480720260E06EB7
:1020D00018B1026842F480720260206888422CD0F5
:1020E000A8422AD0B04228D0B84226D0404524D0B9
:1020F000484522D0504520D058451ED01549884229
:102100001BD014491831884217D012493031884207
:1021100013D01049483188420FD00E4960318842AF
:102120000BD00C497831884207D00A499031884257
:1021300003D00849A831884204D1016841F0010167
:102140000160AFE6016841F001010160AAE600000C
:1021500010000240100402400854025870B50446B2
:1021600000F09CF90546601C02D004480078044445
:1021700000F094F9401BA042FAD370BD7400002413
:102180002DE9F043B5B0142130A8FEF7EDF82E4844
:102190000168002955D14FF00108C0F80080BC212A
:1021A00001A8FEF7E1F84FF080700190002612962A
:1021B00001A801F063FA08B1FEF7B5FC23480168F5
:1021C00041F480510160006800F4805000904FF4A9
:1021D000F0603090022431943296032533950C2719
:1021E000349730A91A4800F039F8E8023090319459
:1021F0003296339530A9DFF85C90484600F02EF80F
:102200004CF233003090319432963395349730A9A4
:10221000484600F023F8E00130903194329633952F
:102220000920349030A90C4800F018F84020309074
:102230003194CDF8C8803395349730A9484600F0E2
:102240000DF835B0BDE8F08300000024D4440258F6
:1022500000100258000C0258000802582DE9F84FEF
:1022600000227B4D03264FF001080F274FF0B04CA2
:10227000E6E008FA02F31C409A46002C7ED00B7967
:1022800003F00303012B01D0022B1BD1D0F80890DF
:10229000530006FA03FB29EA0B09D1F80CB00BFA3C
:1022A00003FB4BEA090BC0F808B0436823EA0A03B2
:1022B00091F80490C9F3001909FA02F949EA0309EF
:1022C000C0F804900B79DB439B070ED0D0F80C903C
:1022D000530006FA03FA29EA0A09D1F808A00AFA13
:1022E00003FA4AEA090AC0F80CA00B7903F00303C9
:1022F000022B14D1D30800EB8303D3F820A04FEABC
:1023000042794FEAD96907FA09FB2AEA0B0AD1F8A0
:1023100010B00BFA09FB4BEA0A0BC3F820B0D0F857
:102320000090530006FA03FA29EA0A0991F804A07A
:102330000AF0030A0AFA03FA4AEA090AC0F800A0F6
:102340004B6813F4403F7AD0424BD3F8009049F0E9
:102350000209C3F800901B6803F00203009322F007
:10236000030909F1B049D9F808B493074FEA137A81
:1023700007FA0AF32BEA030B374B00E05FE09842C1
:1023800001D100232DE0354B984201D1012328E0F3
:10239000334B984201D1022323E0324B984201D1C2
:1023A00003231EE0304B984201D1042319E02F4B48
:1023B000984201D1052314E02D4B984201D1062308
:1023C0000FE02C4B984201D107230AE02A4B984298
:1023D00001D1082305E0294B984201D1092300E0EF
:1023E0000A2303FA0AF343EA0B03C9F80834DCF8BA
:1023F0000030A343D1F804905FEAC92900D52343F4
:10240000CCF80030DCF80430A343D1F804905FEA44
:10241000892900D52343CCF804306B68A343D1F855
:1024200004905FEA893900D523436B602B68A3438E
:10243000D1F804905FEAC93900D523432B60521CC0
:102440000C6834FA02F37FF414AFBDE8F88F000093
:1024500080000058F444025800000258000402585A
:1024600000080258000C02580010025800140258CC
:1024700000180258001C025800200258002402587C
:10248000002A01D081617047090481617047000012
:1024900001480068000C70470010005C014880682B
:1024A00070470000740000240248816802781144DB
:1024B000816070477400002410B5032000F04AFAD0
:1024C00001F0F4FE0F490A68C2F303230E4AD35CFD
:1024D00003F01F03D840096801F00F01515C0B4A5B
:1024E00001F01F0120FA01F1116009490860002084
:1024F00000F010F808B1012010BD00F0BBF9002079
:1025000010BD0000184402589C800008840000247C
:102510008000002470B504460F4D2A78002A0CD0A4
:102520004FF47A700D49B0FBF2F00968B1FBF0F09E
:1025300002F01BFD18B1012070BD012070BD102CF0
:1025400007D200222146501E00F0E4F96C60002002
:1025500070BD012070BD00007400002480000024C4
:10256000002807D090F83D10022905D0802181660F
:102570000120704701207047042180F83D10006859
:10258000C16821F00101C1600020704730B500230F
:10259000002810D090F83C40012C0ED0012480F887
:1025A0003C4090F83D40012C09D00123002180F8E7
:1025B0003C10184630BD012030BD022030BD0468FB
:1025C00025696D000FD421630468626329B1016835
:1025D0000A6942F000420A61E8E701680A6922F0EC
:1025E00000420A61E2E70123E0E700002DE9F84339
:1025F0000446002700974FF416515D480068B0FB71
:10260000F1F62068012500F5F861C1F3841205FA9E
:1026100002F14FF0A44212680A427DD00168C90756
:102620002CD0C168890729D5C16821F00201C16099
:1026300021688868020604D4A26E42F00102A266F4
:1026400003E0A26E42F00202A266820503D5A26EEA
:1026500042F00402A266C20503D5A26E42F008024F
:10266000A266420503D5A26E42F01002A2660005E2
:1026700003D5A06E40F02000A0664D602068016880
:10268000C90608D5C168890605D510214160A16C2D
:1026900009B12046884720680168090708D5C16844
:1026A000C90605D508214160E16C09B1204688477B
:1026B000206801684FF00408490708D5C168090778
:1026C00005D5C0F80480216D09B1204688472068EF
:1026D0000168890715D5C168490712D5C16821F07D
:1026E0003E01C16094F83D00042828D021680220F2
:1026F000486084F83C7084F83D50616C09B1204614
:102700008847A06E002830D084F83D802068C168DA
:1027100021F00101C16000E027E021680098401C21
:102720000090B04202D8C868C007F7D184F83C7066
:10273000C868C0070FD0032084F83D000DE084F87E
:102740003C7084F83D50A16D00290ED001B02046A8
:10275000BDE8F043084784F83D50616D002904D07E
:1027600001B02046BDE8F0430847BDE8F88300000B
:102770008000002470B50446FFF790FE05465CB16A
:10278000002684F83C60022084F83D002068C1687F
:1027900021F00101C1600DE0012070BDFFF77EFE58
:1027A000401B052806D94020A066032084F83D0080
:1027B000012070BD2068C068C007EFD1204603F03B
:1027C00005FBE66526666666A666012084F83D0080
:1027D000002070BDF8B50446069D002C0FD094F87B
:1027E0003C0001280DD0012084F83C0094F83D60A5
:1027F0000020012E07D084F83C000220F8BD012003
:10280000F8BD0220F8BD022684F83D60A06620686D
:10281000C66826F00106C6602046009503F030FB2E
:102820002068C16841F00601C160E06C20B12068F9
:10283000C16841F01001C160206D20B12068C168FD
:1028400041F00801C160A06C20B12068C16841F06E
:102850002001C1602068C16841F00101C160606869
:10286000B0F1804F04D12068C16841F48031C1606B
:102870000020F8BD08B50548016841F0020101607B
:10288000006800F00200009008BD0000F444025807
:1028900070B504460E461546002C03D094F821006E
:1028A00010B107E0012070BD002084F82000204610
:1028B00000F020F82068211DFEF754F9D4E9000249
:1028C0003146FEF740F9D4E900022946FEF72DF91A
:1028D0002068016841F0040101600548016841F089
:1028E00000410160012084F82100002070BD00003B
:1028F00000400052FFF744BC002809DB012100F032
:102900001F0291404009800000F1E020C0F8001152
:1029100070470000F0B40D460D4B1B68C3F3022353
:10292000C3F10704042C00D90424191D072901D27E
:10293000002300E0DB1E012606FA04F1491E2940AF
:1029400099409E40761E16403143F0BC05F0AABA6D
:102950000CED00E000F00701054A10684FF6FF0398
:10296000184040EA01200349084310607047000006
:102970000CED00E00000FA0570B514490A68D24376
:10298000520708D5096801F00701814201D00120F2
:1029900070BD002070BD0A6822F0070202430A6081
:1029A000FFF77CFD0446094D4FF47A76083D06E0BA
:1029B000FFF774FD001BB04201D9012070BD2868EB
:1029C000C0438004F4D4002070BD00000C480258BD
:1029D0007047000070B50446002594F84100800758
:1029E00033D5002084F84000082084F84100206896
:1029F000016821F4F8110160206801684FF00106B8
:102A0000490710D5016821F004010160E16B10480D
:102A10008865E06BFFF7A4FDB8B184F841602046FB
:102A2000FFF7D6FF11E0816889060CD50221C1604D
:102A30002068016841F4003101602068016841F0BC
:102A40000201016001E084F84160284670BD000089
:102A5000656500082DE9F84304460E461546FFF764
:102A60001DFD034694F8400001280ED0012084F893
:102A7000400094F841004FF00008012807D00227D9
:102A800084F840803846BDE8F8830220FBE7C4F8AC
:102A90004480422084F841000022A06C2021009054
:102AA000204603F0C7FF0746380002D084F8408074
:102AB000E8E72168286888622168686848622168B8
:102AC000A868C862D5E9041001432068026822F4AE
:102AD00040021143016021680920C860E868B062C3
:102AE0004FF000623146204603F063FC84F84080DA
:102AF0002068016841F410210160C3E702480178B1
:102B0000491C0170704700006E0000242DE9F84F49
:102B100004460E469046FFF7C1FC834694F84000F9
:102B200001280ED0012784F8407094F841004FF03E
:102B30000009012807D0022584F840902846BDE806
:102B4000F88F0220FBE7C4F844904FF0020A84F8A3
:102B500041A0002220215B462046CDF8008003F0F2
:102B600069FF0546002DE7D100223146204603F0DB
:102B700020FC706A10B184F84170DDE701225B46E9
:102B800002212046CDF8008003F054FF0546002DB9
:102B9000D2D12068C0F80CA084F84170CCE72DE9B0
:102BA000F84304460D46FFF779FC034694F84000CD
:102BB00001280ED04FF0010884F8408094F84100BD
:102BC0000027012807D0022684F840703046BDE86F
:102BD000F8830220FBE76764022084F841000022AA
:102BE000A06C20210090204603F024FF064616B179
:102BF00084F84070EAE7686A10B921680320C86069
:102C000000222946204603F0D4FB686A20B184F8EC
:102C1000418084F84070D9E784F8407020680168EA
:102C200041F440310160D1E77047704770B5044608
:102C30002068816802684B073AD5530338D52030A5
:102C400094F8411012290FD094F84110222921D074
:102C500024E0E16A69B1616A09780170616A491C1E
:102C60006162E16A491EE162216889684907F0D41E
:102C700014E02068016821F4802101600EE0A16B5E
:102C800081B10178226B1170216B491C2163A16B0A
:102C9000491EA163216889684907F0D42046FFF7DF
:102CA000C4FF70BD2068016821F480210160F5E750
:102CB0008B074FF001056CD593036AD50221C160E3
:102CC0002068016821F4E021016094F84100122895
:102CD00018D094F84100222828D094F84100022806
:102CE0004DD094F841000828DBD12068416921F0DB
:102CF0004061416184F84150606CE0B32046FFF7C9
:102D000093FF70BD20680168490709D5016821F06B
:102D100004010160E06B0068C16821F00101C1603D
:102D200084F84150204600F0CFFA70BD2068016859
:102D300049070AD5016821F004010160E06B0068D1
:102D4000C16821F00101C16011E020300AE0A16BEF
:102D500069B10178226B1170216B491C2163A16B51
:102D6000491EA1632168896811F47C5FEFD184F862
:102D70004150204600E008E000F00EFA70BD84F8F3
:102D800041502046FFF7BAFE70BD2046FFF720FEF7
:102D900070BD0B0711D513030FD50821C160206842
:102DA0000168490205D5016821F41021016084F809
:102DB0004150204600F0FAF970BDCB072BD0D30369
:102DC00029D5C5602068016821F470210160606C1C
:102DD00040F00200606420680168490715D5016869
:102DE00021F004010160E16B10488865E06BFFF79A
:102DF000B7FB0028E0D0606C40F00400606484F809
:102E000041502046FFF710FF70BD84F84150204626
:102E1000FFF70AFF70BDC906FCD5D102FAD5102113
:102E2000C160204600F0CAF970BD00006565000869
:102E300038B50446FFF732FB05461CB194F8410053
:102E400010B109E0012038BD204600F041F841F200
:102E50008831204600F0A8F92068016821F47062EA
:102E6000A168491E42EA01210160A06C00222021D4
:102E70002B460090204603F0DDFD0028E3D1E268F8
:102E8000E16923790A43216A41EA03610A4321681F
:102E90000B680D4D2B401A430A60D4E905210A4303
:102EA00021684B68094D2B40258A43EA05431A43A4
:102EB0004A6021680A6842F001020A6000216164E8
:102EC000012184F8411038BD2FFFFF00FEF8E0FF1C
:102ED0002DE9F047B6B00746142131A8FDF744FAB2
:102EE000BC2102A8FDF740FA5949386888427CD1D4
:102EF000584C206840F001002060206800F001007C
:102F000001904FF00079CDF808901020149002A89D
:102F100000F0B4FB08B1FDF706FE206840F48040E5
:102F20002060206800F4804001904A490C31086814
:102F300040F010000860086800F010000190086878
:102F400040F001000860086800F001000190086886
:102F500040F002000860086800F002000190086874
:102F600040F004000860086800F0040001904FF091
:102F7000040ACDF8C4A00226329600253395032416
:102F800034944FF00908CDF8D480334831A9FFF7C5
:102F900065F93196329633953494CDF8D48031A9C1
:102FA0002E48FFF75BF9CDF8C4A0329633953494E0
:102FB000CDF8D48031A9DFF8A8A05046FFF74EF92C
:102FC00060023190329633953494CDF8D48031A993
:102FD0002448FFF743F940203190329633953494DA
:102FE0000A20359031A9504600E02EE0FFF736F96F
:102FF0001E4C1D48206016206060A560C020E06067
:1030000025616661A561E5612562C4F82490802090
:10301000A062E56225636563A5632046FFF7AAFB0E
:1030200008B1FDF780FD002210481146FFF7AEFA07
:1030300008B1FDF778FDFC63276400225C2011468F
:10304000FFF768FC5C20FFF757FC36B0BDE8F0875F
:1030500000500052D4440258001002580000025898
:103060000004025800080258800000523801002471
:10307000F8B504460025206883690269521C94F85B
:103080004060012E0DD0012784F8407094F841C0B3
:103090000026BCF1010F06D0022584F840602846C6
:1030A000F8BD0220F8BD6664002969D0A26322221F
:1030B00084F841200322C260A06B60632163E26B4D
:1030C00033485064E26B33485065E06B8665E06BD3
:1030D0000068026940F2033C22EA0C020261E06BE4
:1030E00040F60C4C026A32B3402A2CD0802A32D0EF
:1030F000606C40F00400606401252068426922F0A1
:10310000406242F080624261206883610097636B95
:103110000A462068D4F83CC0203001466046FFF7DC
:1031200059FB00B301254034606840F00400606042
:1031300067702670B3E70068026922EA0C0242F069
:1031400008020261D9E70068026922EA0C0242F42F
:1031500081620261D1E70068026922EA0C0202F68C
:1031600008020261C9E784F840602068016841F400
:10317000803101602068016841F0040101608EE740
:10318000606C40F008006064012584F8406086E7C8
:10319000BD6500089F65000802484178491C4170E0
:1031A000704700006E000024816470470248C178B7
:1031B000491CC170704700006E0000247047000079
:1031C000F8B50446002520680269521C94F8403086
:1031D000012B0CD0012784F8407094F84130002670
:1031E000012B06D0022584F840602846F8BD022055
:1031F000F8BD666400295BD0E262122284F84120A7
:103200000322C260E06AA06261622068426922F023
:1032100040624261E26B2A485064E26B2948506583
:10322000E06B8665E06B0068026940F60C439A43E8
:103230000261E06B9B10C269CAB1102A1DD0202A1E
:1032400022D0606C40F00400606401250097A36AFE
:103250002268E06B2032FFF7BDFAE0B1012540346F
:10326000606840F00400606067702670BDE7006829
:1032700002699A43921C0261E8E7006802699A4376
:1032800042F481720261E1E7006802699A4302F246
:1032900002220261DAE784F840602068016841F4A4
:1032A000803101602068016841F0040101609CE701
:1032B000606C40F008006064012584F8406094E789
:1032C000CF6500089F65000802488178491C81701D
:1032D000704700006E00002410B500F0A1FF054902
:1032E0000968054AC1F30211515C01F01F01C84091
:1032F00010BD0000204402589C80000810B56949A8
:103300000A6802F003020968C1F30531654B1B1D11
:103310001B68C3F30013634C14342468C4F3CC0457
:1033200014FB03F300EE103AB8EE400A002971D006
:103330009FED5D1A5B4BF7EE000A1033F2B39FED81
:103340005B2A012A7FD0022A7CD001EE901A1968EC
:10335000F8EE611AC2EE212AC1F3080101EE901ABB
:10336000F8EE611A40EE011A31EEA00A22EE800A50
:103370001968C1F3462101EE101AB8EE411A31EE78
:10338000201AC0EE011ABCEEE11A80ED001A19688D
:10339000C1F3064101EE101AB8EE411A31EE201ABF
:1033A000C0EE011ABCEEE11A80ED011A1968C1F3F2
:1033B000066101EE101AB8EE411A00E008E071EE65
:1033C000200A80EE201ABCEEC10A80ED020A10BD70
:1033D000344A283A1468A4061ED51268C2F3C10400
:1033E000334AE24001EE902AF8EE612A01EE901A8B
:1033F0001968F8EE611A82EEA12AC1F3080101EE04
:10340000901AF8EE611A40EE011A31EEA00A22EE8F
:10341000000AADE741E016E001EE901ADFED252A43
:103420001968F8EE611A82EEA12AC1F3080101EED3
:10343000901AF8EE611A40EE011A31EEA00A22EE5F
:10344000000A95E713E001EE901A1968F8EE611A88
:10345000C2EE212AC1F3080101EE901AF8EE611ABA
:1034600040EE011A31EEA00A22EE800A80E701EE5A
:10347000901ADFED112A1968F8EE611A82EEA12A7E
:10348000C1F3080101EE901AF8EE611A40EE011A3C
:1034900031EEA00A22EE000A6AE7002101604160D5
:1034A000816010BD28440258000000390024744A8D
:1034B0000090D0030024744C20BCBE4B10B5694969
:1034C0000A6802F003020968C1F30551654B1B1D30
:1034D0001B68C3F30023634C1C342468C4F3CC047E
:1034E00014FB03F300EE103AB8EE400A002971D045
:1034F0009FED5D1A5B4BF7EE000A1833F2B39FEDB8
:103500005B2A012A7FD0022A7CD001EE901A19682A
:10351000F8EE611AC2EE212AC1F3080101EE901AF9
:10352000F8EE611A40EE011A31EEA00A22EE800A8E
:103530001968C1F3462101EE101AB8EE411A31EEB6
:10354000201AC0EE011ABCEEE11A80ED001A1968CB
:10355000C1F3064101EE101AB8EE411A31EE201AFD
:10356000C0EE011ABCEEE11A80ED011A1968C1F330
:10357000066101EE101AB8EE411A00E008E071EEA3
:10358000200A80EE201ABCEEC10A80ED020A10BDAE
:10359000344A283A1468A4061ED51268C2F3C1043E
:1035A000334AE24001EE902AF8EE612A01EE901AC9
:1035B0001968F8EE611A82EEA12AC1F3080101EE42
:1035C000901AF8EE611A40EE011A31EEA00A22EECE
:1035D000000AADE741E016E001EE901ADFED252A82
:1035E0001968F8EE611A82EEA12AC1F3080101EE12
:1035F000901AF8EE611A40EE011A31EEA00A22EE9E
:10360000000A95E713E001EE901A1968F8EE611AC6
:10361000C2EE212AC1F3080101EE901AF8EE611AF8
:1036200040EE011A31EEA00A22EE800A80E701EE98
:10363000901ADFED112A1968F8EE611A82EEA12ABC
:10364000C1F3080101EE901AF8EE611A40EE011A7A
:1036500031EEA00A22EE000A6AE700210160416013
:10366000816010BD28440258000000390024744ACB
:103670000090D0030024744C20BCBE4B2DE9F84FC1
:10368000044600250026FB4F2068DFF8EC8301018B
:1036900004F1240000900DD5606EB0B1B0F5801F2C
:1036A00018D0B0F5001F1BD0B0F5401F00D0012589
:1036B000E5B12E462088C00535D5606D05282FD28E
:1036C000DFE800F01D22282F2F00386840F400307A
:1036D0003860EDE70221201D03F0D8F90546E7E741
:1036E0000098022103F064FA0546E1E7D8F80000EB
:1036F000616E20F440100843C8F80000DAE738682B
:1037000040F4003038600CE00021201D03F0BEF9C9
:10371000054606E00098002103F04AFA054600E05D
:1037200001255DB12E462088800518D5A06D802822
:1037300030D00CDC18B340280ED125E0D8F80000BA
:10374000616D20F007000843C8F80000EBE7C028CF
:1037500003D0B0F5807F00D001250DB32E46208820
:10376000DFF8189340052DD5D4F8A400B0F5800FEC
:1037700042D01EDCA0B3B0F5001F20D136E038687F
:1037800040F400303860E8E70021201D03F07EF9A6
:103790000546E2E70098002103F00AFA0546DCE757
:1037A000D8F80000A16D20F4E0700843C8F80000CC
:1037B000D5E7B0F5C00F03D0B0F5000F00D001255C
:1037C00005B32E46208800052FD5D4F8A800B0F107
:1037D000007F52D020DCE8B3B0F1807F22D146E0F8
:1037E000FFE7386840F400303860E9E70021201D29
:1037F00003F04CF90546E3E70098002103F0D8F9FF
:103800000546DDE7D9F80000D4F8A41020F46000E4
:103810000843C9F80000D5E7B0F1407F03D0B0F10C
:10382000806F00D0012575B32E46206880010AD52F
:10383000A06C30B1102831D0202835D0302800D0ED
:10384000012585B32E462088C00446D5E06DB0F52D
:10385000005F00E006E05BD036DCA0B3B0F5805F2F
:1038600038D14FE0386840F400303860DBE70021A1
:10387000201D03F00BF90546D5E70098002103F061
:1038800097F90546CFE7FFE7D9F80000D4F8A8106C
:1038900020F0E0600843C9F80000C6E7386840F44B
:1038A00000303860CDE705E00221201D03F0EEF87E
:1038B0000546C6E77048001F0168A26C21F0300180
:1038C00011430160BFE718E0B0F5405F03D0B0F5E9
:1038D000804F00D001250DB32E46208880042FD5BF
:1038E000206EB0F5403F29D021DC38B3B0F5803FE1
:1038F00037D0B0F5003F20D139E0386840F40030CF
:103900003860E8E70021201D03F0C0F80546E2E733
:103910000098002103F04CF90546DCE7D8F80000D8
:10392000E16D20F4E0400843C8F80000D5E7B0F5A9
:10393000802F03D0B0F5A02F00D00125EDB12E4689
:10394000208840042BD5D4F8AC00B0F1405F24D0DF
:103950001CDC10B3B0F1805F4BD0B0F1005F1BD125
:103960004EE00121201D03F091F80546E6E700989E
:10397000012103F01DF90546E0E7D8F80000216EAB
:1039800020F4E0200843C8F80000D9E7B0F1804FE8
:1039900003D0B0F1A04F00D0012585B32E4620887A
:1039A00000040AD5E06E30B1B0F1805F39D0B0F1DB
:1039B000005F3BD001259DB32E462068C0010AD58B
:1039C000606C30B1012841D0022844D0032800D0D7
:1039D00001258DB32E462068DFF8A4B0400261D5E2
:1039E0002848016841F480710160FEF757FD824666
:1039F00052E00121201D03F049F80546CDE705E01E
:103A00000098012103F0D4F80546C6E7D9F8000074
:103A1000D4F8AC1020F0E0400843C9F80000BEE73D
:103A20000BE0386840F400303860C4E70121201D05
:103A300003F02CF80546BEE713E0D8F80000E16E6D
:103A400020F040500843C8F80000B6E7386840F45A
:103A500000303860BDE70221201D03F017F805464D
:103A6000B7E70548001F0168626C21F003011143AC
:103A70000160B0E72C4402585044025858440258A0
:103A80001044025800480258FEF708FDA0EB0A0057
:103A9000642801D9032503E0FE480068C005F3D57A
:103AA0007DB12E462078DFF8F0A3C00766D0A06F66
:103AB000182861D05BDC80B308286AD010285AD15E
:103AC0006DE0F5481C300068B4F8B01000F44070A8
:103AD00001F4407188420DD0EF481C30016821F498
:103AE0004071026842F480320260026822F480323F
:103AF00002600160D4F8B000B0F5807F13D1FEF70A
:103B0000CDFC82460AE0FEF7C9FCA0EB0A0141F2B7
:103B10008830814202D9032505E02DE0DE481C30C3
:103B200000688007EFD50DB12E46BBE7D4F8B00092
:103B3000C0F3012103290FD0DBF8000020F47C50F2
:103B4000CBF80000D4481C300168B4F8B020C2F3B0
:103B50000B0211430160A5E7DBF80010CF4A21F406
:103B60007C51104041EA1010CBF80000EAE7202811
:103B700002D0282800D00125BDB12E46207880072C
:103B80002BD5606F062825D2DFE800F025181E250A
:103B900025250121201D02F079FF0546ECE700985C
:103BA000012103F005F80546E6E7DAF80000A16F09
:103BB00020F038000843CAF80000DFE70121201D8B
:103BC00002F064FF054606E00098012102F0F0FFD4
:103BD000054600E0012565B12E462078400720D536
:103BE000D4F89000062819D2DFE800F0190C121959
:103BF0001919DAF80000616F20F007000843CAF8CD
:103C00000000EAE70121201D02F040FF054606E022
:103C10000098012102F0CCFF054600E001258DB19E
:103C20002E462078800620D5D4F88C00B0F1405F75
:103C300019D011DCB8B1B0F1805F27D0B0F1005FCE
:103C400010D129E0D9F80000D4F8901020F0070036
:103C50000843C9F80000E4E7B0F1804F03D0B0F1A9
:103C6000A04F00D00125EDB12E46207840062CD57E
:103C7000D4F89800B0F5406F25D01DDC18B3B0F52E
:103C8000806F33D0B0F5006F1CD135E00021201DCE
:103C900002F0FCFE0546E6E70098022102F088FFEC
:103CA0000546E0E7DAF80000D4F88C1020F0E04098
:103CB0000843CAF80000D8E7B0F5805F03D0B0F53C
:103CC000A05F00D00125EDB12E46207800062CD54E
:103CD000D4F89C00B0F5C04F25D01DDC18B3B0F56A
:103CE000005F2BD0B0F5804F1CD12DE00021201DAE
:103CF00002F0CCFE0546E6E70098022102F058FFEC
:103D00000546E0E7D9F80000D4F8981020F4E05018
:103D10000843C9F80000D8E7B0F5004F03D0B0F56C
:103D2000204F00D00125ADB12E46207800072AD5BE
:103D3000D4F88000B0F5805F16D01BE00021201D74
:103D400002F0A4FE0546EEE70098022102F030FFE3
:103D50000546E8E7D9F80000D4F89C1020F460404C
:103D60000843C9F80000E0E70098022102F020FFB4
:103D700000B10126DAF80000D4F8801020F4405099
:103D80000843CAF800002078C00613D5D4F8940080
:103D9000B0F5807F05D10098022102F009FF00B143
:103DA0000126D9F80000D4F8941020F4407008439C
:103DB000C9F80000206800030BD5D4F8A000E8B3D0
:103DC000B0F5803F6DD0B0F5003F00D00125B5B310
:103DD0002E46206840030DD5D4F88400B0F5801F2E
:103DE0007DD0B0F5001F7BD0B0F5401F00D001257D
:103DF00035B32E462068C00307D5E06CF0B3B0F5AC
:103E0000803F6ED00125D5B32E462068800005D5B1
:103E10000098022102F0CCFE00B101262068800348
:103E200011D5E06F48B1B0F5807F6ED0B0F5007F5E
:103E300003D0B0F5407F00D0012502E05FE06BE0E9
:103E40007FE06DB32E462068C00207D5D8F8000089
:103E5000216F20F000400843C8F800002068C0002F
:103E600008D5DBF80000D4F8B41020F480400843F3
:103E7000CBF80000206880020AD501E06CE076E013
:103E8000D8F80000A16E20F080700843C8F8000048
:103E9000206807E00048025854440258FFFCFF0F16
:103EA00072E033E040000CD5DBF8000020F4004065
:103EB000CBF80000DBF80000D4F8B8100843CBF8CA
:103EC00000002068002806DA35480168226D21F0DC
:103ED000405111430160206800020CD502E025E04A
:103EE00029E03EE0DAF80000D4F8881020F4400021
:103EF0000843CAF8000076B30120BDE8F88F00211E
:103F0000201D02F0C3FD054661E738E0009802215C
:103F100002F04EFE05465AE7D9F80000D4F8A0108A
:103F200020F440300843C9F8000052E7386840F4F4
:103F3000003038605CE70098012102F039FE054648
:103F400056E7DAF80000D4F8841020F44010084353
:103F5000CAF800004EE720E0386840F400303860CE
:103F600051E70221201D02F091FD05464BE70C4868
:103F70000168E26C21F480311143016045E7386843
:103F800040F40030386058E7DAF80000E16F20F4C0
:103F900040700843CAF8000055E70020ADE7000074
:103FA0004C4402582DE9F05F04460D46002C17D012
:103FB000DFF84C82D8F8000000F00F00A84211D2C0
:103FC000D8F8000020F00F002843C8F80000D8F807
:103FD000000000F00F00A84204D00120BDE8F09FCF
:103FE0000120FBE72078874E40070AD52069316819
:103FF00001F07001884204D9316821F07001014359
:1040000031602078804F00070AD56069396801F077
:104010007001884204D9396821F070010143396088
:104020002078C0060AD5A069396801F4E0618842A9
:1040300004D9396821F4E061014339602078DFF860
:10404000CC9180060DD5E069D9F8001001F070011F
:10405000884206D9D9F8001021F070010143C9F84F
:104060000010207880070AD5E068316801F00F0160
:10407000884204D9316821F00F0101433160207872
:10408000C00743D03068A16820F4706008433060F6
:104090005C4960681839022808D003280BD0012831
:1040A0000ED00968490710D4012097E709688903F1
:1040B0000BD4012092E70968890106D401208DE71D
:1040C0000968C90501D4012088E7DFF838A1AAF101
:1040D000080ADAF8001021F007010143CAF80010BD
:1040E000FEF7DCF9834609E0FEF7D8F9A0EB0B01F7
:1040F00041F28830814201D903206FE7DAF80000ED
:10410000616800F03800B0EBC10FEDD12078800776
:104110000AD5E068316801F00F01884204D23168A5
:1041200021F00F0101433160D8F8000000F00F00CA
:10413000A8420ED9D8F8000020F00F002843C8F894
:104140000000D8F8000000F00F00A84201D00120C4
:1041500044E7207840070AD52069316801F07001F2
:10416000884204D2316821F0700101433160207827
:1041700000070AD56069396801F07001884204D2ED
:10418000396821F07001014339602078C0060AD5F2
:10419000A069396801F4E061884204D2396821F4E9
:1041A000E06101433960207880060DD5E069D9F8D7
:1041B000001001F07001884206D2D9F8001021F0F9
:1041C00070010143C9F8001000F070F83168C1F3C4
:1041D00003220F498A5C02F01F02D040326802F0CD
:1041E0000F02895C0B4A01F01F0120FA01F11160F6
:1041F0000949086009480068BDE8F05FFEF78AB920
:1042000000200052184402581C440258204402580E
:104210009C80000884000024800000247800002492
:1042200000B500F043F80B490A68C2F303230A4AB9
:10423000D35C03F01F03D840096801F00F01515C03
:10424000064A01F01F0120FA01F11160044A1060D2
:10425000084600BD184402589C80000884000024D1
:104260008000002400B5FFF7DBFF05490968054A17
:10427000C1F30211515C01F01F01C84000BD0000F4
:104280001C4402589C80000800B5FFF7C9FF05498F
:104290000968054AC1F30221515C01F01F01C840C1
:1042A00000BD00001C4402589C80000830B56448E2
:1042B0000068654C10F03801624808D002110829E6
:1042C0000DD010290DD018290DD0104630BD216811
:1042D0008906FBD52168C1F3C101C84030BD104635
:1042E00030BD5A4830BD564918310A6802F0030201
:1042F0000968C1F30511524B1C331B6803F001031D
:104300004F4D24352D68C5F3CC0515FB03F300EEA6
:10431000103AB8EE400A002977D0DFED4D0A484B3D
:10432000B7EE001A20333AB39FED4A2A012A58D03B
:10433000022A6CD001EE901A1868F8EE611AC2EEEB
:10434000212AC0F3080001EE900AF8EE611A40EE4F
:10435000201A31EE810A22EE800A1868C0F3462046
:10436000401C00EE900AF8EE600A80EE201ABCEEC7
:10437000C10A10EE100A30BD226892061BD52268D1
:10438000C2F3C102D04001EE900A1868F8EE612A2B
:1043900001EE901AF8EE611A82EEA12AC0F308002D
:1043A00001EE900AF8EE611A40EE201A31EE810A11
:1043B00022EE000AD1E701EE901ADFED272A1868F5
:1043C000F8EE611A82EEA12AC0F3080001EE900A0D
:1043D000F8EE611A40EE201A31EE810A22EE000A50
:1043E000BBE701EE901A1868F8EE611AC2EE212AB6
:1043F000C0F3080001EE900AF8EE611A40EE201AB0
:1044000031EE810A22EE800AA7E716E0FFE701EE0F
:10441000901ADFED122A1868F8EE611A82EEA12ACE
:10442000C0F3080001EE900AF8EE611A40EE201A7F
:1044300031EE810A22EE000A8FE7002030BD000035
:10444000104402580090D0030044025840787D0187
:10445000000000390024744A0024744C20BCBE4B78
:104460002DE9F05F0446002C10D02078DFF8F883A7
:10447000FE4FFF4DC0075DD0D8F8000000F03800B7
:10448000396810281FD0182803D006E00120BDE8A5
:10449000F09F01F00300022815D06068B0F5803F5E
:1044A00018D0E0B1B0F5A02F22D0286820F48030D9
:1044B0002860286820F480202860606860B3FDF7D9
:1044C000EDFF064624E02868800333D5606810BB02
:1044D0000120DCE7286840F480302860EDE7286898
:1044E00020F480302860286820F480202860E4E7E9
:1044F000286840F480202860286840F480302860D4
:10450000DBE7FDF7CBFF801B642801D90320BEE762
:1045100028688003F5D50DE0FDF7C0FF064606E0EC
:10452000FDF7BCFF801B642801D90320AFE7286892
:104530008003F5D4207841F2030ACE4E80073DD5A2
:10454000D8F8000000F03800396870B1182801D19F
:1045500088070AD0E06890B3296821F01901014367
:104560002960FDF79BFF814641E02868400701D59F
:10457000E06848B12868E16820F019000843286025
:10458000FDF78CFF814609E0012080E7FDF786FFFB
:10459000A0EB0900022801D9032078E7286840072A
:1045A000F4D5FDF775FF504511D82069402807D094
:1045B000316821F47C3141EA003030604AE036E075
:1045C000306820F47C3040F40030306042E03068E5
:1045D000217C20F0FE4040EA016030603AE0FDF7C7
:1045E0005DFFA0EB0900022801D903204FE72868EE
:1045F0004007F4D5FDF74CFF504510D820694028FE
:1046000006D0316821F47C3141EA0030306021E08D
:10461000306820F47C3040F4003030601AE03068BC
:10462000217C20F0FE4040EA0160306012E0286802
:1046300020F001002860FDF731FF814607E0FDF71B
:104640002DFFA0EB0900022801D903201FE72868ED
:104650004007F4D42078C0062FD5D8F8000000F029
:1046600038003968DFF800B20828ABF1040B0FD02E
:10467000182803D101F00300012809D0E06978B3BC
:10468000286840F080002860FDF708FF814630E090
:104690002868C00504D5E069802801D00120F6E62D
:1046A000FDF7F6FE504510D8206A202806D0316864
:1046B00021F0F84141EA806030604FE0306820F03E
:1046C000F84040F08040306048E0DBF8000094F8AB
:1046D000201020F07C5040EA0160CBF800003DE063
:1046E0002AE0FDF7DBFEA0EB0900022801D9032038
:1046F000CDE62868C005F4D5FDF7CAFE504510D8B0
:10470000206A202806D0316821F0F84141EA806013
:10471000306023E0306820F0F84040F080403060A6
:104720001CE0DBF8000094F8201020F07C5040EAF8
:104730000160CBF8000011E0286820F080002860BC
:10474000FDF7ACFE064606E0FDF7A8FE801B02283A
:1047500001D903209BE62868C005F5D4207800071E
:1047600030D5DFF80891606909F14C09A8B1D9F892
:10477000000040F00100C9F80000FDF78FFE06467A
:1047800006E0FDF78BFE801B022801D903207EE6A0
:10479000D9F800008007F4D514E0D9F8000020F023
:1047A0000100C9F80000FDF779FE064606E0FDF7B6
:1047B00075FE801B022801D9032068E6D9F80000A5
:1047C0008007F4D42078800626D5A06990B12868A7
:1047D00040F480502860FDF761FE064606E0FDF7D4
:1047E0005DFE801B022801D9032050E62868800462
:1047F000F5D511E0286820F480502860FDF74EFEC2
:10480000064606E0FDF74AFE801B022801D9032078
:104810003DE628688004F5D42078400779D5164E07
:10482000306840F480703060FDF738FE814607E064
:10483000FDF734FEA0EB0900642801D9032026E629
:104840003068C005F4D5DFF82490A06809F1480964
:10485000012821D038B3052832D0D9F8000020F043
:104860000100C9F8000009E0104402582844025829
:10487000004402580444025800480258D9F8000085
:1048800020F00400C9F80000A06841F2883A80B323
:10489000FDF704FE064627E0D9F8000040F00100CD
:1048A000C9F80000F0E7D9F8000020F00100C9F8CD
:1048B0000000D9F8000020F00400C9F80000E3E788
:1048C000D9F8000040F00400C9F80000D9F8000051
:1048D00040F00100C9F80000D6E7FDF7DFFD801BBE
:1048E000504501D90320D2E5D9F800008007F4D55E
:1048F0000FE0FFE7FDF7D2FD064606E0FDF7CEFD2F
:10490000801B504501D90320C1E5D9F8000080077C
:10491000F4D4616AE9B3D8F80000DFF87C81C0F311
:10492000C200032876D0022907D0286820F08070C2
:104930002860FDF7B3FD04467FE0286820F0807012
:104940002860FDF7ABFD064606E0FDF7A7FD801BDE
:10495000022801D903209AE528688001F5D4386837
:1049600040F2F3318843E16A40EA0110A16A08434A
:104970003860208E4FF6FF72616B401E491EC0F3F7
:10498000080002EA41210843218F4FF4FE02491E2C
:1049900000E07FE002EA0141084394F83C10491E20
:1049A000120202EA01610843C8F800003A48001FF9
:1049B000016821F0010101603749091D0A684FF6BD
:1049C000F8739A43A36C42EAC3020A600168226C3E
:1049D00021F00C01114301600168626C21F00201B9
:1049E00011430160016841F480310160016841F4C4
:1049F00000310160016841F480210160016841F0EB
:104A000001010160286840F080702860FDF746FDD4
:104A1000044607E015E0FDF741FD001B022801D91F
:104A2000032034E528688001F5D533E0FDF736FD35
:104A3000001B022801D9032029E528688001F5D44C
:104A400028E03A68D8F80000012921D0A36A02F0D2
:104A5000030199421CD1E16AC2F30512914217D1B8
:104A6000216BC0F30802491E8A4211D1616BC0F369
:104A70004622491E91420BD1A16BC0F30642491E4A
:104A8000914205D1E16BC0F30660491E814201D01D
:104A90000120FCE40020FAE4304402587047000092
:104AA0002DE9F05F04462768D7F81080D7F81490F6
:104AB00008EA0905D7F808B0002094F8816030377B
:104AC00005F0400105F02002114308D1690706D521
:104AD000616F20468847216F20468847012005F0F6
:104AE0004101012905D1690703D4216F2046884778
:104AF000012005F02201022905D1690703D4616F65
:104B000020468847012000284DD128074FF0010A90
:104B10005DD52068816941F0080181612068816963
:104B200041F0100181612068816941F40061816177
:104B30002068016921F0080101612068806810F493
:104B4000404F21D024E0E0680F2807D92068006B8F
:104B5000616E0860606E001D606610E0072806D96F
:104B60003888616E0880606E801C606607E020688F
:104B700090F83000616E0870606E401C6066B4F89A
:104B80006A00401EA4F86A00B4F86A000028DAD16E
:104B9000204602F0A5F884F881A0D4F8840020B162
:104BA0002046FFF77BFFBDE8F09F052E07D0042EBF
:104BB00009D0032EF7D1204600F0D5F9F3E72046BF
:104BC00000F0D2F9EFE7204600F0CCF9EBE75FEA1E
:104BD000095008D55FEA087005D52068816941F45D
:104BE00000618161DFE715F4587FDCD068060AD5E3
:104BF000D4F8840040F00400C4F88400206881697F
:104C000041F040018161A8050AD5D4F8840040F044
:104C10000100C4F884002068816941F40071816159
:104C2000E8050AD5D4F8840040F00800C4F88400F0
:104C30002068816941F480718161A8060AD5D4F8A1
:104C4000840040F08000C4F884002068816941F04D
:104C500020018161D4F884000028A4D02068016874
:104C600021F0010101602068016940F26B3291433B
:104C70000161CBF38130032805D084F881A0204660
:104C8000FFF70CFF8FE72068816821F440418160C5
:104C90000E4DE06F50B10565E06FFCF7BFF928B12C
:104CA000D4F8840040F04000C4F88400A06F0028CD
:104CB00084D00565A06FFCF7B1F9002886D054F8C0
:104CC000840F40F0400020606DE700009B6D0008FD
:104CD0002DE9F0410446002C12D00025A562DFF832
:104CE000348120684C4E4D4F40450BD0B04209D026
:104CF000B84207D0E0680F2804D90120BDE8F08150
:104D00000120FBE7204602F054F8014620684045A8
:104D100005D0B04203D0B84201D0082907D8404599
:104D200003D0B04201D0B84203D1102901D90120EB
:104D3000E4E794F8810020B984F88050204600F020
:104D40006FF8022084F881002068016821F00101D9
:104D500001602068816801F4F812A169B1F1806FE7
:104D60000ED16168B1F5800F01D1A36B23B139B9C0
:104D7000A16BB1F1805F03D1016841F48051016002
:104D8000A16AE0690843E16B11430843E168084305
:104D900021688860616A606BA2690843A16B114356
:104DA00008432169084361690843216A084361682F
:104DB0000843E16C0843A1680843A16C0843A16D56
:104DC00008432168C860606868B92068816821F478
:104DD000C05141F4006181602068816821F4C061A4
:104DE00041F4806181602068016D21F0010101655D
:104DF0006068400206D52068C168626D21F00041FC
:104E00001143C160C4F88450012084F8810000205F
:104E100074E700000030014000380040003C0040D2
:104E20002DE9F043B5B00646142130A8FBF79CFAF3
:104E3000BC2101A8FBF798FA4349306888427DD12C
:104E400080140190052402943021039102270497D5
:104E5000059706974FF08009CDF81C90002508951E
:104E60000995189001A8FEF709FC08B1FBF75BFE55
:104E70003648016841F480510160006800F48050B8
:104E8000009032491039086840F001000860086855
:104E900000F001000090086840F008000860086811
:104EA00000F008000090086840F002000860086800
:104EB00000F00200009010203090319732954FF0B2
:104EC0000308CDF8CC80349430A92148FDF7C6F909
:104ED000CDF8C09031973295CDF8CC80349430A97C
:104EE0001C48FDF7BBF90820309031973295CDF87A
:104EF000CC80349430A91848FDF7B0F9184C174805
:104F00002060262060604020A060E56000012061F4
:104F10006561A561E5614FF440302062656220461D
:104F2000FCF7A8FD08B1FBF7FEFDB467A6630022FD
:104F300023201146FDF7EEFC232000E001E0FDF701
:104F4000DBFC35B0BDE8F08300300140F04402588E
:104F500000000258000C02580004025810000240E1
:104F60002C02002470477047704710B5401EB0F106
:104F7000807F01D3012010BD4FF0E02460610F213C
:104F8000601702F08FFF0020A06107202061002041
:104F900010BD70477047704730B590F83C20012A2B
:104FA0003AD0012280F83C20CA6800248B6822F4A1
:104FB00040721A434B6822F480621A430B6822F451
:104FC00000621A430B6922F480521A434B6922F49F
:104FD00000521A438B6A22F480421A430B8B22F44C
:104FE000702242EA03420D4D0368AB4202D00C4DE1
:104FF000AB420CD18D8C22F4700242EA0552CD698D
:1050000022F080722A43096A22F000720A435A642D
:1050100080F83C40002030BD022030BD000001403F
:1050200000040140F0B590F83C20012A3AD0012656
:1050300080F83C60022280F83D2003685A689C6832
:10504000194FDFF868C0BB4201D0634503D122F499
:1050500070054A682A4322F070020D6815435D60AE
:105060000268BA4213D0B2F1804F10D0104B9A426E
:105070000DD0104B9A420AD00F4B9A4207D062458E
:1050800005D00E4B9A4202D00D4B9A4204D124F027
:1050900080038968194391603C304670002101709B
:1050A0000020F0BD0220F0BD0000014000040140DE
:1050B0000004004000080040000C004000180040C0
:1050C0000040014010B50446002C03D094F83D0088
:1050D00010B107E0012010BD002084F83C002046FC
:1050E00000F018F8022084F83D002068211D01F02E
:1050F00047FF01203D34E0726070A070E0702071C5
:105100006071A071E07120726072A0722070002046
:1051100010BD000008B500682649884209D126481C
:10512000016841F001010160006800F00100009099
:1051300008BD2149214A0839904211D1086840F040
:1051400040000860086800F04000009000222B201A
:105150001146FDF7DFFBBDE808402B20FDF7CCBB77
:10516000174A904211D1086840F080000860086832
:1051700000F08000009000222C201146FDF7CAFBB1
:10518000BDE808402C20FDF7B7BB0E4A9042CFD1B6
:10519000086840F480700860086800F4807000902F
:1051A000002205212D20FDF7B5FBBDE808402D208C
:1051B000FDF7A2BB00000140F04402580018004077
:1051C000001C0040002000400168CA6822F0010273
:1051D000CA6001680A6A41F211131A4207D10A6AC9
:1051E0009B101A4203D10A6822F001020A600121D1
:1051F00080F83D100020704770B50446002594F8F3
:105200003C00012815D0012684F83C60022084F877
:105210003D0020688268394B1A4022F47F42826048
:105220000868702802462ED010DC10F00F0F03D053
:1052300022E04FF0020070BD4FEA201007281BD279
:10524000DFE800F0575757574D394300B0F1101FB2
:105250004FD009DCB0F5805F0FD0B0F5005F1ED0F5
:10526000B0F5801F08D144E0A0F58010203840D070
:1052700010283ED020283CD001253C346670002008
:105280002070284670BDCB682068D1E9012101F06B
:10529000D7FE2068816841F077018160EDE7CB6837
:1052A0002068D1E9012101F0CBFE2068816841F43A
:1052B00080418160E1E7CA684968206802F062F8CD
:1052C0002068502101F0C6FED7E7CA684968206807
:1052D00002F069F82068602101F0BCFECDE7CA68E1
:1052E0004968206802F04EF82068402101F0B2FEC3
:1052F000C3E72068114601F0ADFEBEE788FFCEFF90
:10530000704770B50446206801694FF00005C94335
:10531000890716D4C168C943890712D4E91E0161FF
:105320000120207720688069800703D02046FFF79E
:10533000E7FF05E0204600F0D5F8204600F096F99A
:10534000257720680169C943490718D4C168C94352
:10535000490714D46FF0040101610220207720680E
:10536000806910F4407F03D02046FFF7C9FF05E0B5
:10537000204600F0B7F8204600F078F9257720683D
:105380000169C943090717D4C168C943090713D480
:105390006FF008010161042020772068C069800750
:1053A00003D02046FFF7ACFF05E0204600F09AF856
:1053B000204600F05BF9257720680169C943C906DA
:1053C00018D4C168C943C90614D46FF01001016133
:1053D000082020772068C06910F4407F03D0204661
:1053E000FFF78EFF05E0204600F07CF8204600F035
:1053F0003DF9257720680169C943C90708D1C1680B
:10540000C943C90704D1891E0161204600F030F963
:1054100020680169C943090609D4C168C94309065E
:1054200005D46FF0800101612046FFF7B3FD2068CD
:105430000169C943C90509D4C168C943090605D42E
:105440006FF4807101612046FFF7A3FD20680169B8
:10545000C943490609D4C168C943490605D46FF058
:1054600040010161204600F02DF920680169C9431F
:1054700089060BD4C168C943890607D46FF020019F
:1054800001612046BDE87040FFF785BD70BD00009A
:1054900010B586B00446142101A8FAF765FF0E493D
:1054A0002068884216D10D48016841F00101016071
:1054B000006800F0010000904FF48070019002201D
:1054C00002900020039004900120059001A9044857
:1054D000FCF7C4FE06B010BD00000140E0440258D5
:1054E00000000258704770B504460D46002694F837
:1054F0003C0001280BD0012084F83C000C2A4FD03E
:1055000007DC82B1042A22D0082A06D134E0022026
:1055100070BD102A59D0142A6BD00126002084F8BF
:105520003C00304670BD2068294601F09DFD206892
:10553000816941F0080181612068816921F00401DD
:105540008161206881692A6911438161E6E72068E9
:10555000294601F0D9FD2068816941F4006181612B
:105560002068816921F480618161206881692A69EC
:1055700041EA02218161D1E72068294601F00EFE4F
:105580002068C16941F00801C1612068C16921F04A
:105590000401C1612068C1692A691143C161BDE785
:1055A0002068294601F044FE2068C16941F4006189
:1055B000C1612068C16921F48061C1612068C1694D
:1055C0002A6941EA0221C161A8E72068294601F061
:1055D00069FE2068416D41F0080141652068416D18
:1055E00021F0040141652068416D2A69114341653C
:1055F00094E72068294601F08DFE2068416D41F452
:10560000006141652068416D21F480614165206839
:10561000416D2A6941EA022141657FE710B50446E0
:10562000002C03D094F83D0010B107E0012010BD1C
:10563000002084F83C00204600F017F8022084F88F
:105640003D002068211D01F09BFC01203D34E072EB
:105650006070A070E07020716071A071E0712072C4
:105660006072A0722070002010BD7047704700006B
:1056700010B500680E49884203D1BDE8104002F021
:10568000F9BB0C49884211D10B490888401C80B2F3
:10569000088014280AD300240C80084901200870CF
:1056A0000748FFF791FD06480068446210BD0000FE
:1056B000001C0040001800402E000024220000249E
:1056C000F0020024704790F88010012917D00121C2
:1056D000643001772421016250F8641C0A680B6869
:1056E00023F001030B6022F000510022026050F809
:1056F000643C19602021016202770020704702207B
:1057000070477047704770B5044694F880000128D0
:105710001DD0012084F880002420C4F88400206873
:105720000568026822F0010202602068826822F0A7
:1057300060620A438260204601F048FE20680560EE
:105740002020C4F88400002084F8800070BD02206E
:1057500070BD70B5044694F8800001281DD001206A
:1057600084F880002420C4F884002068056802685A
:1057700022F0010202602068826822F060420A433F
:105780008260204601F022FE206805602020C4F8D7
:105790008400002084F8800070BD022070BD704736
:1057A00070470000074988420BD10268012111624D
:1057B0000221026811620421026811620821006856
:1057C00001627047D40300242DE9F04104462368A8
:1057D000D86919689A6840F60F0500EA0506002E98
:1057E0000ED185060CD501F0200502F080573D430F
:1057F00006D0216F00297DD02046BDE8F041084742
:105800000025002E77D0C84EC84F16400F403743B2
:1058100071D0C70709D0CF0507D501271F62D4F87B
:105820008C3043F00103C4F88C3083070AD5D307CA
:1058300008D0276802233B62D4F88C3043F004037D
:10584000C4F88C3043070AD5D30708D0276804234F
:105850003B62D4F88C3043F00203C4F88C30030769
:105860000CD501F02003334308D0266808233362A7
:10587000D4F88C3043F00803C4F88C3003050BD502
:105880004B0109D526684FF400633362D4F88C309D
:1058900043F02003C4F88C30D4F88C30002B39D07E
:1058A000800609D501F0200002F08051084303D0A2
:1058B000216F09B120468847D4F88C002168896897
:1058C000490602D410F0280F2AD0204601F0DEFE4F
:1058D0002068806840061FD52068083050E8001F07
:1058E00021F0400140E80012002AF5D1E06F70B1CC
:1058F0008F4901E00EE019E00165E06FFBF78EFBD8
:10590000002807D0E06F016DBDE8F0410847204650
:10591000FFF748FFBDE8F0812046FFF743FFF9E7B6
:105920002046FFF73FFFC4F88C50F3E7E66E012EE8
:105930007DD1C6067BD5CE0679D5102018622068A9
:1059400080684FF02003400672D5E16F794A0868FD
:1059500090423AD0774A1832904236D0754A303267
:10596000904232D0734A483290422ED0714A60320F
:1059700090422AD06F4A7832904226D06D4A9032B7
:10598000904222D06B4AA83290421ED06A4A90427E
:105990001BD0694A1832904217D0674A3032904281
:1059A00013D0654A483290420FD0634A6032904229
:1059B0000BD0614A7832904207D05F4A90329042D1
:1059C00003D05D4AA832904201D1406800E04068AF
:1059D00080B200289ED0B4F85C2082429AD9A4F804
:1059E0005E00C869B0F5807F2ED0206850E8001FA7
:1059F00021F4807140E80012002AF6D120680830B6
:105A000050E8001F21F0010140E80012002AF5D102
:105A10002068083050E8001F21F0400140E80012E3
:105A2000002AF5D1C4F88830E566206801E045E039
:105A300014E050E8001F21F0100140E80012002A95
:105A4000F3D1E06FFBF72CF9B4F85C00B4F85E100A
:105A5000401A81B22046FFF754FE5BE734F85C0F32
:105A60006188401A81B260885C3C0028F5D000292A
:105A7000F3D0206850E8002F22F4907240E800260E
:105A8000002EF6D1284EF6432068083050E8002F4B
:105A9000324040E80027002FF6D1C4F88830E56690
:105AA0002567206850E8002F22F0100240E800230C
:105AB000002BF6D12046FFF724FE2BE7C50209D5BF
:105AC000550207D54FF4801018622046BDE8F0411A
:105AD000FFF766BE03060CD501F0800302F4000256
